:1001020012010002000000400516328001000102C7
:020112000001EA
:0A0116000A0600020000004001008C
:1001220009022000010100A0FA0904000002FF00F8
:100132000000070502020002000705860200020015
:1001440009022000010100A0320904000002FF009E
:10015400000007050102400000070581024000007D
:100166001403000000000000000000000000000072
:1001760000000000260341004300430045005300F1
:10018600200049002F004F002000500072006F0031
:10019600640075006300740073001C03550053006F
:1001A600420050002D00440049004F003100360047
:1001B6005200300038000000808182838485868763
:1001C600B0B1B2B3B4B5B6B7A0A1A2A3A4A5A6A771
:1001D600C0D0C0E0EF9001BE939001EDF0ED90012C
:1001E600BE939001EFF0A2009200D0E0D0D022C0E2
:1001F600D0C0E0EF9001BE9390020CF0ED9001BEEE
:0F0206009390020FF0A200B39200D0E0D0D0226C
:101ED700555342502D44494F3136524F38005049DF
:101EE700434F2D44494F3136524F380055534250D6
:0B1EF7002D44494F2D4552524F520020
:04002E0043B1402278
:0400460053B1BF22D1
:04004E0063B1402238
:101EAC00902806E0600312156F902808E06003127A
:101EBC0015FA90281AE0600312128190285CE060F9
:0B1ECC000990281BE060031218492257
:0721F10053B1FD43B10222CE
:1017F700EF5407FE7401A806088002C333D8FCFE25
:10180700EF131313541FFFED601AEF14600C1460ED
:101817000E2402702AEE42808025EE42B08020EE30
:1018270042A0801BEF14600D14601024027010EEAC
:10183700F45280800AEEF452B08004EEF452A00213
:0218470021F18D
:101CFA00EF54F824F8600C24F8600C2410700AAE33
:101D0A00808006AEB08002AEA0EF5407FF7401A82F
:101D1A0007088002C333D8FC5206EE60047F0180B4
:031D2A00027F0035
:011D2D002293
:10211A00E5801207FE900001E5B012081090000257
:05212A00E5A002081011
:101F98001207B890285EF0F5809000011207D190E2
:101FA800285FF0F5B09000021207D1902860F0F594
:041FB800A00221F171
:10216C008F248D253006030201D6AD25AF24120134
:02217C00F5224A
:01002A0022B3
:030040000221F1A9
:101C9000902861E0FF30E2047EFF80027E008EB279
:101CA000EF30E3047FFF80027F008FB5902862E071
:101CB000F580A3E0F590A3E0F5A090285DE0440254
:051CC000F5B10221F165
:0F21C300E4902861F0A374FFF0A3F0E4A3F022EE
:0E12F200E490285DF0A374FFF0A3F0A3F022B7
:101BE40090285DE0FF30E2047EFF80027E008EB22A
:101BF400EF30E3047FFF80027F008FB590285EE022
:101C0400F580A3E0F5B090285DE04402F5B190289A
:0D1C140060E0F5A075B6FF75B4FF0221F188
:0100320022AB
:01004A002293
:101B68007AE779407F40AB077D017F037E0012183A
:101B7800F590E740E090010CF090E740E024CD605C
:101B88000B0470107BFF7A1E79D7800E7BFF7A1EBC
:0E1B980079E580067BFF7A1E79F31217A022F2
:01005200228B
:0122120022A9
:1011AC00D205120CDA500302127F90E6B9E024D07B
:1011BC006007241E600302127D90E6B8E030E73C25
:1011CC0090E740E580F0A3E5B0F0A3E5A0F0E5B131
:1011DC0013135403A3F0E5B130E4047F0180027FC4
:1011EC000090E744EFF0E490E68AF090E6BEE090E1
:1011FC00E68BF090E6A0E04480F08077E490E68AFD
:10120C00F090E6BEE090E68BF090E6A0E020E1F9ED
:10121C0090E743E030E0047FFF80027F008FB290C4
:10122C00E743E030E1047FFF80027F008FB590E65A
:10123C00BAE030E0047F1080027F0090E743E05476
:10124C0003FE25E025E04F90285DF0F5B190E740D6
:10125C00E090285EF0F58090E741E090285FF0F593
:10126C00B090E742E0FF902860F0F5A01221F180E9
:04127C0002D322C3B4
:01128000224B
:1020CE00564A756C20323220323032304031353A39
:0B20DE0034313A3437000000000000ED
:10212F00021120E502080000011601011701010A42
:04213F00010118FF83
:1020E900902803E0FF7006902802E060089028021B
:0920F900E0FD02205F1222032227
:101FDF007E007F657D007B017A2879001208E890EA
:101FEF002800740AF0E4A3F01212F2121BE402208C
:011FFF0040A1
:10000E007D021218ED902800E0B40A04A3E060030C
:0C001E00021FDF7D651218ED121BE422AA
:10204000902800740AF0E4A3F07A287B007D657F75
:0F205000017E1F121CC57D657F007E1F022200CE
:101665001220E990E6BEE0F532753402E5326057A6
:10167500C3944050058532338003753340E490E6CA
:101685008AF090E68BE533F090E6A0E020E1F9E4FE
:10169500F531E531C39533502574402531F582E4A4
:1016A50034E7F583E0FFAE340534EE7C007B01249E
:1016B50000F9EC3428FAEF1207FE053180D4C3E5B2
:0A16C500329533F53280A50220E9CA
:1000560090E6B8E030E745E4F530F52FE52FC39498
:100066000450247E007B01745D252FF9EE3428FAB6
:100076001207B8FF74402530F582E434E7F583EFC4
:10008600F0052F053080D5E490E68AF090E6BEE0D4
:1000960090E68BF090E6A0E04480F02290E6BEE089
:1000A60090E68BF090E6A0E020E1F990E6BEE064F1
:1000B600046003C20522E4F52FF530E52FC394044E
:1000C600502474402530F582E434E7F583E0FFE5FB
:1000D6002F7C007B01245DF9EC3428FAEF1207FE31
:1000E600052F053080D590E6BAE0B4CE08A3E0B47B
:0500F600AC03122040E4
:0100FB0022E2
:0F21D200D3E50E950CE50D950B40031221A222CB
:0122130022A8
:101FBC00902805E0FE902804E07C002400F50CEC51
:101FCC003EF50B450C7007C28CC2A9C20422D28C00
:031FDC00D2A92265
:0122140022A7
:101AA60090E6BEE090E68BF090E6A0E020E1F9E457
:101AB600FF74422FF582E434E7F583E0FEEF7C0005
:101AC6007B012461F9EC3428FAEE1207FE0FBF04FD
:101AD600E090E740E0902804F090E741E090280588
:041AE600F0021FBC2F
:1021A200121C90E4902865F0A3F0F50DF50ED20410
:0121B200220A
:10200000C204E4902865F0A3F0F50DF50EC28CC271
:10201000A9538EF75389F1438901122214021FBC80
:100E7B0090E6B8E020E703020F30E4F53090280449
:100E8B00E0FFAE30053074402EF582E434E7F58395
:100E9B00EFF0902805E0FFAE30053074402EF58260
:100EAB00E434E7F583EFF0E4F52FE52FC39404501A
:100EBB00247E007B017461252FF9EE3428FA12078A
:100ECB00B8FF74402530F582E434E7F583EFF00585
:100EDB002F053080D5AE30053074402EF582E434CA
:100EEB00E7F583E50EF0E50DFFAE30053074402ECF
:100EFB00F582E434E7F583EFF0A204E433FFAE3080
:100F0B00053074402EF582E434E7F583EFF0C2042C
:100F1B00E490E68AF090E6BEE090E68BF090E6A0D7
:100F2B00E04480F02290E6BEE090E68BF090E6A0E5
:100F3B00E020E1F9C20490E6BEE064066003C2055E
:100F4B0022E4F530AF30053074402FF582E434E7FE
:100F5B00F583E0902804F0AF30053074402FF58214
:100F6B00E434E7F583E0902805F0E4F52FE52FC393
:100F7B009404502474402530F582E434E7F583E083
:100F8B00FFE52F7C007B012461F9EC3428FAEF128A
:100F9B0007FE052F053080D5121FBC90E6BAE0B4D2
:0A0FAB00CE08A3E0B4AC031220400E
:010FB5002219
:101BA600E50945086019E50915097002150814C309
:101BB60094FFE50864809480501E12004680193018
:101BC60005167508057509FF12002EC205E4902852
:0D1BD60065F0A3F0F50DF50E300402D20508
:011BE30022DF
:0400FC007516012252
:101738001220E990E6BEE0F532E4F534E532605770
:10174800C3944050058532338003753340E490E6F6
:101758008AF090E68BE533F090E6A0E020E1F9E42A
:10176800F531E531C39533502574402531F582E4D0
:1017780034E7F583E0FFAE340534EE7C007B0124CA
:101788001BF9EC3428FAEF1207FE053180D4C3E5C3
:07179800329533F53280A504
:01179F002227
:101849001516E516704B90281BE0F51612002AE4D0
:10185900F52190285CE0FFE521C39F5031E5212562
:10186900E0241CF582E43428F583E0F522E52125FE
:10187900E0241DF582E43428F583E0F523547FFD47
:10188900E523339206AF2212216C052180C4120090
:01189900400E
:01189A00222B
:1020200090E6BEE090E68BF090E6A0E020E1F9902B
:10203000E740E0902806F090E741E0902807F02282
:10156F001517E51760030215F9902806E0F5177BAC
:10157F00017A28798D12211AE4FFFE748D2EF582DF
:10158F00E43428F583E0FD74692EF582E43428F500
:10159F0083E06DF97D01E4FCECC394085046E95DEE
:1015AF006029746C2FF582E43428F583E014F0740D
:1015BF006C2FF582E43428F583E0702074692EF5E2
:1015CF0082E43428F583E06DF08000902807E0FB7B
:1015DF00746C2FF582E43428F583EBF00CED25E0E5
:0A15EF00FD0F80B40EEE640370914E
:0115F90022CF
:1021020090E6BEE090E68BF090E6A0E020E1F99048
:08211200E740E0902808F022EC
:101C2100E4F515FF748A2FF582E43428F583E0FE8C
:101C310074872FF582E43428F583EEF0748A2FF54A
:101C410082E43428F583E0FE74842FF582E434289D
:081C5100F583EEF00FBF03CC98
:011C59002268
:1015FA00150AE50A7064902808E0F50A7B017A2842
:10160A00798A12211AE4FF74872FF582E43428F5C7
:10161A0083C083C082E0FE748A2FF582E43428F501
:10162A0083E0FDEE5DD082D083F074842FF582E4EE
:10163A003428F583C083C082E0FE748A2FF582E4E1
:10164A003428F583E0FDEE4DD082D083F00FBF033E
:0A165A00B6E515C394FF5002051514
:011664002263
:0421F8007518FF2235
:10128100E4F5210518F52190281AE0FFE521C39F17
:101291005054E52125E0240BF582E43428F583E060
:1012A100C39518501EE52125E0240AF582E434286F
:1012B100F583E0FE547FFFEE30E7047D0080207D62
:1012C10001801CE52125E0240AF582E43428F58318
:1012D100E0FE547FFFEE30E7047D0180027D0012C5
:1012E10017F7052180A1902809E0B51803E4F51846
:0112F10022DA
:101D620090E6BEE090E68BF090E6A0E020E1F9E498
:101D7200FF74402FF582E434E7F583E0FEEF7C0048
:101D82007B012409F9EC3428FAEE1207FE0FBF1288
:011D9200E070
:011D9300222D
:0413B8008E318F32B1
:1013BC00E4F533E53264024531700C90E741F0E519
:1013CC0032153270021531E53264014531701690D8
:1013DC00E7407465F090E6BEE090E68BF0E53215E0
:1013EC003270021531E5324531605D90E6A0E020A7
:1013FC00E1F9C3E5329440E53194005004AD3280FC
:10140C00027D40E4FFEFC39D5025AE330533EE75EE
:10141C0083007B012400F9E5833428FA1207B8FE17
:10142C0074402FF582E434E7F583EEF00F80D6E4B8
:10143C0090E68AF090E68BEDF0FFC3E5329FF53233
:08144C00E5319400F531809DAB
:011454002275
:1002150090E6B8E030E76390E6BFE0FE90E6BEE02A
:10022500FDEDFF4E7002804D90E6BDE0FD90E6BC11
:10023500E04D70030213B890E6BDE0600302059E31
:1002450090E6BCE014600302059E7534FF75352009
:100255007536CE75370075381E7B017AE779411200
:10026500189B7B017AE77940122144EF0490E7401F
:10027500F090E6BEE090E68BF02290E6BFE0FF90BE
:10028500E6BEE04F707790E6BDE0704D90E6BCE0CD
:1002950024EF6023249F603024FD603324F3603411
:1002A5002472703590E6BAE064CE702DA3E064AC9C
:1002B5007027122040802290E6BAE0B4CE1BA3E05E
:1002C500B4AC16121FDF8011E490281AF0800A756D
:1002D50018FF8005E490285CF090E6BDE06480603E
:1002E5000302059E90E6BCE06401600302059E9052
:1002F500E6BAE0902802F090E6BB0203C490E6BFA0
:10030500E0600302059E90E6BDE0FE90E6BCE07C61
:10031500002400FFEC3EFEEF8EF01208BB036A00DE
:1003250020036A0021036A0022036A0023039F0059
:100335002F03CC004103DA005103E8005304080001
:1003450061041600630436007104440073046400FC
:100355007404BA008104C8008304E80084053F8062
:10036500010000059E90E6BEE0B463031216659099
:10037500E6BCE030E003121BE490E6BCE020E103BC
:1003850002059E90E6BAE064CE600302059EA3E0F6
:1003950064AC600302059E02204090E6BEE0640264
:1003A500600302059EE090E68BF090E6A0E020E178
:1003B500F91220E990E740E0902802F090E741E04B
:1003C500902803F002059B90E6BEE06406600302F8
:1003D500059E021AA690E6BEE06402600302059E31
:1003E50002202090E6BEE06401600302059EE090D5
:1003F500E68BF090E6A0E020E1F990E740E0902858
:1004050006F02290E6BEE06401600302059E02212B
:100415000290E6BEE06401600302059EE090E68B73
:10042500F090E6A0E020E1F990E740E0902808F0A0
:100435002290E6BEE06412600302059E021D6290F2
:10044500E6BEE06401600302059EE090E68BF09055
:10045500E6A0E020E1F990E740E0902809F022903D
:10046500E6BEE06402600302059E90281AE0C3948C
:1004750008400302059E90E6BEE090E68BF090E60C
:10048500A0E020E1F990E740E0FF90281AE0FE2582
:10049500E02408F582E43428F583EFF090E741E0A5
:1004A500FFEE25E02409F582E43428F583EFF0908A
:1004B500281A02053B90E6BEE06442600302059EF1
:1004C50002173890E6BEE06401600302059EE090E5
:1004D500E68BF090E6A0E020E1F990E740E0902877
:1004E5001BF02290E6BEE06402600302059E9028A0
:1004F5005CE0C39420400302059E90E6BEE090E6D2
:100505008BF090E6A0E020E1F990E740E0FF90282D
:100515005CE0FE25E0241AF582E43428F583EFF04B
:1005250090E741E0FFEE25E0241BF582E43428F551
:0A05350083EFF090285CE004F02250
:10053F0090E6BEE090E68BF090E6A0E020E1F99027
:10054F00E6BEE0B4042290E740E0F8A3E0F9A3E0B0
:10055F00FAA3E0FB7F007E1B7D377C4B12069A12BD
:10056F0007378E2F8F30801390E6BBE0FE90E6BAF0
:10057F00E07C002400F530EC3EF52FC3E49530FD10
:0F058F00E4952FFCED902802F0ECA3F01220E988
:01059E00223A
:1020B30090E6047480F00000007402F000000074E5
:0B20C30006F0000000E4F00000002226
:0122150022A6
:101AEA00E4F52A7AE779407F40AB077D087FF87EE4
:101AFA001D1218F5E4F52A7440252AF582E434E724
:101B0A00F583E0FDE52A75F002A42468F97401352D
:0E1B1A00F08982F583EDF0052AE52AB408D99A
:011B2800229A
:101B290090E678E05410FFC4540F4450F51313E4C1
:101B390033F514438E201222031200321221E912C6
:101B49001AEA121B68D20112000E1220001200FCC0
:0F1B5900121C211221F81220E912004602004A44
:10215900120052121BA61221D290E680E054F7F029
:032169000222123D
:0617A0008B2A8A2B892C24
:1017A600E4F52D1221448F2EE52E25E0240290012A
:1017B600A0F0E4F52DAF2EEF3395E0FEC3E52D9FA7
:1017C600EE6480F87480985027AB2AAA2BA92C8542
:1017D6002D827583001207D1FDE52D75F002A42434
:1017E600A2F9740135F08982F583EDF0052D80C5E7
:0117F60022D0
:061989008E3D8F3EAC050F
:10198F00E4FDE5146012E53DFF7E000DEE2512F536
:10199F0082E43511F583EFF0AE050DE5122EF582D9
:1019AF00E43511F583E53EF0AF050DE5122FF58215
:1019BF00E43511F583ECF0AB12AA11AF1312209797
:0519CF00AF13021C5AD9
:0322000002198937
:0A1CC5008E378F388D398A3A8B3B39
:101CCF00E4F53CE53CC3953950200538E538AE378F
:101CDF007002053714FFE53B253CF582E4353AF5F4
:0A1CEF0083E0FD122200053C80D9BD
:011CF90022C8
:0818ED007A287B007F017E1FB9
:0A18F5008E378F388D398A3A8B3B0D
:1018FF00E4FDF53CE5146012E537FF7E000DEE25A3
:10190F0012F582E43511F583EFF0AE050DE5122ED9
:10191F00F582E43511F583E538F0AB12AA11AF1358
:0E192F00122097AB3BAA3AAD39AF1302207BD2
:100B390090E6BAE0752F00F530A3E0FEEE422F9063
:100B4900E6BEE0753100F532A3E0FEEE423190E6F3
:100B5900B8E064C06003020C46E532453170030217
:100B69000CD990E6A0E020E1F9C3E5329440E531E3
:100B79009400500885313385323480067533007509
:100B8900344090E6B9E064A3705890E6BCE0B40143
:100B99001BA3E0701790E6BBE030E71090E74074C4
:100BA90003F0A37401F0A37403F0806CE4F535F548
:100BB90036C3E5369534E5359533505CE530253651
:100BC900F582E52F3535F583E0FF74402536F5824A
:100BD90074E73535F583EFF00536E53670D305351D
:100BE90080CFE4F535F536C3E5369534E5359533EB
:100BF900501974402536F58274E73535F58374CD7F
:100C0900F00536E53670E0053580DCAD347AE77BF2
:100C190040AF30AE2F1218F5E490E68AF090E68BDB
:100C2900E534F02530F530E533352FF52FC3E532BE
:100C39009534F532E5319533F531020B6290E6B81A
:100C4900E064406003020CD9E53245317003020CBF
:100C5900D9E490E68AF090E68BF090E6A0E020E1F6
:100C6900F990E68BE0753300F53490E6B9E0B4A36A
:100C790036E4F535F536C3E5369534E53595335023
:100C89003374402536F58274E73535F583E0FFE5A1
:100C9900302536F582E52F3535F583EFF00536E554
:100CA9003670D3053580CFAD347AE77B40AF30AEAF
:100CB9002F121CC5E5342530F530E533352FF52FD6
:100CC900C3E5329534F532E5319533F531020C51EE
:010CD90022F8
:02220600C322F1
:02220800D322DF
:02220A00D322DD
:0800030090E6BAE0F50FD322EC
:10217E0090E740E50FF0E490E68AF090E68B04F0ED
:02218E00D3225A
:0821E10090E6BAE0F510D322EC
:1021900090E740E510F0E490E68AF090E68B04F0DA
:0221A000D32248
:02220C00D322DB
:02220E00D322D9
:02221000D322D7
:1010BE00E4FF90E6B8E020E7030211AB0F0F744097
:1010CE002401F582E434E7F583740AF00F744024AA
:1010DE0002F582E434E7F583E4F00F74402403F55F
:1010EE0082E434E7F583E4F00F74402404F582E4DF
:1010FE0034E7F5837401F00F74402405F582E4346F
:10110E00E7F5837403F00F74402406F582E434E7A8
:10111E00F583E4F00F74402407F582E434E7F58399
:10112E00E4F00F74402408F582E434E7F58374FF8D
:10113E00F00F74402409F582E434E7F58374FFF070
:10114E000F7440240AF582E434E7F5837408F00F37
:10115E007440240BF582E434E7F5837420F00F74A9
:10116E0040240CF582E434E7F5837417F00F7440D5
:10117E00240DF582E434E7F5837417F00F744024E0
:10118E000EF582E434E7F5837401F090E740EFF05A
:0D119E00E490E68AF090E6BEE090E68BF06B
:0111AB002221
:100CDA0090E6B9E01208950D21100D21110D651449
:100CEA000E19150D0F280D092E0D033C0D1B3F0D76
:100CFA0015A20D15A300000E77120215020E791225
:100D0A000E7B020E79120056020E79120B39020E70
:100D1A00791210BE020E7990E6B8E030E70C7B013A
:100D2A007AE7794012211A020E6190E6BEE070104D
:100D3A0090E6BCE0FF90E6BAE0FD1217F7020E79E2
:100D4A0090E6BEE090E68BF090E6A0E020E1F97B29
:100D5A00017AE77940121F98020E79C2AF90E74CE8
:100D6A00E515F0E4F5157B017AE7794912211AE4D1
:100D7A00F52B748A252BF582E43428F583E0FF7479
:100D8A0040252BF582E434E7F583EFF0052BE52BBC
:100D9A00B403DF90E6BCE06027E4F52B7487252BCB
:100DAA00F582E43428F583E0F4FF7443252BF582B9
:100DBA00E434E7F583EFF0052BE52BB403DE80245A
:100DCA00E4F52B7487252BF582E43428F583E0FFBC
:100DDA007443252BF582E434E7F583EFF0052BE520
:100DEA002BB403DFE4F52B7484252BF582E4342835
:100DFA00F583E0FF7446252BF582E434E7F583EFAB
:100E0A00F0052BE52BB403DF121C21D2AF8048E496
:100E1A00F52B7469252BF582E43428F583E0FF74F9
:100E2A0040252BF582E434E7F583EFF0052BE52B1B
:100E3A00B403DFE4F52B746C252BF582E43428F532
:100E4A0083E0FF7443252BF582E434E7F583EFF062
:100E5A00052BE52BB418DFE490E68AF090E6BEE0B5
:100E6A0090E68BF090E6A0E04480F08002C322D3A3
:010E7A002255
:101E2600C0E0C083C082C085C084C086758600902D
:101E3600E6B5E04401F0D2005391EF90E65D7401FF
:0E1E4600F0D086D084D085D082D083D0E03218
:101F2900C0E0C083C082C085C084C0867586005366
:101F390091EF90E65D7404F0D086D084D085D0828C
:051F4900D083D0E0325E
:101F4E00C0E0C083C082C085C084C0867586005341
:101F5E0091EF90E65D7402F0D086D084D085D08269
:051F6E00D083D0E03239
:1019D400C0E0C083C082C085C084C0867586009084
:1019E400E680E030E70E85434785444885454985D0
:1019F400464A800C85454785464885434985444A7F
:101A04005391EF90E65D7410F0D086D084D085D0E9
:061A140082D083D0E03215
:101F0200C0E0C083C082C085C084C086758600D20E
:101F1200035391EF90E65D7408F0D086D084D085AB
:071F2200D082D083D0E03231
:101A1A00C0E0C083C082C085C084C086758600903D
:101A2A00E680E030E70E8543478544488545498589
:101A3A00464A800C85454785464885434985444A38
:101A4A005391EF90E65D7420F0D086D084D085D093
:061A5A0082D083D0E032CF
:012216003295
:012217003294
:012218003293
:012219003292
:01221A003291
:01221B003290
:01221C00328F
:01221D00328E
:01221E00328D
:01221F00328C
:01222000328B
:01222100328A
:012222003289
:012223003288
:012224003287
:012225003286
:012226003285
:012227003284
:012228003283
:012229003282
:01222A003281
:01222B003280
:01222C00327F
:01222D00327E
:01222E00327D
:01222F00327C
:01223000327B
:01223100327A
:012232003279
:012233003278
:012234003277
:012235003276
:012236003275
:012237003274
:012238003273
:012239003272
:0A00360000010202030304040505A3
:03000B000216CF0B
:1016CF00C0E0C0F0C083C082C085C084C08675866C
:1016DF0000C0D075D000C000C004C005C006C00750
:1016EF00054DE54DB40627050EE50E7002050DAE4E
:1016FF000DFF7C007D0A120832ED4C700E902866AB
:10170F00E004F07006902865E004F0754D00D007F6
:10171F00D006D005D004D000D0D0D086D084D085CC
:09172F00D082D083D0F0D0E0326A
:10145500E4F529F528F527F526C203C201C202C223
:1014650000121B29753F0175400275410175421631
:10147500754301754422754501754644754B0175E3
:101485004C66D2E843D82090E668E04409F090E63F
:101495005CE0443DF0D2AFD207121DF790E680E044
:1014A50054F7F0C203300005120914C200300329B5
:1014B5001222065024C203121F7320011690E682E1
:1014C500E030E704E020E1EF90E682E030E604E07A
:0E14D50020E0E4121E5412220812215980C792
:1009140090E6B9E070030209C5147003020A422488
:10092400FE7003020AC524FB70030209BF1470039E
:100934000209B914607314607624056003020B2560
:1009440012220A4003020B3190E6BBE024FE60222F
:1009540014603324FD601114602224067048E53FBE
:1009640090E6B3F0E5408037E54190E6B3F0E54228
:10097400802DE54790E6B3F0E5488023E54990E60D
:10098400B3F0E54A801990E6BAE0FF121E80AA0689
:10099400A9077B01EA494B600DEE90E6B3F0EF90B6
:1009A400E6B4F0020B31020B2A122190020B311231
:1009B40021E1020B31120003020B3112217E020BE2
:1009C4003112220C4003020B3190E6B8E0247F6020
:1009D4001514601924027063A201E43325E0FFA218
:1009E40002E4334F8041E490E740F0803F90E6BC5E
:1009F400E0547EFF7E00E0D394807C0040047D01BF
:100A040080027D00EC4EFEED4F2436F58274003EEC
:100A1400F583E493FF3395E0FEEF24A1FFEE34E683
:100A24008F82F583E0540190E740F0E4A3F090E670
:100A34008AF090E68B7402F0020B31020B2A122228
:100A44000E4003020B3190E6B8E024FE6016240247
:100A54006003020B3190E6BAE0B40105C201020B57
:100A640031020B2A90E6BAE0705590E6BCE0547E61
:100A7400FF7E00E0D394807C0040047D0180027DF1
:100A840000EC4EFEED4F2436F58274003EF583E40F
:100A940093FF3395E0FEEF24A1FFEE34E68F82F559
:100AA40083E054FEF090E6BCE05480131313541F0B
:100AB400FFE0540F2F90E683F0E04420F0806E8036
:100AC40065122210506790E6B8E024FE601A2402F2
:100AD400705B90E6BAE0B40104D201805090E6BAAB
:100AE400E0B402028047803E90E6BCE0547EFF7E84
:100AF40000E0D394807C0040047D0180027D00EC02
:100B04004EFEED4F2436F58274003EF583E493FFE8
:100B14003395E0FEEF24A1FFEE34E68F82F5838067
:100B2400081211AC500790E6A0E04401F090E6A052
:040B3400E04480F029
:010B3800229A
:030033000221FCAB
:0421FC0053D8EF3293
:10205F00E4F5C8E58E54074438F58E8FCB8FCDAF9E
:0C206F00058FCA8FCCD2BDD2ADD2CA22E0
:101DC600AB07AA06A905A8047F007E1B7D377C4BBE
:101DD60012069AAB07AA06A905A804E4FFFE7D80B1
:101DE6007C471205A2120737AD07AC06AF040220E6
:011DF6005F8D
:1021B300AD07AC06C3E49DFBE49CFFEBFD02205F8F
:03220300C2CA222A
:03002B0002193D7A
:10193D00C0E0C0F0C083C082C085C084C0867586FB
:10194D0000C0D075D000C000C001C002C003C004EB
:10195D00C005C006C007121EACC2CFD007D006D03E
:10196D0005D004D003D002D001D000D0D0D086D085
:0C197D0084D085D082D083D0F0D0E0323E
:03004300021300A5
:0300530002130095
:10130000021E2600021F4E00021F2900021F0200BB
:101310000219D400021A1A00022216000222170033
:10132000022218000222190002221A0002221B00C7
:1013300002221C0002221D0002221E0002221F00A7
:101340000222200002221700022221000222220093
:10135000022223000222240002222500022226006B
:101360000222270002221700022217000222170081
:10137000022228000222290002222A0002222B0037
:1013800002222C0002222D0002222E0002222F0017
:1013900002223000022231000222320002223300F7
:1013A00002223400022235000222360002223700D7
:0813B00002223800022239007C
:101E540090E682E030E004E020E60B90E682E03099
:101E6400E119E030E71590E680E04401F07F147E4C
:0C1E740000121A6090E680E054FEF0229C
:101F730090E682E044C0F090E681F04387010000E0
:041F83000000002238
:101DF70030070990E680E0440AF0800790E680E02B
:101E07004408F07FDC7E05121A6090E65D74FFF0EF
:0F1E170090E65FF05391EF90E680E054F7F022F1
:0821E900E4F51ED2E9D2AF2299
:101C5A0090E678E020E6F9C2E990E678E04480F080
:101C6A00EF25E090E679F090E678E030E0F990E64A
:101C7A0078E04440F090E678E020E6F990E678E0F3
:061C8A0030E1D6D2E92290
:101D9400A90790E678E020E6F9E51E702390E6783E
:101DA400E04480F0E925E090E679F08D19AF03A9CD
:101DB40007751A018A1B891CE4F51D751E01D322BF
:021DC400C32238
:101D2E00A90790E678E020E6F9E51E702590E678A2
:101D3E00E04480F0E925E0440190E679F08D19AF9A
:101D4E0003A907751A018A1B891CE4F51D751E036C
:041D5E00D322C322A7
:03004B00020FB6EB
:100FB600C0E0C083C082C085C084C086758600C07C
:100FC600D075D000C000C001C002C003C006C00773
:100FD60090E678E030E206751E060210A090E678EC
:100FE600E020E10CE51E64026006751E070210A0F3
:100FF600E51E24FE605F14603624FE700302109125
:1010060024FC700302109D240860030210A0AB1A92
:10101600AA1BA91CAF1D051D8F827583001207D15F
:1010260090E679F0E51D65197070751E05806B9068
:10103600E679E0AB1AAA1BA91CAE1D8E8275830049
:10104600120810751E02E5196401704E90E678E0EC
:101056004420F08045E51924FEB51D0790E678E0AA
:101066004420F0E51914B51D0A90E678E04440F0F6
:10107600751E0090E679E0AB1AAA1BA91CAE1D8E60
:1010860082758300120810051D800F90E678E044F3
:1010960040F0751E008003751E005391DFD007D007
:1010A60006D003D002D001D000D0D0D086D084D0D4
:0810B60085D082D083D0E03226
:021E8000A907B0
:101E8200AE4BAF4C8F828E83A3E064037017AD011B
:101E920019ED7001228F828E83E07C002FFDEC3ED3
:091EA200FEAF0580DF7E007F0029
:011EAB002214
:10207B00121D2EE51E24FA600E146006240770F361
:0C208B00D322E4F51ED322E4F51ED3227C
:10209700121D94E51E24FA600E146006240770F3DF
:0C20A700D322E4F51ED322E4F51ED32260
:101A60008E2A8F2B90E600E054187012E52B24018B
:101A7000FFE4352AC313F52AEF13F52B801590E602
:101A800000E05418FFBF100BE52B25E0F52BE52AED
:101A900033F52AE52B152BAE2A7002152A4E600568
:061AA000121F8780EE22F8
:101F87007400F58690FDA57C05A3E582458370F96D
:011F97002227
:10059F000207A3E86480F8E933E83360110460F0E0
:1005AF00ED33EC337009E8FCE9FDEAFEEBFF2204C2
:1005BF0060DED3EB9FEA9EE99DE8C2E78CF0C2F7BD
:1005CF0095F0400CE8CCF8E9CDF9EACEFAEBCFFB89
:1005DF0012076E85D0F05804700320D5B3E804706D
:1005EF00075002B2D50207AD92D5EC0460F7E4CC08
:1005FF00C0E0C398F8603B94186008400DD0E0FB52
:10060F00020785E4FBFAC9FC8028E830E406E4C958
:10061F00FBE4CAFCE830E305E4C9CACBFCE85407A5
:10062F006010F8C3E913F9EA13FAEB13FBEC13FCB0
:10063F00D8F130F52FC3E49CFCEF9BFFEE9AFEED53
:10064F0099FDD0E0FBEF4E4D4C701222DB030207F9
:10065F00AAEC2CFCEF33FFEE33FEED33FDED30E76C
:10066F00EB020785EF2BFFEE3AFEED39FDD0E0FBF5
:10067F0050130BBB00030207ADED13FDEE13FEEF9E
:08068F0013FFEC13FC020785C8
:100697000207ADEC5D046005E8590470030207A387
:1006A70012076E580460F6EC4860F2EC7004FDFE29
:1006B700FF22C860DB2481C85009C3986002500636
:1006C7000207AA9850CAF582E9294B4A7005AB82FE
:1006D70002079975F0007C1A7880C3EF9BEE9AEDBC
:1006E70099400DC3EF9BFFEE9AFEED99FDE842F0AE
:1006F700DC23ACF0D0E0FFD0E0FED0E0FDAB822001
:10070700E7101BEB60BAEC2CFCEF33FFEE33FEED8A
:1007170033FD020785E803F830E705C0F075F00000
:10072700EF2FFFEE33FEED33FD40B830E7C280AA6E
:10073700EDD2E7CD33EC3392D524814006E4FFFEBA
:10074700FDFC22FCE4CFCECDCC24E0501174FF8019
:10075700EDC3CC13CCCD13CDCE13CECF13CF0470B6
:07076700F030D5DE02088727
:10076E00E9D2E7C933E833F892D5EDD2E7CD33ECD1
:07077E0033FC5002B2D5224A
:10078500EC30E7100FBF000C0EBE00080DBD0004D5
:100795000BEB6014A2D5EB13FCED92E7FD2274FF81
:1007A500FCFDFEFF22E480F8A2D574FF13FC7D80DA
:0307B500E480EFEE
:030000000214E304
:0C14E300787FE4F6D8FD75814D02152AD3
:1007B800BB010689828A83E0225002E722BBFE023F
:0907C800E32289828A83E4932272
:1007D100BB010CE58229F582E5833AF583E02250DD
:1007E10006E92582F8E622BBFE06E92582F8E22227
:0D07F100E58229F582E5833AF583E4932241
:1007FE00BB010689828A83F0225002F722BBFE01DA
:02080E00F322D3
:10081000F8BB010DE58229F582E5833AF583E8F01E
:10082000225006E92582C8F622BBFE05E92582C8CA
:02083000F222B2
:10083200BC000BBE0029EF8DF084FFADF022E4CCAA
:10084200F875F008EF2FFFEE33FEEC33FCEE9DEC73
:10085200984005FCEE9DFE0FD5F0E9E4CEFD22EDB9
:10086200F8F5F0EE8420D21CFEADF075F008EF2F03
:10087200FFED33FD4007985006D5F0F222C398FDF4
:050882000FD5F0EA2291
:0E088700C3E49FFFE49EFEE49DFDE49CFC2282
:10089500D083D082F8E4937012740193700DA3A3F2
:1008A50093F8740193F5828883E473740293686006
:0608B500EFA3A3A380DF06
:1008BB00D083D082F8E4937012740193700DA3A3CC
:1008CB0093F8740193F5828883E473740293B5F003
:0D08DB00067403936860E9A3A3A3A380D86B
:10189B008B318A328933E4F539F53AE5381538AEB0
:1018AB0037700215374E6033AB34AA35A9361207A1
:1018BB00B8FFAB31AA32A933053AE53AAC3970021D
:1018CB00053914F5828C83EF120810EF60CD74018B
:1018DB002536F536E43535F53580C0AB31AA32A95E
:0218EB003322A6
:10214400E4FFFE1207B8600C0FEF70010E09E9708E
:05215400F20A80EF22F9
:1008E800EF4E6012EF60010EEDBB010B89828A8327
:1008F800F0A3DFFCDEFA2289F05007F709DFFCA934
:0C090800F022BBFEFCF309DFFCA9F0228A
:1014EF00021455E493A3F8E493A34003F68001F2AA
:1014FF0008DFF48029E493A3F85407240CC8C333FE
:10150F00C4540F4420C8834004F456800146F6DFCC
:10151F00E4800B010204081020408090212FE47E0C
:10152F00019360BCA3FF543F30E509541FFEE493C1
:10153F00A360010ECF54C025E060A840B8E493A388
:10154F00FAE493A3F8E493A3C8C582C8CAC583CAB3
:10155F00F0A3C8C582C8CAC583CADFE9DEE780BE6B
:01214300009B
:00000001FF
