:091FEC000148FF01490001470012
:04002E0043B1202298
:0400460053B1DF22B1
:04004E0063B1202258
:01002A0022B3
:101A8100E4FFE4FEEF75F00CA4245EF582E4342853
:101A9100F58375F004EE12034CE4F0EEC4333354D5
:101AA100C04432FDEF75F00CA4245DF582E43428C6
:101AB100F58375F004EE12034CEDF00EBE03C50F75
:031AC100BF05BF9F
:011AC40022FF
:10203A00E4F5B175B63FF5497548FFF54712003624
:01204A002273
:07208E00A206E433FDFF226E
:0100320022AB
:01004A002293
:101AC500E4FFE4FEEF75F00CA4249AF582E43428D3
:101AD500F58375F004EE12034CE4F0EEC433335491
:101AE500C04432FDEF75F00CA42499F582E4342846
:101AF500F58375F004EE12034CEDF00EBE03C50F31
:031B0500BF05BF5A
:011B080022BA
:10116400E4F526E4F525E52675F00CA4249AF58229
:10117400E43428F58375F004E52512034CE060534C
:10118400E52675F00CA42499F582E43428F58375DA
:10119400F004E52512034CE0FDE52675F00CA424CB
:1011A4009BF582E43428F58375F004E52512034C9D
:1011B400E0FBE52675F00CA4249CF582E43428F5C4
:1011C4008375F004E52512034CE0F53CAF261217B5
:1011D4003E801EE52675F00CA42499F582E434289B
:1011E400F58375F004E52512034CE0FDAF26121ECD
:1011F400350525E525D394025002216A0526E52606
:07120400C3940550022167AD
:01120B0022C0
:01005200228B
:0120B5002208
:0620950075B501C2B02286
:100EB200EF75F00384FEEF75F00384ADF07401A8C2
:100EC20005088002C333D8FCFCEE75F008A4FEECE2
:100ED20025E0FC24E0FC74032EF582E43480F583E3
:100EE200ECF0AF06EF2DFFE433FEE42FF5827480C1
:0D0EF2003EF583E030E7047F0180027F00C1
:010EFF0022D0
:10158F00908000E0F54AE0F54BA3E0F54CE0F54D17
:10159F00A3E0F54EE0F54F908008E0F550E0F551EF
:1015AF00A3E0F552E0F553A3E0F554E0F555908034
:1015BF0010E0F556E0F557A3E0F558E0F559A3E034
:1015CF00F55AE0F55B908018E0F55CE0F55DA3E07F
:1015DF00F55EE0F55FA3E0F560E0F561908020E057
:1015EF00F562E0F563A3E0F564E0F565A3E0F56669
:0415FF00E0F567228A
:0120B6002207
:101D5E00E548F46027E54914600B04701FAF481284
:101D6E000EB28F4922AF48120EB2EF700C12158FC1
:0D1D7E00E4F549054712004E2212004E22E6
:10166E00D204120654405F90E6B9E024DA602424D6
:10167E00027051E490E68BF0F54990E6BAE0B4FFC3
:10168E00057548FF804090E6BAE075F00F8485F04E
:10169E00488033E4FFFE744A2FF8E6FD74402FF5C0
:1016AE008274E73EF583EDF00FBF00010EEF641E6E
:1016BE004E70E390E75EE547F0E4F54790E68B74F5
:0716CE001FF08002D322C3CC
:0116D50022F2
:1010B6001201000200000040051620800100010216
:0C10C60000010A060002000000400100CA
:1010D20009022000010100A0FA0904000002FF0039
:1010E2000000070502020002000705860200020056
:1010F20009022000010100A0FA0904000002FF0019
:1011020000000705010240000007058102400000BF
:1011120014030000000000000000000000000000B6
:101122000000000026034100430043004500530035
:10113200200049002F004F002000500072006F0075
:1011420064007500630074007300160355005300B9
:1011520042002D004300540052002D0031003500A2
:0211620000008B
:101F7300564A756E20323620323031394031353A87
:0B1F830032373A303000000000000050
:0B1FF50002721F8A02680000016D01EB
:06173E008B3BAC07A9057E
:10174400E9C413135403FD75F008ECA42403F582D3
:10175400E5F03480F583E9F0EC75F008A4FFED7A48
:10176400002FFFEA35F0FEE42FF58274803EF58306
:10177400E53BF0E42FF58274803EF583E53CF0AF61
:10178400047E00C006C007AF05EF7C00E9FB8E4372
:0F179400853B448E45853C46D007D0061212B2E5
:0117A3002223
:021E3500AB05FB
:101E3700EBC413135403FD75F008EFA42403F582D4
:101E4700E5F03480F583EBF07E007C007A00121811
:011E5700008A
:011E58002267
:061859008D2BAC07A90372
:10185F00E52BC413135403FDEC75F008A4FFED7AC8
:10186F00002FFFEA35F0FEE42FF58274803EF583FA
:10187F00E9F0E42FF58274803EF583E52DF0AF0497
:10188F007E00C006C007AF05EF7C00E52BFBAF0164
:10189F008E438F448E45852D46D007D0061212B247
:0118AF002216
:10150B00AA05A9077401A805088002C333D8FCFFFC
:10151B0025E044C0FF75F008E9A42403F582E5F04B
:10152B003480F583EFF0E975F008A47C002AFFEC1A
:10153B0035F0FEE42FF58274803EF583E0FD7442B6
:10154B002BF582E434E7F583EDF0E42FF58274801C
:10155B003EF583E0FF74402BF582E434E7F583EF2F
:10156B00F0E975F008A42AFFEC35F0FEE42FF582C4
:10157B0074803EF583E0FF74412BF582E434E7F58C
:04158B0083EFF022D8
:061000008B348A358936AD
:10100600E4F538E4F537E53875F00CA4AB3425364D
:10101600F9E53535F0FAE53775F004A429F9EA352E
:10102600F0FA900001120288604DAA35A93675F0D3
:101036000CE538A4F58285F08375F004E5371203D4
:101046004C120288FCE53875F00CA429F9EA35F053
:10105600FAE53775F004A429F9EA35F0FA900002AA
:10106600120288FD900003120288F53CAB05AD0420
:10107600AF3812173E8022AB34AA35A93675F00C6C
:10108600E538A4F58285F08375F004E53712034C44
:10109600120288FDAF38121E350537E537D39402A4
:0F10A6005002010C0538E538C3940550020109CA
:0110B5002218
:101F8E00902803E0FF7006902802E0600990280276
:0A1F9E00E0FD12000E2212004022A6
:101E7C007E007FD57D007B017A2879001203AB9020
:101E8C002800740AF0E4A3F0121A8112203A121EF0
:021E9C00E12241
:101D8B007A287B007D027F017E1F1219A790280005
:101D9B00E0B40A04A3E06004121E7C227A287B00C4
:0D1DAB007DD57F017E1F1219A712203A225C
:101EE100902800740AF0E4A3F07A287B007DD57F66
:101EF100017E1F121C2C7DD57F007E1F1220A52282
:10160300121F8E90E6BEE0F535753702E53560575B
:10161300C3944050058535368003753640E490E623
:101623008AF090E68BE536F090E6A0E020E1F9E45D
:10163300F534E534C39536502574402534F582E4FA
:1016430034E7F583E0FFAE370537EE7C007B0124FA
:1016530000F9EC3428FAEF1202B5053480D4C3E55F
:0A166300359536F53580A5121F8E6F
:01166D00225A
:0A0036007B017A28795D1210002288
:1012B2008E3D8F3E8C3F8D408A418B42E540AE3F52
:1012C2007802C333CE33CED8F9FF90285E75F00C86
:1012D200E53E12034CE53D75F00CA42583F583E54C
:1012E200822FF582E5833EF5837401F090285F75C5
:1012F200F00CE53E12034CE53D75F00CA42583F598
:1013020083E5822FF582E5833EF583E544F090285C
:101312006075F00CE53E12034CE53D75F00CA4251A
:1013220083F583E5822FF582E5833EF583E546F07A
:1013320090285D75F00CE53E12034CE53D75F00C0E
:10134200A42583F583E5822FF582E5833EF583E5C7
:0313520042F02244
:101800008E398F3A8C3B8D3CE53CAE3B7802C3333E
:10181000CE33CED8F9FF90285E75F00CE53A12036E
:101820004CE53975F00CA42583F583E5822FF5820C
:10183000E5833EF583E4F090285D75F00CE53A12FF
:10184000034CE53975F00CA42583F583E5822FF56B
:0918500082E5833EF583EBF022F2
:10120C0090E6B8E030E745E4F52BF52AE52AC394DF
:10121C003C50247E007B01745D252AF9EE3428FABB
:10122C0012026FFF7440252BF582E434E7F583EF4F
:10123C00F0052A052B80D5E490E68AF090E6BEE016
:10124C0090E68BF090E6A0E04480F02290E6BEE0C1
:10125C0090E68BF090E6A0E020E1F990E6BEE06429
:10126C003C6003C20422E4F52AF52BE52AC3943C26
:10127C0050247440252BF582E434E7F583E0FFE538
:10128C002A7C007B01245DF9EC3428FAEF1202B5BC
:10129C00052A052B80D590E6BAE0B4CE08A3E0B4BD
:0512AC00AC03121EE17D
:0112B100221A
:0F206D00D3E575956CE574956B400312204B22FB
:0120B7002206
:101E5900902805E0FE902804E07C002400F56CEC55
:101E69003EF56B456C7007C28CC2A9C20522D28CA3
:031E7900D2A922C9
:0120B8002205
:101A3C0090E6BEE090E68BF090E6A0E020E1F9E4C1
:101A4C00FF74422FF582E434E7F583E0FEEF7C006F
:101A5C007B012499F9EC3428FAEE1202B50FBF3C45
:101A6C00E090E740E0902804F090E741E0902805F2
:041A7C00F0121E59ED
:011A80002243
:10204B00121164E49028D7F0A3F0F574F575D2055E
:01205B002262
:101EC000C205E49028D7F0A3F0F574F575C28CC272
:101ED000A9538EF75389F14389011220B8121E5974
:011EE00022DF
:101B4A00E56945686019E56915697002156814C385
:101B5A0094FFE56864809480501E12004680193014
:101B6A0004167568057569FF12002EC204E49028F0
:0D1B7A00D7F0A3F0F574F575300502D20424
:011B8700223B
:100B870090E6B8E020E702813DE4F52B902804E0E9
:100B9700FFAE2B052B74402EF582E434E7F583EF87
:100BA700F0902805E0FFAE2B052B74402EF582E46C
:100BB70034E7F583EFF0E4F52AE52AC3943C5024A3
:100BC7007E007B017499252AF9EE3428FA12026F08
:100BD700FF7440252BF582E434E7F583EFF0052A0F
:100BE700052B80D5E575AE2B052B74402EF582E4D9
:100BF70034E7F583E575F0E574FFAE2B052B7440FC
:100C07002EF582E434E7F583EFF0A205E433FFAE77
:100C17002B052B74402EF582E434E7F583EFF0C201
:100C270005E490E68AF090E6BEE090E68BF090E669
:100C3700A0E04480F02290E6BEE090E68BF090E6DC
:100C4700A0E020E1F9C20590E6BEE0643E6003C281
:100C57000422E4F52BAF2B052B74402FF582E434E7
:100C6700E7F583E0902804F0AF2B052B74402FF5B0
:100C770082E434E7F583E0902805F0E4F52AE52AD5
:100C8700C3943C50247440252BF582E434E7F58364
:100C9700E0FFE52A7C007B012499F9EC3428FAEF80
:100CA7001202B5052A052B80D5121E5990E6BAE027
:0B0CB700B4CE08A3E0B4AC03121EE1B1
:010CC200220F
:0420A100756D012236
:1016D600121F8E90E6BEE0F57CE4F57EE57C605751
:1016E600C394405005857C7D8003757D40E490E67B
:1016F6008AF090E68BE57DF090E6A0E020E1F9E443
:10170600F57BE57BC3957D50257440257BF582E40A
:1017160034E7F583E0FFAE7E057EEE7C007B012498
:101726001BF9EC3428FAEF1202B5057B80D4C3E529
:071736007C957DF57C80A588
:01173D002289
:1019F200156DE56D704390281BE0F56D120032E421
:101A0200FE90285CE0FFEEC39F502BEE25E0241CE5
:101A1200F582E43428F583E0FBEE25E0241DF5820F
:101A2200E43428F583E0FAAF03547FFDEA339206EB
:091A320012208E0E80CB12004A36
:011A3B002288
:0120B9002204
:0120BA002203
:041355008E348F350E
:10135900E4F536E53564024534700C90E741F0E573
:1013690035153570021534E535640145347016902C
:10137900E74074D5F090E6BEE090E68BF0E53515D0
:101389003570021534E5354534605B90E6A0E02000
:10139900E1F9C3E5359440E53494005004AC358057
:1013A900027C40E4FDEDC39C5023AF3605367E0038
:1013B9007B0174002FF9EE3428FA12026FFF744092
:1013C9002DF582E434E7F583EFF00D80D8E490E65B
:1013D9008AF090E68BECF0FFC3E5359FF535E534EF
:0613E9009400F534809F22
:0113EF0022DB
:1008000090E6B8E030E76790E6BFE0FE90E6BEE035
:10081000FDEEEDFF4E700590E68BF02290E6BDE018
:10082000FD90E6BCE04D70041213552290E6BDE049
:10083000600221E990E6BCE014600221E97537FF0F
:1008400075381F753973753A00753B1E7B017AE761
:1008500079411219077B017AE77940122001EF04F0
:1008600090E740F090E6BEE090E68BF0222290E622
:10087000BFE0FF90E6BEE04F705990E6BDE0702B00
:1008800090E6BCE024EF601404702090E6BAE0B477
:10089000CE19A3E0B4AC14121EE1800F90E6BAE0CA
:1008A000B4CE08A3E0B4AC03121E7C90E6BDE064B5
:1008B00080600221E990E6BCE06401600221E990D9
:1008C000E6BAE0902802F090E6BBE0902803F01230
:1008D0001F8E2290E6BFE0600221E990E6BDE0FEB7
:1008E00090E6BCE07C002400FFEC3EFEEF8EF012B0
:1008F000037E0912002009120021091200220912A8
:1009000000230945002F09720041097E8001000083
:1009100009E990E6BEE0B4D30312160390E6BCE00A
:1009200030E00312203A90E6BCE020E10221E99099
:10093000E6BAE064CE600221E9A3E064AC60022183
:10094000E9121EE12290E6BEE06402600221E9E0C5
:1009500090E68BF090E6A0E020E1F9121F8E90E780
:1009600040E0902802F090E741E0902803F0121F49
:100970008E2290E6BEE0643E706F121A3C2290E632
:10098000BEE090E68BF090E6A0E020E1F990E6BEB4
:05099000E06404705456
:1009950090E740E0FCA3E0FDA3E0FEA3E0F52D8E8B
:1009A5002C8D2B8C2AFBAA2CA92BA82A7F007E1B19
:1009B5007D377C4B1201518F318E308D2F8C2EABB4
:1009C50031AA30A92FA82EE4FFFE7D807C471200B6
:1009D500591201EE8E328F33EF902802F0E532A3E3
:0409E500F0121F8E5F
:0109E90022EB
:101F580090E6047480F00000007402F00000007441
:0B1F680006F0000000E4F00000002282
:0120BB002202
:101B0900E4F5257AE779407EE77F40AB077D087FDA
:101B1900F87E1D1219A7E4F52574402525F582E400
:101B290034E7F583E0FDE52575F002A42414F97482
:101B39001135F08982F583EDF00525E525B408D93D
:011B49002279
:101C610090E678E05410FFC4540F4450F56E13E42D
:101C710033F571438E20120052122086121B091275
:101C810020B5D200121D8B121EC0121F8E120046EB
:041C91001220952266
:101E9E001220B6121B4A12206DE5B120E70990E61A
:101EAE0080E04408F0800790E680E054F7F0121DC1
:021EBE005E22A2
:0618B0008B768A7789782F
:1018B600E4F5791220018F7AE57A25E02402901169
:1018C6004CF0E4F579AF7AEF3395E0FEC3E5799F06
:1018D600EE6480F87480985027AB76AA77A978854D
:1018E6007982758300120288FDE57975F002A424D9
:1018F6004EF9741135F08982F583EDF0057980C5CE
:0119060022BE
:061959008E3A8F3BAC0545
:10195F00E4FDE5716012E53AFF7E000DEE2573F5AB
:10196F0082E43572F583EFF0E53BAE050DE5732E9E
:10197F00F582E43572F583E53BF0AF050DE5732F86
:10198F00F582E43572F583ECF0AB73AA72AF6E1289
:07199F001F3CAF6E121BF6A6
:0119A600221E
:0420A5001219592291
:0A1C2C008E348F358D368A378B38E1
:101C3600E4F539E539C3953650200535E535AE343A
:101C46007002053414FFE5382539F582E43537F599
:0A1C560083E0FD1220A5053980D9B6
:011C60002261
:0A19A7008E328F338D348A358B3673
:1019B100E4FDF537E5716012E532FF7E000DEE259D
:1019C10073F582E43572F583EFF0E533AE050DE58D
:1019D100732EF582E43572F583E533F0AB73AA72A9
:1019E100AF6E121F3CAB36AA35AD34AF6E121F205D
:0119F10022D3
:1009EA0090E6BAE0752A00F52BA3E0FEE4EE422A6F
:1009FA0090E6BEE0752C00F52DA3E0FEE4EE422C55
:100A0A0090E6B8E064C0600241F6E52D452C70021C
:100A1A00618690E6A0E020E1F9C3E52D9440E52C3B
:100A2A0094005008852C2E852D2F8006752E007572
:100A3A002F4090E6B9E064A3705890E6BCE0B40198
:100A4A001BA3E0701790E6BBE030E71090E7407414
:100A5A0003F0A37401F0A37403F0806CE4F530F59D
:100A6A0031C3E531952FE530952E505CE52B2531C4
:100A7A00F582E52A3530F583E0FF74402531F582A9
:100A8A0074E73530F583EFF00531E5317002053052
:100A9A0080CFE4F530F531C3E531952FE530952E59
:100AAA00501974402531F58274E73530F58374CDD9
:100ABA00F00531E5317002053080DCAD2F7AE77B35
:100ACA0040AF2BAE2A1219A7E490E68AF090E68B83
:100ADA00E52FF0252BF52BE52E352AF52AC3E52D32
:100AEA00952FF52DE52C952EF52C411490E6B8E0BE
:100AFA00644060026186E52D452C70026186E490AF
:100B0A00E68AF090E68BF090E6A0E020E1F990E624
:100B1A008BE0752E00F52F90E6B9E0B4A336E4F524
:100B2A0030F531C3E531952FE530952E50337440B9
:100B3A002531F58274E73530F583E0FFE52B253161
:100B4A00F582E52A3530F583EFF00531E53170029B
:100B5A00053080CFAD2F7AE77B40AF2BAE2A121C2F
:100B6A002CE52F252BF52BE52E352AF52AC3E52D65
:0C0B7A00952FF52DE52C952EF52C610033
:010B8600224C
:020FFE00C3220C
:0217FE00D322F4
:0220AD00D3223C
:0800030090E6BAE0F56AD32291
:1020160090E740E56AF0E490E68AF090E68B04F0FB
:02202600D322C3
:0807F80090E6BAE0F56FD32290
:1020280090E740E56FF0E490E68AF090E68B04F0E4
:02203800D322B1
:0220AF00D3223A
:0220B100D32238
:0220B300D32236
:100DCB00E4FF90E6B8E020E702C1B10F0F744024B6
:100DDB0001F582E434E7F583740AF00F74402402C2
:100DEB00F582E434E7F583E4F00F74402403F582D5
:100DFB00E434E7F583E4F00F74402404F582E43423
:100E0B00E7F583E4F00F74402405F582E434E7F54D
:100E1B0083E4F00F74402406F582E434E7F5837421
:100E2B0005F00F74402407F582E434E7F583E4F012
:100E3B000F74402408F582E434E7F583E4F00F7473
:100E4B00402409F582E434E7F583E4F00F74402481
:100E5B000AF582E434E7F5837408F00F7440240B31
:100E6B00F582E434E7F5837420F00F7440240CF51D
:100E7B0082E434E7F583E4F00F7440240DF582E44B
:100E8B0034E7F583E4F00F7440240EF582E434E785
:100E9B00F583E4F090E740EFF0E490E68AF090E61B
:060EAB00BEE090E68BF0B2
:010EB100221E
:1006540090E6B9E012035806F8200716210728226D
:10066400074123069C25074127068D2806882E0668
:10067400833C06973F0692A20692A3000007F41259
:100684000800E1F6120B87E1F612120CE1F61209EA
:10069400EAE1F6120DCBE1F690E6BCE064016043BA
:1006A40090E6BEE0B42D047F0180027F008F25E434
:1006B400F528F527E4F526E526C39403501CAB275B
:1006C400AD26AF2812150B0526E52560047F0380AF
:1006D400027F02EF2527F52780DD0528E528C3944E
:1006E4000540D190E6BEE090E68BF090E6A0E044B1
:1006F40080F0E1F690E6BAE0FFA3E0FDE4FB12151A
:100704000B90E6BEE090E68BF090E6A0E04480F02B
:10071400E1F6E490E68BF090E6BAE0FFA3E0FD1288
:100724001E35E1F6E490E68BF090E6BAE0FFA3E034
:10073400FDA3E0FBA3E0F52D121859E1F690E6BE07
:10074400E0701490E6BAE0FFA3E0FDA3E0FBA3E0B1
:10075400F53C12173EE1F690E6BEE0642D6002E13E
:10076400F6E090E68BF090E6A0E020E1F9E4F526CF
:10077400E4F52975F009E526A4F58285F08375F082
:1007840003E52912034CE5822440F582E58334E72E
:10079400F583E0FD75F009E526A4F58285F08375FF
:1007A400F003E52912034CE5822441F582E5833404
:1007B400E7F583E0FB75F009E526A4F58285F0836F
:1007C40075F003E52912034CE5822442F582E583A2
:1007D40034E7F583E0F53CAF2612173E0529E529F9
:1007E400C39403408E0526E526C394054082800207
:0307F400C322D34A
:0107F70022DF
:101F0100C0E0C083C08290E6B5E04401F0D2015345
:0F1F110091EF90E65D7401F0D082D083D0E03282
:101FC000C0E0C083C0825391EF90E65D7404F0D00E
:061FD00082D083D0E03254
:101FD600C0E0C083C0825391EF90E65D7402F0D0FA
:061FE60082D083D0E0323E
:101B8800C0E0C083C08290E680E030E70E85090D92
:101B9800850A0E85110F851210800C85110D85128E
:101BA8000E85090F850A105391EF90E65D7410F0C9
:071BB800D082D083D0E0329F
:101FA800C0E0C083C082D2035391EF90E65D74080D
:081FB800F0D082D083D0E032AA
:101BBF00C0E0C083C08290E680E030E70E85090D5B
:101BCF00850A0E85110F851210800C85110D851257
:101BDF000E85090F850A105391EF90E65D7420F082
:071BEF00D082D083D0E03268
:0120BC0032F1
:0120BD0032F0
:0120BE0032EF
:0120BF0032EE
:0120C00032ED
:0120C10032EC
:0120C20032EB
:0120C30032EA
:0120C40032E9
:0120C50032E8
:0120C60032E7
:0120C70032E6
:0120C80032E5
:0120C90032E4
:0120CA0032E3
:0120CB0032E2
:0120CC0032E1
:0120CD0032E0
:0120CE0032DF
:0120CF0032DE
:0120D00032DD
:0120D10032DC
:0120D20032DB
:0120D30032DA
:0120D40032D9
:0120D50032D8
:0120D60032D7
:0120D70032D6
:0120D80032D5
:0120D90032D4
:0120DA0032D3
:0120DB0032D2
:0120DC0032D1
:0120DD0032D0
:0120DE0032CF
:0120DF0032CE
:10000E00E4F5C8E58E54074438F58E8FCB8FCDAF0F
:0C001E00058FCA8FCCD2BDD2ADD2CA2251
:101C9500AB07AA06A905A8047F007E1B7D377C4BF0
:101CA500120151AB07AA06A905A804E4FFFE7D8031
:101CB5007C471200591201EEAD07AC06AF04ECEDFE
:031CC50012000EFC
:011CC80022F9
:10205C00AD07AC06C3E49DFBE49CFFEBFD12000E48
:01206C002251
:03004000C2CA220F
:03002B0002209B15
:06209B0012002AC2CF3240
:08208600E4F51CD2E9D2AF22FF
:101BF60090E678E020E6F9C2E990E678E04480F0E5
:101C0600EF25E090E679F090E678E030E0F990E6AE
:101C160078E04440F090E678E020E6F990E678E057
:061C260030E1D6D2E922F4
:101CFD00A90790E678E020E6F9E51C702390E678D8
:101D0D00E04480F0E925E090E679F08D17AF03A966
:101D1D00077518018A19891AE4F51B751C01D32260
:021D2D00C322CF
:101CC900A90790E678E020E6F9E51C702590E6780A
:101CD900E04480F0E925E0440190E679F08D17AF02
:101CE90003A9077518018A19891AE4F51B751C03DC
:041CF900D322C3220D
:03004B00020CC3E1
:100CC300C0E0C083C082C085C084C086758600C072
:100CD300D075D000C000C001C002C003C006C00769
:100CE30090E678E030E206751C06020DAD90E678DA
:100CF300E020E10CE51C64026006751C07020DADE3
:100D0300E51C24FE605F14603624FE7003020D9E12
:100D130024FC7003020DAA24086003020DADAB1876
:100D2300AA19A91AAF1B051B8F82758300120288AB
:100D330090E679F0E51B65177070751C05806B9064
:100D4300E679E0AB18AA19A91AAE1B8E8275830047
:100D53001202C7751C02E5176401704E90E678E035
:100D63004420F08045E51724FEB51B0790E678E0A4
:100D73004420F0E51714B51B0A90E678E04440F0F0
:100D8300751C0090E679E0AB18AA19A91AAE1B8E60
:100D9300827583001202C7051B800F90E678E0443A
:100DA30040F0751C008003751C005391DFD007D001
:100DB30006D003D002D001D000D0D0D086D084D0CA
:080DC30085D082D083D0E0321C
:101F2000121CC9E51C24FA600E146006240770F325
:0C1F3000D322E4F51CD322E4F51CD322DC
:101F3C00121CFDE51C24FA600E146006240770F3D5
:0C1F4C00D322E4F51CD322E4F51CD322C0
:03004300020F00A9
:03005300020F0099
:100F0000021F0100021FD600021FC000021FA8001E
:100F1000021B8800021BBF000220BC000220BD0093
:100F20000220BE000220BF000220C0000220C1003B
:100F30000220C2000220C3000220C4000220C5001B
:100F40000220C6000220BD000220C7000220C80007
:100F50000220C9000220CA000220CB000220CC00DF
:100F60000220CD000220BD000220BD000220BD00F5
:100F70000220CE000220CF000220D0000220D100AB
:100F80000220D2000220D3000220D4000220D5008B
:100F90000220D6000220D7000220D8000220D9006B
:100FA0000220DA000220DB000220DC000220DD004B
:080FB0000220DE000220DF0038
:0A207C00000102020303040405053D
:03000B000217A435
:1017A400C0E0C0F0C083C082C0D075D000C000C00B
:1017B40004C005C006C0070508E508B4062705757A
:1017C400E57570020574AE74FF7C007D0A1202E9AF
:1017D400ED4C700E9028D8E004F070069028D7E005
:1017E40004F0750800D007D006D005D004D000D08E
:0A17F400D0D082D083D0F0D0E032D4
:1013F000E4F524F523F522F521C203C200C202C29E
:1014000001121C61750B10750CB67513107514C89C
:10141000750910750AD27511107512F275151175CE
:101420001612D2E843D82090E668E04409F090E62E
:101430005CE0443DF0D2AFD207121D2F90E680E071
:1014400054F7F0C2033001051203D7C2013003295B
:10145000120FFE5024C203121E1020001690E682C6
:10146000E030E704E020E1EF90E682E030E604E0DF
:0E14700020E0E4121DB81217FE121E9E80C767
:01147E00224B
:1003D70090E6B9E0B40C004002C1409003E825E084
:1003E70073819AA13DC140A1CFC140C1408100C1E5
:1003F70040819581908186818B1220AD4002C14C4E
:1004070090E6BBE024FE602A14604324FD601514C7
:10041700602E24067060E50B90E6B3F0E50C90E6DD
:10042700B4F0C14CE51390E6B3F0E51490E6B4F0F0
:10043700C14CE50D90E6B3F0E50E90E6B4F0C14C83
:10044700E50F90E6B3F0E51090E6B4F0C14C90E606
:10045700BAE0FF121DE4AA06A9077B01EA494B602F
:100467000CEE90E6B3F0EF90E6B4F0C14C90E6A046
:10047700E04401F0C14C90E6A0E04401F0C14C1209
:100487002028C14C1207F8C14C120003C14C12209E
:1004970016C14C1220AF4002C14C90E6B8E0247F51
:1004A700602914603924026002A134A200E433FFFA
:1004B70025E0FFA202E4334F90E740F0E4A3F09079
:1004C700E68AF090E68B7402F0C14CE490E740F0C6
:1004D700A3F090E68AF090E68B7402F0C14C90E6A8
:1004E700BCE0547EFF7E00E0D3948040067C007D14
:1004F7000180047C007D00EC4EFEED4F247CF582EC
:1005070074203EF583E493FF3395E0FEEF24A1FFCB
:10051700EE34E68F82F583E0540190E740F0E4A3E0
:10052700F090E68AF090E68B7402F0C14C90E6A05A
:10053700E04401F0C14C1220B14002C14C90E6B832
:10054700E024FE601A24026002C14C90E6BAE0B4CF
:100557000104C200C14C90E6A0E04401F0C14C90F8
:10056700E6BAE0705890E6BCE0547EFF7E00E0D328
:10057700948040067C007D0180047C007D00EC4E69
:10058700FEED4F247CF58274203EF583E493FF3320
:1005970095E0FEEF24A1FFEE34E68F82F583E05469
:1005A700FEF090E6BCE05480FF131313541FFFE0E6
:1005B700540F2F90E683F0E04420F0C14C90E6A062
:1005C700E04401F0807F807D1220B3507890E6B838
:1005D700E024FE60232402706C90E6BAE0B40104C4
:1005E700D200806190E6BAE0B40204805880569049
:1005F700E6A0E04401F0804D90E6BCE0547EFF7E2B
:1006070000E0D3948040067C007D0180047C007D5F
:1006170000EC4EFEED4F247CF58274203EF583E41A
:1006270093FF3395E0FEEF24A1FFEE34E68F82F5CA
:1006370083E04401F0800E800C12166E500790E69E
:0C064700A0E04401F090E6A0E04480F048
:010653002284
:030033000220A9FF
:0420A90053D8EF32E7
:101DB80090E682E030E004E020E60B90E682E03036
:101DC800E119E030E71590E680E04401F07F147EE9
:0C1DD80000120FB890E680E054FEF022EC
:101E100090E682E044C0F090E681F0438701000044
:041E2000000000229C
:101D2F0030070990E680E0440AF0800790E680E0F3
:101D3F004408F07FDC7E05120FB890E65D74FFF06B
:0F1D4F0090E65FF05391EF90E680E054F7F022BA
:021DE400A9074D
:101DE600AE15AF168F828E83A3E064037017AD0124
:101DF60019ED7001228F828E83E07C002FFDEC3E70
:091E0600FEAF0580DF7E007F00C5
:011E0F0022B0
:100FB8008E258F2690E600E054187012E52624014D
:100FC800FFE43525C313F525EF13F526801590E6C4
:100FD80000E05418FFBF100BE52625E0F526E525AF
:100FE80033F525E5261526AE25700215254E600534
:060FF800121E2480EE220F
:101E24007400F58690FDA57C05A3E582458370F9D1
:011E3400228B
:1000560002025AE86480F8E933E83360110460F07C
:10006600ED33EC337009E8FCE9FDEAFEEBFF220410
:1000760060DED3EB9FEA9EE99DE8C2E78CF0C2F70B
:1000860095F0400CE8CCF8E9CDF9EACEFAEBCFFBD7
:1000960012022585D0F05804700320D5B3E8047009
:1000A600075002B2D502026492D5EC0460F7E4CCA4
:1000B600C0E0C398F8603B94186008400DD0E0FBA0
:1000C60002023CE4FBFAC9FC8028E830E406E4C9F5
:1000D600FBE4CAFCE830E305E4C9CACBFCE85407F4
:1000E6006010F8C3E913F9EA13FAEB13FBEC13FCFF
:1000F600D8F130F52FC3E49CFCEF9BFFEE9AFEEDA2
:1001060099FDD0E0FBEF4E4D4C701222DB0302024C
:1001160061EC2CFCEF33FFEE33FEED33FDED30E703
:10012600EB02023CEF2BFFEE3AFEED39FDD0E0FB91
:1001360050130BBB0003020264ED13FDEE13FEEF3A
:0801460013FFEC13FC02023C64
:10014E00020264EC5D046005E85904700302025A71
:10015E00120225580460F6EC4860F2EC7004FDFEC5
:10016E00FF22C860DB2481C85009C3986002500684
:10017E000202619850CAF582E9294B4A7005AB829A
:10018E0002025075F0007C1A7880C3EF9BEE9AED58
:10019E0099400DC3EF9BFFEE9AFEED99FDE842F0FC
:1001AE00DC23ACF0D0E0FFD0E0FED0E0FDAB82204F
:1001BE00E7101BEB60BAEC2CFCEF33FFEE33FEEDD9
:1001CE0033FD02023CE803F830E705C0F075F0009D
:1001DE00EF2FFFEE33FEED33FD40B830E7C280AABD
:1001EE00EDD2E7CD33EC3392D524814006E4FFFE09
:1001FE00FDFC22FCE4CFCECDCC24E0501174FF8068
:10020E00EDC3CC13CCCD13CDCE13CECF13CF047004
:07021E00F030D5DE02033EC3
:10022500E9D2E7C933E833F892D5EDD2E7CD33EC1F
:0702350033FC5002B2D52298
:10023C00EC30E7100FBF000C0EBE00080DBD000423
:10024C000BEB6014A2D5EB13FCED92E7FD2274FFCF
:10025C00FCFDFEFF22E480F8A2D574FF13FC7D8028
:03026C00E480EF3C
:0300000002147F68
:0C147F00787FE4F6D8FD75817E0214C66B
:10026F00BB010689828A83E0225002E722BBFE028D
:09027F00E32289828A83E49322C0
:10028800BB010CE58229F582E5833AF583E022502B
:1002980006E92582F8E622BBFE06E92582F8E22275
:0D02A800E58229F582E5833AF583E493228F
:1002B500BB010689828A83F0225002F722BBFE0128
:0202C500F32222
:1002C700F8BB010DE58229F582E5833AF583E8F06D
:1002D700225006E92582C8F622BBFE05E92582C819
:0202E700F22201
:1002E900BC000BBE0029EF8DF084FFADF022E4CCF9
:1002F900F875F008EF2FFFEE33FEEC33FCEE9DECC2
:10030900984005FCEE9DFE0FD5F0E9E4CEFD22ED07
:10031900F8F5F0EE8420D21CFEADF075F008EF2F51
:10032900FFED33FD4007985006D5F0F222C398FD42
:050339000FD5F0EA22DF
:0E033E00C3E49FFFE49EFEE49DFDE49CFC22D0
:0C034C00A42582F582E5F03583F58322BC
:10035800D083D082F8E4937012740193700DA3A334
:1003680093F8740193F5828883E473740293686048
:06037800EFA3A3A380DF48
:10037E00D083D082F8E4937012740193700DA3A30E
:10038E0093F8740193F5828883E473740293B5F045
:0D039E00067403936860E9A3A3A3A380D8AD
:101907008B348A358936E4F53CF53DE53B153BAE2E
:101917003A7002153A4E6033AB37AA38A93912022A
:101927006FFFAB34AA35A936053DE53DAC3C7002E7
:10193700053C14F5828C83EF1202C7EF60CD74016A
:101947002539F539E43538F53880C0AB34AA35A9DF
:02195700362236
:10200100E4FFFE12026F600C0FEF70010E09E97020
:05201100F20A80EF223D
:1003AB00EF4E6012EF60010EEDBB010B89828A8369
:1003BB00F0A3DFFCDEFA2289F05007F709DFFCA976
:0C03CB00F022BBFEFCF309DFFCA9F022CD
:10148B000213F0E493A3F8E493A34003F68001F274
:10149B0008DFF48029E493A3F85407240CC8C33362
:1014AB00C4540F4420C8834004F456800146F6DF31
:1014BB00E4800B0102040810204080901FECE47EB6
:1014CB00019360BCA3FF543F30E509541FFEE49326
:1014DB00A360010ECF54C025E060A840B8E493A3ED
:1014EB00FAE493A3F8E493A3C8C582C8CAC583CA18
:1014FB00F0A3C8C582C8CAC583CADFE9DEE780BED0
:0120000000DF
:00000001FF
