:1010B800120100020000004005163C8001000102F8
:1010C80000010A0600020000004001000902200099
:1010D800010100A0FA0904000002FF000000070552
:1010E8000202000200070586020002000902200031
:1010F800010100A0FA0904000002FF000000070532
:10110800010240000007058102400000120341006F
:1011180042004300440045004600470048002603BB
:1011280041004300430045005300200049002F00C0
:101138004F002000500072006F00640075006300CB
:101148007400730021035500530042002D00440031
:1011580049004F003400380044004F00320034008A
:071168000000000000000080
:101DE6005553422D44494F3438444F3234005553ED
:101DF600422D44494F3234444F3132005553422D1F
:0F1E0600444F3234005553422D4F54484552003B
:04002E0043B1402278
:0400460053B1BF22D1
:04004E0063B1402238
:01002A0022B3
:0721760053B1C043B12A225E
:10154800EF5407FE7401A806088002C333D8FCFED6
:10155800EF131313541FFFC394065022ED600DE4DC
:101568002FF582E43480F583E04EF022E42FF582F3
:10157800E43480F583E0FFEEF4FEEF5EF022BF0670
:101588000EED6005EE42808023EEF45280801DBF90
:10159800070EED6005EE42908012EEF45290800C3A
:0F15A800ED6005EE42A08004EEF452A012217611
:0115B7002211
:101A5800EF131313541FFDC39406500DE42DF582A4
:101A6800E43480F583E0FE8010BD0604AE80800972
:101A7800BD0704AE908002AEA0EF5407FF7401A822
:101A880007088002C333D8FC5206EE60047F018049
:031A9800027F00CA
:011A9B002228
:10184A00908000E012064B908001E09000011206A1
:10185A005D908002E090000212065D908003E090A5
:10186A00000312065D908004E090000412065D9069
:10187A008005E090000512065D900006E5801206DC
:10188A005D900007E59012065D900008E5A002064B
:01189A005DF0
:101CB3008F518D52E551C39406500FAF51E42FF568
:101CC30082E43480F583E552F022E551B4060585BC
:101CD3005280800DE551B4070585529080038552EB
:051CE300A01221762291
:0618EB008B358A368937B7
:1018F10090000612061EF58090000712061EF59054
:1019010090000812061EF5A0E4FFAB35AA36A937F0
:101911008F8275830012061EFE74672FF582E434F0
:1019210028F583EEF0E42FF582E43480F583EEF0C0
:071931000FBF06D60221766C
:10202B00E4FF74672FF582E43428F583E4F00FBFE7
:08203B0009F090286674FFF023
:01204300227A
:100FD500E4F580F590F5A075B2FF75B3FF75B4FF24
:100FE50075B0FF75B5BF902866E0F5B07B017A282E
:0B0FF50079671218EB75B67F022176B9
:10145700EF131313541FFEED131313541FFC5307FD
:101467000753050774002EF582E43428F583E0FB63
:101477007A0074017E00A807088005C333CE33CEF7
:10148700D8F9FFEE5AFEEF5B4E6003D38001C3929B
:1014970005300402B20530051A74002CF582E434D5
:1014A70028F583E0FF7401A805088002C333D8FC40
:1014B7004FF02274002CF582E43428F583E0FFAE68
:0F14C700057401A806088002C333D8FCF45FF057
:0114D60022F3
:09214B007B017A28790002184A90
:092154007B017A2879000218EBE6
:09215D007B017A2879700218EB6D
:1020E300E4FF74712FF582E43428F58374FFF00F55
:0320F300BF09EF33
:0120F60022C7
:1019CB007AE779407F40AB077D017F037E001218D9
:1019DB00A390E740E0FF9010C2F024C3600F1460A7
:1019EB0014240270187BFF7A1D79E680167BFF7A30
:1019FB001D79F4800E7BFF7A1E790280067BFF7ABD
:061A0B001E790B12174FBB
:011A110022B2
:0100320022AB
:030040000219CBD7
:01004A002293
:01005200228B
:01219B002221
:10198300D206120B27403F90E6B9E024EE70359063
:10199300E6BEE090E68BF090E6A0E020E1F990E669
:1019A300BAE05401C43333335480FF90E749E0F481
:1019B300543F4F902866F0F5B07B017AE7794012E7
:0819C30018EB8002D322C322BD
:10201000564D617920313520323031394031323AF4
:0B20200031363A3030000000000000B4
:1020B9000215202702080000010F01010C01010A85
:0420C900010112FF00
:1020440090280CE0FF700690280BE0600890280BA5
:09205400E0FD021FA112218C2203
:101EE4007E007F717D007B017A2879091207359085
:101EF4002809740AF0E4A3F012202B120FD5021F54
:011F04004597
:10000E007D0212189B902809E0B40A04A3E0600355
:0C001E00021EE47D7112189B120FD52207
:101F4500902809740AF0E4A3F07A287B097D717F53
:0F1F5500017E1F121CE87D717F007E1F02218913
:1016230012204490E6BEE0F536753802E536605781
:10163300C3944050058536378003753740E490E600
:101643008AF090E68BE537F090E6A0E020E1F9E43C
:10165300F535E535C39537502574402535F582E4D6
:1016630034E7F583E0FFAE380538EE7C007B0124D8
:1016730009F9EC3428FAEF12064B053580D4C3E59B
:0A168300369537F53680A5022044A5
:10116F0090E6B8E030E745E4F52CF52BE52BC3947A
:10117F000A50247E007B017466252BF9EE3428FA81
:10118F00120605FF7440252CF582E434E7F583EF52
:10119F00F0052B052C80D5E490E68AF090E6BEE0B2
:1011AF0090E68BF090E6A0E04480F02290E6BEE05F
:1011BF0090E68BF090E6A0E020E1F990E6BEE064C7
:1011CF000A6003C20622E4F52BF52CE52BC3940A23
:1011DF0050247440252CF582E434E7F583E0FFE5D5
:1011EF002B7C007B012466F9EC3428FAEF12064BB6
:1011FF00052B052C80D590E6BAE0B4CE08A3E0B459
:05120F00AC03121F45B5
:0112140022B7
:0F213C00D3E518950EE517950D400312211B22D0
:01219C002220
:101EC10090280EE0FE90280DE07C002400F50EEC39
:101ED1003EF50D450E7007C28CC2A9C20722D28CF5
:031EE100D2A92261
:01219D00221F
:101A9C0090E6BEE090E68BF090E6A0E020E1F9E461
:101AAC00FF74422FF582E434E7F583E0FEEF7C000F
:101ABC007B012470F9EC3428FAEE12064B0FBF0AA6
:101ACC00E090E740E090280DF090E741E090280E80
:041ADC00F0021EC135
:10211B0012215DE49028E8F0A3F0F517F518D2072B
:01212B002291
:101F0500C207E49028E8F0A3F0F517F518C28CC2D3
:101F1500A9538EF75389F143890112219D021EC1F0
:101B1F00E50945086019E50915097002150814C390
:101B2F0094FFE50864809480501E1200468019309F
:101B3F0006167508057509FF12002EC206E49028D7
:0D1B4F00E8F0A3F0F517F518300702D206F4
:011B5C002266
:100CA40090E6B8E020E703020D59E4F52C90280DF6
:100CB400E0FFAE2C052C74402EF582E434E7F58376
:100CC400EFF090280EE0FFAE2C052C74402EF58238
:100CD400E434E7F583EFF0E4F52BE52BC3940A50F5
:100CE400247E007B017470252BF9EE3428FA120659
:100CF40005FF7440252CF582E434E7F583EFF00515
:100D04002B052C80D5AE2C052C74402EF582E434B2
:100D1400E7F583E518F0E517FFAE2C052C74402E9B
:100D2400F582E434E7F583EFF0A207E433FFAE2C59
:100D3400052C74402EF582E434E7F583EFF0C20706
:100D4400E490E68AF090E6BEE090E68BF090E6A0B0
:100D5400E04480F02290E6BEE090E68BF090E6A0BE
:100D6400E020E1F9C20790E6BEE0640C6003C2062D
:100D740022E4F52CAF2C052C74402FF582E434E7E3
:100D8400F583E090280DF0AF2C052C74402FF582EC
:100D9400E434E7F583E090280EF0E4F52BE52BC36B
:100DA400940A50247440252CF582E434E7F583E05A
:100DB400FFE52B7C007B012470F9EC3428FAEF1258
:100DC400064B052B052C80D5121EC190E6BAE0B463
:0A0DD400CE08A3E0B4AC03121F45E3
:010DDE0022F2
:04217D00750F0122B7
:10168D0012204490E6BEE0F536E4F538E5366057B5
:10169D00C3944050058536378003753740E490E696
:1016AD008AF090E68BE537F090E6A0E020E1F9E4D2
:1016BD00F535E535C39537502574402535F582E46C
:1016CD0034E7F583E0FFAE380538EE7C007B01246E
:1016DD0024F9EC3428FAEF12064B053580D4C3E516
:0716ED00369537F53680A5A4
:0116F40022D3
:1017A600150FE50F704B902824E0F50F12214BE43E
:1017B600F54E902865E0FFE54EC39F5031E54E2576
:1017C600E02425F582E43428F583E0F54FE54E253F
:1017D600E02426F582E43428F583E0F550547FFDB5
:1017E600E550339204AF4F121457054E80C41221B0
:0117F600549E
:0117F70022CF
:101F250090E6BEE090E68BF090E6A0E020E1F99027
:101F3500E740E090280FF090E741E0902810F0226C
:1013CC00150CE50C600302145690280FE0F50C7B0D
:1013DC00017A2879EA12184AE4FFFE74EA2EF582A3
:1013EC00E43428F583E0FD747A2EF582E43428F594
:1013FC0083E06DF97D01E4FCECC394085046E95D93
:10140C00602974832FF582E43428F583E014F0749A
:10141C00832FF582E43428F583E07020747A2EF55E
:10142C0082E43428F583E06DF08000902810E0FB16
:10143C0074832FF582E43428F583EBF00CED25E072
:0A144C00FD0F80B40EEE64097091EC
:011456002273
:10205D0090E6BEE090E68BF090E6A0E020E1F990EE
:08206D00E740E0902811F02289
:101BD600E4F513FF74CB2FF582E43428F583E0FE99
:101BE60074DF2FF582E43428F583EEF074CB2FF5FD
:101BF60082E43428F583E0FE74D62FF582E4342897
:081C0600F583EEF00FBF09CCDD
:011C0E0022B3
:1015B800150AE50A7064902811E0F50A7B017A287B
:1015C80079CB12184AE4FF74DF2FF582E43428F54A
:1015D80083C083C082E0FE74CB2FF582E43428F503
:1015E80083E0FDEE5DD082D083F074D62FF582E4DF
:1015F8003428F583C083C082E0FE74CB2FF582E4E3
:101608003428F583E0FDEE4DD082D083F00FBF097A
:0A161800B6E513C394FF500205135A
:0116220022A5
:042181007512FF22B2
:1014D700E4F51F0512F51F902823E0FFE51FC39FC2
:1014E7005054E51F25E02414F582E43428F583E001
:1014F700C39512501EE51F25E02413F582E4342816
:10150700F583E0FE547FFFEE30E7047D0080207D09
:1015170001801CE51F25E02413F582E43428F583B8
:10152700E0FE547FFFEE30E7047D0180027D00126C
:101537001548051F80A1902812E0B51203E4F512A3
:011547002281
:101D510090E6BEE090E68BF090E6A0E020E1F9E4A9
:101D6100FF74402FF582E434E7F583E0FEEF7C0059
:101D71007B012412F9EC3428FAEE12064B0FBF1244
:011D8100E081
:011D8200223E
:041215008E358F364D
:10121900E4F537E53664024535700C90E741F0E5B1
:1012290036153670021535E5366401453570169068
:10123900E7407471F090E6BEE090E68BF0E5361574
:101249003670021535E5364535605D90E6A0E0203B
:10125900E1F9C3E5369440E53594005004AD368094
:10126900027D40E4FFEFC39D5025AE370537EE758B
:1012790083007B012409F9E5833428FA120605FE67
:1012890074402FF582E434E7F583EEF00F80D6E45D
:1012990090E68AF090E68BEDF0FFC3E5369FF536D0
:0812A900E5359400F535809D48
:0112B100221A
:1000560090E6B8E030E76390E6BFE0FE90E6BEE0EB
:10006600FDEDFF4E7002804D90E6BDE0FD90E6BCD2
:10007600E04D700302121590E6BDE060030203EB4B
:1000860090E6BCE01460030203EB7538FF75392077
:10009600753A10753B00753C1E7B017AE779411273
:1000A60017F87B017AE779401220CEEF0490E740FB
:1000B600F090E6BEE090E68BF02290E6BFE0FF907F
:1000C600E6BEE04F707790E6BDE0704D90E6BCE08E
:1000D60024EF6023249F603024FD603324F36034D2
:1000E6002472703590E6BAE064CE702DA3E064AC5D
:1000F6007027121F45802290E6BAE0B4CE1BA3E01B
:10010600B4AC16121EE48011E4902823F0800A7520
:1001160012FF8005E4902865F090E6BDE0648060FB
:10012600030203EB90E6BCE0640160030203EB907C
:10013600E6BAE090280BF090E6BB02020590E6BF17
:10014600E060030203EB90E6BDE0FE90E6BCE07CD7
:10015600002400FFEC3EFEEF8EF012070801AB0014
:100166002001AB002101AB002201AB002301E0001E
:100176002F020D0041021B005102290053024900C3
:100186006102570063027700710285007302A500C1
:100196007402FB0081030900830329008403808025
:1001A60001000003EB90E6BEE0B46F031216239045
:1001B600E6BCE030E003120FD590E6BCE020E10398
:1001C6000203EB90E6BAE064CE60030203EBA3E021
:1001D60064AC60030203EB021F4590E6BEE06402D6
:1001E60060030203EBE090E68BF090E6A0E020E1EE
:1001F600F912204490E740E090280BF090E741E0A8
:1002060090280CF00203E890E6BEE0640C6003025E
:1002160003EB021A9C90E6BEE0640260030203EB65
:10022600021F2590E6BEE0640160030203EBE09046
:10023600E68BF090E6A0E020E1F990E740E0902818
:100246000FF02290E6BEE0640160030203EB022099
:100256005D90E6BEE0640160030203EBE090E68B8E
:10026600F090E6A0E020E1F990E740E0902811F058
:100276002290E6BEE0641260030203EB021D519079
:10028600E6BEE0640160030203EBE090E68BF090CB
:10029600E6A0E020E1F990E740E0902812F02290F5
:1002A600E6BEE0640260030203EB902823E0C394F9
:1002B6000840030203EB90E6BEE090E68BF090E682
:1002C600A0E020E1F990E740E0FF902823E0FE253A
:1002D600E02411F582E43428F583EFF090E741E05D
:1002E600FFEE25E02412F582E43428F583EFF09042
:1002F600282302037C90E6BEE0644260030203EB1F
:1003060002168D90E6BEE0640160030203EBE09006
:10031600E68BF090E6A0E020E1F990E740E0902837
:1003260024F02290E6BEE0640260030203EB90280C
:1003360065E0C3942040030203EB90E6BEE090E63E
:100346008BF090E6A0E020E1F990E740E0FF9028EE
:1003560065E0FE25E02423F582E43428F583EFF0FA
:1003660090E741E0FFEE25E02424F582E43428F509
:1003760083EFF0902865E004F02290E6BEE090E678
:100386008BF090E6A0E020E1F990E6BEE064047010
:010396005412
:1003970090E740E0FCA3E0FDA3E0FEA3E0F52E8E8E
:1003A7002D8D2C8C2BFBAA2DA92CA82B7F007E1B17
:1003B7007D377C4B1204E78F328E318D308C2FAB1B
:1003C70032AA31A930A82FE4FFFE7D807C471203B3
:1003D700EF1205848E338F34EF90280BF0E533A3AB
:0403E700F0122044AC
:0103EB0022EF
:101FF50090E6047480F00000007402F000000074A4
:0B20050006F0000000E4F000000022E4
:01219E00221E
:101AE000E4F5267AE779407F40AB077D087FF87EF2
:101AF0001D1218A3E4F52674402526F582E434E788
:101B0000F583E0FDE52675F002A42416F97411357D
:0E1B1000F08982F583EDF00526E526B408D9AC
:011B1E0022A4
:101B9A0090E678E05410FFC4540F4450F51013E453
:101BAA0033F514438E2012003212216E121AE012FB
:101BBA000040D20012000E121F0512217D121BD600
:0C1BCA0012218112204412004602004A41
:101F8300120052121B1F12213CE5B190E68020E79C
:0E1F930006E04408F08004E054F7F002219BC1
:06174F008B268A27892881
:10175500E4F5291220CE8F2AE52A25E024029011EE
:101765004CF0E4F529AF2AEF3395E0FEC3E5299F58
:10177500EE6480F87480985027AB26AA27A928859F
:10178500298275830012061EFDE52975F002A42441
:101795004EF9741135F08982F583EDF0052980C580
:0117A5002221
:061938008E3B8F3CAC0564
:10193E00E4FDE5146012E53BFF7E000DEE2516F585
:10194E0082E43515F583EFF0AE050DE5162EF58222
:10195E00E43515F583E53CF0AF050DE5162FF58260
:10196E00E43515F583ECF0AB16AA15AF10121FD99E
:05197E00AF10021C7D0A
:0321890002193800
:0A1CE8008E358F368D378A388B3920
:101CF200E4F53AE53AC3953750200536E536AE3578
:101D02007002053514FFE539253AF582E43538F5D8
:0A1D120083E0FD122189053A80D913
:011D1C0022A4
:08189B007A287B097F017E1F02
:0A18A3008E338F348D358A368B3773
:1018AD00E4FDF538E5146012E533FF7E000DEE25FD
:1018BD0016F582E43515F583EFF0AE050DE5162E20
:1018CD00F582E43515F583E534F0AB16AA15AF10A6
:0E18DD00121FD9AB37AA36AD35AF10021FBDB2
:1009860090E6BAE0752B00F52CA3E0FEEE422B9024
:10099600E6BEE0752D00F52EA3E0FEEE422D90E6B4
:1009A600B8E064C06003020A93E52E452D70030289
:1009B6000B2690E6A0E020E1F9C3E52E9440E52D54
:1009C60094005008852D2F852E308006752F0075D2
:1009D600304090E6B9E064A3705890E6BCE0B401FC
:1009E6001BA3E0701790E6BBE030E71090E7407479
:1009F60003F0A37401F0A37403F0806CE4F531F501
:100A060032C3E5329530E531952F505CE52C253221
:100A1600F582E52B3531F583E0FF74402532F5820A
:100A260074E73531F583EFF00532E53270D30531E1
:100A360080CFE4F531F532C3E5329530E531952FB7
:100A4600501974402532F58274E73531F58374CD3B
:100A5600F00532E53270E0053180DCAD307AE77BB7
:100A660040AF2CAE2B1218A3E490E68AF090E68BEA
:100A7600E530F0252CF52CE52F352BF52BC3E52E8F
:100A86009530F52EE52D952FF52D0209AF90E6B898
:100A9600E064406003020B26E52E452D7003020B31
:100AA60026E490E68AF090E68BF090E6A0E020E15E
:100AB600F990E68BE0752F00F53090E6B9E0B4A327
:100AC60036E4F531F532C3E5329530E531952F50F0
:100AD6003374402532F58274E73531F583E0FFE55E
:100AE6002C2532F582E52B3531F583EFF00532E51D
:100AF6003270D3053180CFAD307AE77B40AF2CAE74
:100B06002B121CE8E530252CF52CE52F352BF52B83
:100B1600C3E52E9530F52EE52D952FF52D020A9E6F
:010B260022AC
:02218F00C32269
:02219100D32257
:02219300D32255
:0800030090E6BAE0F50BD322F0
:1020F70090E740E50BF0E490E68AF090E68B04F079
:02210700D322E1
:0821660090E6BAE0F511D32266
:1021090090E740E511F0E490E68AF090E68B04F060
:02211900D322CF
:02219500D32253
:02219700D32251
:02219900D3224F
:100EE700E4FF90E6B8E020E703020FD40F0F744049
:100EF7002401F582E434E7F583740AF00F74402483
:100F070002F582E434E7F583E4F00F74402403F537
:100F170082E434E7F583E4F00F74402404F582E4B7
:100F270034E7F5837401F00F74402405F582E43447
:100F3700E7F5837409F00F74402406F582E434E77B
:100F4700F583E4F00F74402407F582E434E7F58372
:100F5700E4F00F74402408F582E434E7F58374FF66
:100F6700F00F74402409F582E434E7F58374FFF049
:100F77000F7440240AF582E434E7F5837408F00F10
:100F87007440240BF582E434E7F5837420F00F7482
:100F970040240CF582E434E7F583742FF00F744096
:100FA700240DF582E434E7F583742FF00F744024A1
:100FB7000EF582E434E7F5837401F090E740EFF033
:0D0FC700E490E68AF090E6BEE090E68BF044
:010FD40022FA
:100B270090E6B9E01206E20B6E100B6E110BB214D1
:100B37000C66150B5C280B562E0B503C0B683F0BB5
:100B470062A20B62A300000CA0120056020CA212B4
:100B57000CA4020CA212116F020CA2120986020C3D
:100B6700A2120EE7020CA290E6B8E030E70C7B0178
:100B77007AE7794012184A020C8A90E6BEE07010B4
:100B870090E6BCE0FF90E6BAE0FD121548020CA221
:100B970090E6BEE090E68BF090E6A0E020E1F97BDE
:100BA700017AE779401218EB020CA2C2AF90E76412
:100BB700E513F0E4F5137B017AE7795B12184AE451
:100BC700F52774CB2527F582E43428F583E0FF74F5
:100BD700402527F582E434E7F583EFF00527E5277D
:100BE700B409DF90E6BCE06027E4F52774DF25272A
:100BF700F582E43428F583E0F4FF74492527F5826C
:100C0700E434E7F583EFF00527E527B409DE802410
:100C1700E4F52774DF2527F582E43428F583E0FF20
:100C270074492527F582E434E7F583EFF00527E5D6
:100C370027B409DFE4F52774D62527F582E434289D
:100C4700F583E0FF74522527F582E434E7F583EF57
:100C5700F00527E527B409DF121BD6D2AF8024E4BD
:100C6700F527747A2527F582E43428F583E0FF74A5
:100C7700402527F582E434E7F583EFF00527E527DC
:100C8700B409DFE490E68AF090E6BEE090E68BF0E8
:0C0C970090E6A0E04480F08002C322D36D
:010CA300222E
:101F6400C0E0C083C08290E6B5E04401F0D20153E2
:0F1F740091EF90E65D7401F0D082D083D0E0321F
:10208D00C0E0C083C0825391EF90E65D7404F0D040
:06209D0082D083D0E03286
:1020A300C0E0C083C0825391EF90E65D7402F0D02C
:0620B30082D083D0E03270
:101C0F00C0E0C083C08290E680E030E70E8540449C
:101C1F00854145854846854947800C854844854917
:101C2F00458540468541475391EF90E65D7410F02E
:071C3F00D082D083D0E03217
:10207500C0E0C083C082D2035391EF90E65D74083F
:08208500F0D082D083D0E032DC
:101C4600C0E0C083C08290E680E030E70E85404465
:101C5600854145854846854947800C8548448549E0
:101C6600458540468541475391EF90E65D7420F0E7
:071C7600D082D083D0E032E0
:01219F00320D
:0121A000320C
:0121A100320B
:0121A200320A
:0121A3003209
:0121A4003208
:0121A5003207
:0121A6003206
:0121A7003205
:0121A8003204
:0121A9003203
:0121AA003202
:0121AB003201
:0121AC003200
:0121AD0032FF
:0121AE0032FE
:0121AF0032FD
:0121B00032FC
:0121B10032FB
:0121B20032FA
:0121B30032F9
:0121B40032F8
:0121B50032F7
:0121B60032F6
:0121B70032F5
:0121B80032F4
:0121B90032F3
:0121BA0032F2
:0121BB0032F1
:0121BC0032F0
:0121BD0032EF
:0121BE0032EE
:0121BF0032ED
:0121C00032EC
:0121C10032EB
:0121C20032EA
:0A00360000010202030304040505A3
:03000B000216F5E5
:1016F500C0E0C0F0C083C082C0D075D000C000C0BB
:1017050004C005C006C007053FE53FB40627051818
:10171500E51870020517AE17FF7C007D0A12067FDB
:10172500ED4C700E9028E9E004F070069028E8E092
:1017350004F0753F00D007D006D005D004D000D006
:0A174500D0D082D083D0F0D0E03283
:1012B200E4F525F524F523F522C203C200C202C2D9
:1012C20001121B9A7542107543B8754A10754BCAC4
:1012D2007540107541D47548107549F4754C1175F7
:1012E2004D14D2E843D82090E668E04409F090E635
:1012F2005CE0443DF0D2AFD208121E1590E680E0C9
:1013020054F7F0C203300105120761C2013003290C
:1013120012218F5024C203121E9C20001690E682D6
:10132200E030E704E020E1EF90E682E030E604E01E
:0E13320020E0E4121E44122191121F8380C796
:1007610090E6B9E0700302081214700302088F24A6
:10077100FE700302091224FB700302080C147003BB
:10078100020806146073146076240560030209727E
:10079100122193400302097E90E6BBE024FE602211
:1007A10014603324FD601114602224067048E54270
:1007B10090E6B3F0E5438037E54A90E6B3F0E54BC8
:1007C100802DE54490E6B3F0E5458023E54690E6CB
:1007D100B3F0E547801990E6BAE0FF121E70AA0651
:1007E100A9077B01EA494B600DEE90E6B3F0EF906B
:1007F100E6B4F002097E02097712210902097E128C
:10080100216602097E12000302097E1220F7020905
:100811007E122195400302097E90E6B8E0247F60B4
:100821001514601924027063A200E43325E0FFA2CD
:1008310002E4334F8041E490E740F0803F90E6BC12
:10084100E0547EFF7E00E0D394807C0040047D0173
:1008510080027D00EC4EFEED4F2436F58274003EA1
:10086100F583E493FF3395E0FEEF24A1FFEE34E638
:100871008F82F583E0540190E740F0E4A3F090E625
:100881008AF090E68B7402F002097E020977122148
:1008910097400302097E90E6B8E024FE6016240228
:1008A100600302097E90E6BAE0B40105C2000209C4
:1008B1007E02097790E6BAE0705590E6BCE0547E7E
:1008C100FF7E00E0D394807C0040047D0180027DA6
:1008D10000EC4EFEED4F2436F58274003EF583E4C4
:1008E10093FF3395E0FEEF24A1FFEE34E68F82F50E
:1008F10083E054FEF090E6BCE05480131313541FC0
:10090100FFE0540F2F90E683F0E04420F0806E80EA
:1009110065122199506790E6B8E024FE601A24021E
:10092100705B90E6BAE0B40104D200805090E6BA60
:10093100E0B402028047803E90E6BCE0547EFF7E38
:1009410000E0D394807C0040047D0180027D00ECB6
:100951004EFEED4F2436F58274003EF583E493FF9D
:100961003395E0FEEF24A1FFEE34E68F82F583801C
:1009710008121983500790E6A0E04401F090E6A028
:04098100E04480F0DE
:01098500224F
:0300330002218522
:0421850053D8EF320A
:101FA100E4F5C8E58E54074438F58E8FCB8FCDAF5D
:0C1FB100058FCA8FCCD2BDD2ADD2CA229F
:101DB500AB07AA06A905A8047F007E1B7D377C4BCF
:101DC5001204E7AB07AA06A905A804E4FFFE7D8077
:101DD5007C471203EF120584AD07AC06AF04021F62
:011DE500A15C
:10212C00AD07AC06C3E49DFBE49CFFEBFD021FA1D5
:03218C00C2CA22A2
:03002B00021B5D58
:101B5D00C0E0C0F0C083C082C0D075D000C000C04E
:101B6D0001C002C003C004C005C006C00712002A90
:101B7D00C2CFD007D006D005D004D003D002D001FB
:0D1B8D00D000D0D0D082D083D0F0D0E03294
:03004300021000A8
:0300530002100098
:10100000021F64000220A30002208D000220750050
:10101000021C0F00021C460002219F000221A000BA
:101020000221A1000221A2000221A3000221A400AA
:101030000221A5000221A6000221A7000221A8008A
:101040000221A9000221A0000221AA000221AB0076
:101050000221AC000221AD000221AE000221AF004E
:101060000221B0000221A0000221A0000221A00064
:101070000221B1000221B2000221B3000221B4001A
:101080000221B5000221B6000221B7000221B800FA
:101090000221B9000221BA000221BB000221BC00DA
:1010A0000221BD000221BE000221BF000221C000BA
:0810B0000221C1000221C2006F
:101E440090E682E030E004E020E60B90E682E030A9
:101E5400E119E030E71590E680E04401F07F147E5C
:0C1E640000121A1290E680E054FEF022FA
:101E9C0090E682E044C0F090E681F04387010000B8
:041EAC000000002210
:101E150030080990E680E0440AF0800790E680E00B
:101E25004408F07FDC7E05121A1290E65D74FFF01F
:0F1E350090E65FF05391EF90E680E054F7F022D3
:08216E00E4F51ED2E9D2AF2214
:101C7D0090E678E020E6F9C2E990E678E04480F05D
:101C8D00EF25E090E679F090E678E030E0F990E627
:101C9D0078E04440F090E678E020E6F990E678E0D0
:061CAD0030E1D6D2E9226D
:101D8300A90790E678E020E6F9E51E702390E6784F
:101D9300E04480F0E925E090E679F08D19AF03A9DE
:101DA30007751A018A1B891CE4F51D751E01D322D0
:021DB300C32249
:101D1D00A90790E678E020E6F9E51E702590E678B3
:101D2D00E04480F0E925E0440190E679F08D19AFAB
:101D3D0003A907751A018A1B891CE4F51D751E037D
:041D4D00D322C322B8
:03004B00020DDFC4
:100DDF00C0E0C083C082C085C084C086758600C055
:100DEF00D075D000C000C001C002C003C006C0074C
:100DFF0090E678E030E206751E06020EC990E6789E
:100E0F00E020E10CE51E64026006751E07020EC9A4
:100E1F00E51E24FE605F14603624FE7003020EBAD6
:100E2F0024FC7003020EC624086003020EC9AB1A1D
:100E3F00AA1BA91CAF1D051D8F8275830012061EEC
:100E4F0090E679F0E51D65197070751E05806B9041
:100E5F00E679E0AB1AAA1BA91CAE1D8E8275830022
:100E6F0012065D751E02E5196401704E90E678E07A
:100E7F004420F08045E51924FEB51D0790E678E083
:100E8F004420F0E51914B51D0A90E678E04440F0CF
:100E9F00751E0090E679E0AB1AAA1BA91CAE1D8E39
:100EAF008275830012065D051D800F90E678E04481
:100EBF0040F0751E008003751E005391DFD007D0E0
:100ECF0006D003D002D001D000D0D0D086D084D0AD
:080EDF0085D082D083D0E032FF
:021E7000A907C0
:101E7200AE4CAF4D8F828E83A3E064037017AD0129
:101E820019ED7001228F828E83E07C002FFDEC3EE3
:091E9200FEAF0580DF7E007F0039
:011E9B002224
:101FBD00121D1DE51E24FA600E146006240770F331
:0C1FCD00D322E4F51ED322E4F51ED3223B
:101FD900121D83E51E24FA600E146006240770F3AF
:0C1FE900D322E4F51ED322E4F51ED3221F
:101A12008E268F2790E600E054187012E5272401E5
:101A2200FFE43526C313F526EF13F527801590E65C
:101A320000E05418FFBF100BE52725E0F527E52647
:101A420033F526E5271527AE26700215264E6005CA
:061A5200121EB080EE221E
:101EB0007400F58690FDA57C05A3E582458370F945
:011EC00022FF
:1003EC000205F0E86480F8E933E83360110460F04A
:1003FC00ED33EC337009E8FCE9FDEAFEEBFF220477
:10040C0060DED3EB9FEA9EE99DE8C2E78CF0C2F771
:10041C0095F0400CE8CCF8E9CDF9EACEFAEBCFFB3D
:10042C001205BB85D0F05804700320D5B3E80470D6
:10043C00075002B2D50205FA92D5EC0460F7E4CC71
:10044C00C0E0C398F8603B94186008400DD0E0FB06
:10045C000205D2E4FBFAC9FC8028E830E406E4C9C2
:10046C00FBE4CAFCE830E305E4C9CACBFCE854075A
:10047C006010F8C3E913F9EA13FAEB13FBEC13FC65
:10048C00D8F130F52FC3E49CFCEF9BFFEE9AFEED08
:10049C0099FDD0E0FBEF4E4D4C701222DB030205B0
:1004AC00F7EC2CFCEF33FFEE33FEED33FDED30E7D4
:1004BC00EB0205D2EF2BFFEE3AFEED39FDD0E0FB5F
:1004CC0050130BBB00030205FAED13FDEE13FEEF08
:0804DC0013FFEC13FC0205D232
:1004E4000205FAEC5D046005E8590470030205F0A6
:1004F4001205BB580460F6EC4860F2EC7004FDFE93
:10050400FF22C860DB2481C85009C39860025006EA
:100514000205F79850CAF582E9294B4A7005AB8267
:100524000205E675F0007C1A7880C3EF9BEE9AED25
:1005340099400DC3EF9BFFEE9AFEED99FDE842F062
:10054400DC23ACF0D0E0FFD0E0FED0E0FDAB8220B5
:10055400E7101BEB60BAEC2CFCEF33FFEE33FEED3F
:1005640033FD0205D2E803F830E705C0F075F0006A
:10057400EF2FFFEE33FEED33FD40B830E7C280AA23
:10058400EDD2E7CD33EC3392D524814006E4FFFE6F
:10059400FDFC22FCE4CFCECDCC24E0501174FF80CE
:1005A400EDC3CC13CCCD13CDCE13CECF13CF04706B
:0705B400F030D5DE0206D491
:1005BB00E9D2E7C933E833F892D5EDD2E7CD33EC86
:0705CB0033FC5002B2D522FF
:1005D200EC30E7100FBF000C0EBE00080DBD00048A
:1005E2000BEB6014A2D5EB13FCED92E7FD2274FF36
:1005F200FCFDFEFF22E480F8A2D574FF13FC7D808F
:03060200E480EFA2
:03000000021340A8
:0C134000787FE4F6D8FD75815202138717
:10060500BB010689828A83E0225002E722BBFE02F3
:09061500E32289828A83E4932226
:10061E00BB010CE58229F582E5833AF583E0225091
:10062E0006E92582F8E622BBFE06E92582F8E222DB
:0D063E00E58229F582E5833AF583E49322F5
:10064B00BB010689828A83F0225002F722BBFE018E
:02065B00F32288
:10065D00F8BB010DE58229F582E5833AF583E8F0D3
:10066D00225006E92582C8F622BBFE05E92582C87F
:02067D00F22267
:10067F00BC000BBE0029EF8DF084FFADF022E4CC5F
:10068F00F875F008EF2FFFEE33FEEC33FCEE9DEC28
:10069F00984005FCEE9DFE0FD5F0E9E4CEFD22ED6E
:1006AF00F8F5F0EE8420D21CFEADF075F008EF2FB8
:1006BF00FFED33FD4007985006D5F0F222C398FDA9
:0506CF000FD5F0EA2246
:0E06D400C3E49FFFE49EFEE49DFDE49CFC2237
:1006E200D083D082F8E4937012740193700DA3A3A7
:1006F20093F8740193F5828883E4737402936860BB
:06070200EFA3A3A380DFBA
:10070800D083D082F8E4937012740193700DA3A380
:1007180093F8740193F5828883E473740293B5F0B7
:0D072800067403936860E9A3A3A3A380D81F
:1017F8008B358A368937E4F53DF53EE53C153CAE38
:101808003B7002153B4E6033AB38AA39A93A120631
:1018180005FFAB35AA36A937053EE53EAC3D70025B
:10182800053D14F5828C83EF12065DEF60CD7401DF
:10183800253AF53AE43539F53980C0AB35AA36A9E9
:02184800372245
:1020CE00E4FFFE120605600C0FEF70010E09E970B9
:0520DE00F20A80EF2270
:10073500EF4E6012EF60010EEDBB010B89828A83DB
:10074500F0A3DFFCDEFA2289F05007F709DFFCA9E8
:0C075500F022BBFEFCF309DFFCA9F0223F
:10134C000212B2E493A3F8E493A34003F68001F2F3
:10135C0008DFF48029E493A3F85407240CC8C333A2
:10136C00C4540F4420C8834004F456800146F6DF71
:10137C00E4800B01020408102040809020B9E47E28
:10138C00019360BCA3FF543F30E509541FFEE49366
:10139C00A360010ECF54C025E060A840B8E493A32D
:1013AC00FAE493A3F8E493A3C8C582C8CAC583CA58
:1013BC00F0A3C8C582C8CAC583CADFE9DEE780BE10
:0120CD000012
:00000001FF
