:101892005553422D414F31362D3136410055534279
:1018A2002D414F31362D313645005553422D414F92
:1018B20031362D313241005553422D414F31362DB3
:1018C200313245005553422D414F31362D384100BA
:1018D2005553422D414F31362D3845005553422D37
:1018E200414F31362D3441005553422D414F31364F
:1018F2002D3445005553422D414F31322D31364161
:10190200005553422D414F31322D3136450055534A
:10191200422D414F31322D313241005553422D413A
:101922004F31322D313245005553422D414F313224
:101932002D3841005553422D414F31322D3845004B
:101942005553422D414F31322D3441005553422DD2
:10195200414F31322D3445005553422D414F2D4FC9
:0519620054484552004D
:102573004132038041320200413A090842320404E5
:1025830000413200004132010002653A060268321E
:102593000602633206423A060000C111C113413AF2
:0C25A3000800016A00C112C11001622092
:09318500D2A79032037480F022FD
:0831A900C2A7E4903203F022FA
:0D003600A2A7B392A7903203E06480F022ED
:1025C400EF5407FE7401A806088002C333D8FCFE4A
:1025D400EF131313541FFFED6016EF14600A047019
:1025E4002D904001E04EF022904002E04EF0222275
:1025F400EF14600F047017904001E0FFEEF4FDEF5C
:0E2604005DF022904002E0FFEEF4FEEF5EF08B
:0126120022A5
:102B7200EF54F824F8600B2408700C904001E0FE3A
:102B82008005904002E0FEEF5407FF7401A8070899
:102B92008002C333D8FC5206EE60047F0180027FBC
:012BA2000032
:012BA300220F
:10310000904001E01209A0904002E09000011209F5
:02311000B222E9
:10301C0012095A903A68F0904001F09000011209A0
:0A302C0073903A69F0904002F02220
:0F3144009040077401F0122E28904007E4F0220B
:102EA200C2A5AFB1E5B130E603D38001C3921CD213
:0F2EB200A5EA494B6004EF1209A0A21CE433FF0C
:012EC10022EE
:10227400753FFFE4F5B6904004F075B4FFFB7A00B7
:102284007940122EA2AE077B007A007940122EA26A
:10229400EF6E6036120036E56A60047F2080027FAC
:1022A40028E5405F700CFB7A007940122EA2AE073D
:1022B40080D57B007A007940122EA2AE07122EA29E
:1022C400EF6E6006123144E4F53F75B6FF904004AA
:0722D400E4F075B4FFAF3F19
:0122DB0022E0
:1022DC0075B6FF904004E4F075B4FF7580557590A9
:1022EC0005C2A675B1AAC2A4D2A47580AA75900A1B
:1022FC00D2A675B155C2A4D2A4758055759005C2ED
:10230C00A675B180C2A4D2A4758055759005C2A6DD
:10231C0075B1AAC2A4D2A47580AA75900AD2A6756A
:10232C00B155C2A4D2A4758055759005C2A675B1DD
:06233C00A0C2A4D2A422FD
:1029860075B6FF904004E4F075B4FF7580557590F8
:1029960005C2A675B1AAC2A4D2A47580AA75900A6A
:1029A600D2A675B155C2A4D2A4758055759005C23C
:0929B600A675B120C2A4D2A4222E
:0C316F00E56A6004122986221222DC228C
:1020B4005307077E00758055759005C2A675B1AAB1
:1020C400C2A4D2A47580AA75900AD2A675B155C2CD
:1020D400A4D2A4758055759005C2A675B180C2A41A
:1020E400D2A4758055759005C2A675B1AAC2A4D2B2
:1020F400A47580AA75900AD2A675B155C2A4D2A4BB
:10210400E4F580EFC4F8540FC868FFEEC454F048F7
:102114008F90903203E04430F5A075B130C2A4D260
:05212400A41222742248
:021B01008F3A19
:101B0300E4F53CE53AC394204003753A2075B6FFEB
:101B1300904004E4F075B4FFE53A701BE4F53BE54F
:101B23003BC39408500EAF3B7E001220B4EF423CFF
:101B3300053B80EBAF3C22758055759005C2A675B9
:101B4300B1AAC2A4D2A47580AA75900AD2A675B10F
:101B530055C2A4D2A4758055759005C2A675B180EF
:101B6300C2A4D2A4758055759005C2A675B1AAC248
:101B7300A4D2A47580AA75900AD2A675B155C2A441
:101B8300D2A4E4F580E53A30E0047F8080027F0050
:101B93008F90E53AC313FF903203E04F4430F5A032
:0A1BA30075B130C2A4D2A41222745E
:011BAD002215
:102DC800E4F52D752DFFF562E562C394205011AF2F
:102DD80062121B01EF700585622D8004056280E890
:052DE800123144AF2D83
:012DED0022C3
:1023420075B6FF904004E4F075B4FF12316F8F311F
:10235200E4F530E4F52F852F80853090903203E04C
:1023620045314430F5A0C2A6852FB1C2A4D2A41231
:102372002274852F80853090903203E045314430BD
:10238200F5A0D2A68530B1C2A4D2A4122274052F20
:10239200E52F70C21200360530E53070B61231A951
:0523A2001231447F0030
:0123A7002213
:1021290075B6FF904004E4F075B4FF12316F8F313A
:10213900E4F530E4F52F852F80853090903203E067
:1021490045314430F5A0C2A675B1A0C2A4D2A48578
:102159002FB1C2A4D2A4122274852F808530909009
:102169003203E045314430F5A0D2A675B1A0C2A42E
:10217900D2A48530B1C2A4D2A4122274052FE52FAE
:1021890070B41200360530E53070A81231A9123149
:03219900447F0080
:01219C002220
:103124008F2EE56A600412212922AF2E1223422237
:10309800E4F52DE52DC394105009AF2D1231240508
:0530A8002D80F07F0007
:0130AD002200
:101A3A008F3A8D3B8B3C75B6FF904004E4F075B449
:101A4A00FF758055759005C2A675B1AAC2A4D2A425
:101A5A001222747580AA75900AD2A675B155C2A4CD
:101A6A00D2A4122274758055759005C2A675B1A0CC
:101A7A00C2A4D2A4122274853C80853B90E53A54D4
:101A8A000FFF903203E04F4430F5A0853EB1C2A467
:101A9A00D2A4122274758055759005C2A675B1AA92
:101AAA00C2A4D2A41222747580AA75900AD2A6750D
:101ABA00B155C2A4D2A4122274758055759005C27C
:101ACA00A675B1A0C2A4D2A4122274853C80853B1B
:101ADA0090E53A540FFF903203E04F4430F5A08569
:101AEA003DB1D2A6C2A4D2A4122274E4F5B69040A3
:071AFA000404F075B4BF22E3
:10285600E4F5B6904004F075B4FF8B808D90EF548C
:102866000FFF903203E04F4430F5A0C2A5AFB1ADE3
:10287600077C00D2A5D2A6C2A5AFB1EFFEE4EEFC5E
:10288600D2A5E4F5B690400404F075B4BFAE04AF2B
:01289600053C
:01289700221E
:102DA100E4F5B690400404F075B4BF8D808B90EFCC
:102DB100540FFFE5A054F04FF5A0C2B1D2B0C2A5A7
:072DC100C2B2D2B2D2A5227A
:10001000E4F5B690400404F075B4BF53A0F0D2B13B
:0B002000D2B0C2A5C2B2D2B2D2A5225B
:04002E00122DA122CC
:102E8000903200E0F580A3E0F590EF540FFFE5A04D
:102E900054F04FF5A0C2B1C2B0C2A5C2B2D2B2D2F4
:022EA000A52269
:10303600EF5401FF25E0FF904000E054FD44044FAB
:09304600903A8AF0904000F0225B
:10278400E4F5B690400404F075B4BFAE05EF25E05F
:10279400246AF582E4343AF583EEF0F580AE03EF73
:1027A40025E0246BF582E4343AF583EEF0F590EFFE
:1027B400540FFFE5A054F04FF5A0C2B1C2B0C2A5BA
:0727C400C2B2D2B2D2A5227D
:1024C500903A06E07002A3E07002C322856482851B
:1024D5006383E0903200F0AA63A9647B0190000158
:1024E500120973903201F074022564F564E43563D2
:1024F500F563C3E5649566E5639565400A7E327FBD
:1025050006756332756406903A07E024FFF0903A49
:0725150006E034FFF0D322C1
:100FDE00201103021156903A09E0FFD3903A07E030
:100FEE009F903A06E094004002D21390E698E0FEFD
:100FFE0090E699E07C002400F56CEC3EF56B903A9F
:10100E0006E0FEA3E0FFC3903205E09FFF9032049E
:10101E00E09EFEEF25E0FFEE33AD07FCC3ED956CD1
:10102E00E56B6480F8EC648098501E903A06E0FE02
:10103E00A3E0FFC3903205E09FFF903204E09EFED6
:10104E00EF25E0FDEE33FC80D37AF879007EF87F51
:10105E000074F8F59A7400F59BE568F59DAE68E5A9
:10106E0069F59EC3E5669569FFE5659568FEC3EF74
:10107E00956CEE956B500DC3E5669569FFE565952C
:10108E0068FE8004AE6BAF6CE4FDFCC3ED9FEE64B6
:10109E0080F8EC648098500F90E67BE090E67CF050
:1010AE000DED70010C80E4C3E56C9FF56EE56B9E53
:1010BE00F56DD3E56E9400E56D6480948040317AD1
:1010CE003279067E327F067432F59D7406F59EE403
:1010DE00FCFDC3ED956EE56D6480F8EC6480985070
:1010EE000F90E67BE090E67CF00DED70010C80E257
:1010FE00E56BA2E713FEE56C1325E0FFEE33FEEF82
:10110E002569F569EE3568F568C3E5699566E568A4
:10111E009565401E903205E025E0FF903204E033E5
:10112E00FEC3E49FFFE49EFEEF2569F569EE356888
:10113E00F568E56BA2E713FEE56C13FF903A07E046
:10114E002FF0903A06E03EF05391EF90E65F744038
:07115E00F090E6997480F0A7
:011165002267
:1029BF00E4903A67F0A374FFF0A3F0E4FFEFC39441
:1029CF0010501FEF25E0246AF582E4343AF583E4D2
:1029DF00F0EF25E0246BF582E4343AF583E4F00F51
:0829EF0080DB903A8A74FFF0CE
:0129F70022BD
:10203200903AC374FBF0903AC47450F075B2FF75D5
:10204200B3FF75B4FF7580FF7590FF75A0FF75B083
:1020520007E4F5B175B507F5B6903A67E09040032D
:10206200F0903A68E0904001F0903A69E0904002C6
:10207200F0903A8AE0F46036E4FEEEC39410502405
:10208200EE25E0246AF582E4343AF583E0FDEE259C
:10209200E0246BF582E4343AF583E0FBAF061200EC
:1020A2002E0E80D6903A8AE0FF7E00123036123130
:0120B200C964
:0120B300220A
:0100320022AB
:01004A002293
:10306800122B72EF24FF9214301B02B214AF05A288
:0830780014E433FD1225C4220B
:10281100903A8CE0904001F0903A8DE0904002F0C7
:10282100903A8BE0904003F0E4FEEEC39410502404
:10283100EE25E0248EF582E4343AF583E0FDEE25C1
:10284100E0248FF582E4343AF583E0FBAF06120011
:042851002E0E80D6F1
:012855002260
:102CC9007580FF7590FF75A0FF75B2FF75B3FF752D
:102CD900B4FF7580FF7590FF75A0FF75B007E4F527
:0C2CE900B175B507F5B675B007F5B1225E
:102DEE00C213C2117E327F0675683275690675632D
:102DFE0032756406E4903A06F0A3F0903200F0A328
:062E0E00F0903A08F022EA
:0D31620090E600E054E74410F00000002269
:1026F40000000000000090E615E0547FF0000000A8
:1027040090E613E0547FF000000090E61474A0F00B
:1027140000000090E61274E0F000000090E6997466
:1027240080F0000000F0000000F0000000F0000065
:082734000090E65E7440F02203
:1030AE001231621226F4904006E05401F56AE054A3
:0630BE0002903202F02234
:10167E007AE779407EE77F40AB077D017F037E00EE
:10168E001229F890E740E0541FFF447090010AF0D1
:10169E00EF540FB4100040030217809016B0F828D4
:1016AE0028730216E00216EA0216F40216FE02175C
:1016BE000802171202171C02172602173002173AD9
:1016CE0002174402174E02175802176202176C02D5
:1016DE0017767BFF7A18799212251C227BFF7A18D7
:1016EE00799F12251C227BFF7A1879AC12251C22B9
:1016FE007BFF7A1879B912251C227BFF7A1879C6DE
:10170E0012251C227BFF7A1879D212251C227BFF10
:10171E007A1879DE12251C227BFF7A1879EA1225B7
:10172E001C227BFF7A1879F612251C227BFF7A1970
:10173E00790312251C227BFF7A19791012251C229F
:10174E007BFF7A19791D12251C227BFF7A19792AC3
:10175E0012251C227BFF7A19793612251C227BFF5B
:10176E007A19794212251C227BFF7A19794E12259D
:0B177E001C227BFF7A19795A12251CEF
:01178900223D
:1030D900122CC9E4FBFDFF122DA11231A990E65E65
:0430E9007440F0221D
:01005200228B
:10291200301008C210122DC81231A9301214C2127E
:10292200E567B4FF051230988005AF6712312412B3
:1029320031A9903A08E06011B40209122DEEE49038
:0A2942003A08F022E4903A08F0226F
:102B0A00AE0790E600E054E7F0EE4401904005F08D
:102B1A007598103098FD7598103098FD759810309A
:102B2A0098FD7598103098FD7598103098FD904072
:042B3A0005EDF02293
:06005600AC07AA03A90596
:10005C00E4F53EF53FFEFFFDE94401904005F090CC
:10006C00E600E054E7F07598103098FD7598103064
:10007C0098FD7598103098FD759810AE993098FDD4
:10008C00759810AF993098FD90E600E054E7441055
:10009C00F0AD99904005EAF0EEC41354075407FEF6
:1000AC0074402CF582E434E7F583EEF0EFC413547E
:1000BC00075407FE74412CF582E434E7F583EEF027
:1000CC0074402CF582E434E7F583E0FEEF333333F0
:1000DC0054F8FFEE4FF074412CF582E434E7F583CD
:0C00EC00E0FFED33333354F8FEEF4EF02C
:0100F80022E5
:021D65008F3AB3
:101D670090E6BFE0FE90E6BEE07C002400FFEC3E7C
:101D7700FEEF7802CEC313CE13D8F9F53B43878025
:101D8700E53A7003753A03E53AB40108E53B25E007
:101D9700F53B800BE53AB40206E53B25E0F53BE46D
:101DA700F53CE53A30E026903202E06006E4FDFFBC
:101DB700122B0AE4F53DE53DC3953B5010E4FBFDCE
:101DC700AF3C120056053D053C053C80E9E53A303D
:101DD700E128903202E060077D027F02122B0AE4BD
:101DE700F53DE53DC3953B50117B027D02AF3C12AB
:0A1DF7000056053D053C053C80E860
:011E010022BE
:10019E00E4F537D219121569500302073F90E6B9FC
:1001AE00E0120A5E06AC1206AC1302F2B3047AB584
:1001BE000678B703FCBF01D1C7045CF0041EFC0037
:1001CE0000073D90E6B8E030E71D90E6BDE030E771
:1001DE0003122DEE90E6BFE090E68AF090E6BEE0C8
:1001EE0090E68BF00202A990E6BDE0703F90E6BC6F
:1001FE00E060030202A912001090E6BAE0B4010317
:10020E00D38001C3921190E6BBE0D39400400BE083
:10021E00D394105005E0903A09F090E6BFE090E6D6
:10022E008AF090E6BEE090E68BF0806F90E6BCE040
:10023E00540FB4012590E6BAE0FF903A09E08FF032
:10024E00A4FF903207E02FFE903206E035F085666F
:10025E0082856583F0A3CEF0804190E6BCE0540F1A
:10026E006402703790E6BBE0D39400400BE0D39469
:10027E00105005E0903A09F090E6BAE0FF903A0986
:10028E00E08FF0A4FF903207E02FFE903206E035AB
:10029E00F0856682856583F0A3CEF090E6BCE054CF
:1002AE000F6403600302073F90E6BBE0D394004067
:1002BE000BE0D394105005E0903A09F090E6BAE0C6
:1002CE00FF903A09E08FF0A4FF903207E02FFE90E6
:1002DE003206E035F0856682856583F0A3CEF0D2D6
:1002EE001102073F90E6BEE0701B90E6BCE0FF9067
:1002FE00E6BAE0FDA3E0FB12002E90E6BEE090E62B
:10030E008BF002073F90E6BEE064116008E06422C5
:10031E0060030203F1E490E68AF090E6BEE090E618
:10032E008BF090E6A0E020E1F9E4F535F53690E7A4
:10033E0040E0F537E537604630E033AF36C007E5CD
:10034E003625E0FFE53533FE74412FF58274E73E26
:10035E00F583E0FDE53625E0FFE53533FE74422FEB
:10036E00F58274E73EF583E0FBD00712278405364D
:10037E00E53670020535E537C313F53780B690E6DE
:10038E00BEE0D39411405675350075360890E7518E
:10039E00E0F537E537604630E033AF36C007E53677
:1003AE0025E0FFE53533FE74422FF58274E73EF506
:1003BE0083E0FDE53625E0FFE53533FE74432FF58A
:1003CE008274E73EF583E0FBD0071227840536E5FD
:1003DE003670020535E537C313F53780B6120010B7
:1003EE0002073F90E6BEE090E68BF002073F90E6F4
:1003FE00BCE0FF121D6590E6BFE090E68AF090E645
:10040E00BEE090E68BF090E6A0E04480F002073F5D
:10041E0090E6BCE0047017D21090E74074FCF0E454
:10042E0090E68AF090E6BEE090E68BF0801090E6C3
:10043E00BCE0FF121B0190E740EFF01231A9E490EF
:10044E00E68AF090E6BEE090E68BF002073FD2120D
:10045E0090E6BCE0F56790E74074F0F0E490E68A31
:10046E00F090E6BEE090E68BF002073FE4F530F543
:10047E002FF52EF52D90E6BAE0FFE4E5304FF5307E
:10048E00E52FF52FE52EF52EE52DF52DA3E0FFE456
:10049E00FCFDFE7808120A4BE5304FF530E52F4E85
:1004AE00F52FE52E4DF52EE52D4CF52DA3E0FFE4B1
:1004BE00FCFDFE7810120A4BE5304FF530E52F4E5D
:1004CE00F52FE52E4DF52EE52D4CF52D90E6BEE0E3
:1004DE00753100F532A3E0FEE4EE423190E6B8E06D
:1004EE0020E7030205C0E5324531700302073F9055
:1004FE00E6A0E020E1F9C3E5329440E531940050E6
:10050E00088531338532348006753300753440E406
:0F051E00F535F536C3E5369534E5359533507828
:10052D00AF30AE2FAD2EAC2D7810120A37EFE4C0E0
:10053D0007AF30AE2FAD2EAC2D7808120A37EFE491
:10054D00AD07E530FFE4AB07D0071228568E388F84
:10055D0039EF74402536F58274E73535F583EFF0C4
:10056D00E538FF74412536F58274E73535F583EFAF
:01057D00F08D
:10057E0074022536F536E43535F535E4FAF9F8E545
:10058E00302401F530EA352FF52FE9352EF52EE81A
:10059E00352DF52D020522E490E68AF090E68BE5E6
:1005AE0034F0C3E5329534F532E5319533F5310249
:1005BE0004F45332FEE5324531700302073FE490F6
:1005CE00E68AF090E68BF090E6A0E020E1F990E666
:1005DE008BE054FE753300F534E4F535F536C3E59E
:1005EE00369534E53595335071AF30AE2FAD2EAC18
:1005FE002D7810120A37EFE4C007AF30AE2FAD2EB4
:10060E00AC2D7808120A37EFE4AD07E530FFE4AB06
:10061E000774412536F58274E73535F583E0F53DEF
:10062E0074402536F58274E73535F583E0F53ED016
:10063E0007121A3A74022536F536E43535F535E4E7
:10064E00FAF9F8E5302401F530EA352FF52FE935C2
:10065E002EF52EE8352DF52D8084C3E5329534F533
:10066E0032E5319533F5310205C390E6B8E030E757
:10067E0018904000E090E740F0E490E68AF090E6B3
:10068E00BEE090E68BF002073F90E6BAE0FF7E00F8
:10069E0012303690E6BEE090E68BF002073F90E611
:1006AE00B8E030E73B904003E0540390E740F09011
:1006BE004003E030E7047F0180027F0090E741EFC6
:1006CE00F07B017AE77942123100E490E68AF090ED
:1006DE00E6BEE090E68BF090E6A0E04480F080511C
:1006EE00E490E68AF090E6BEE090E68BF090E6A00D
:1006FE00E020E1F990E6BAE05401FFC433333354FD
:10070E0080FF90E742E054034F903A67F0F5379040
:10071E004003F090E740E0FF903A68F0904001F01F
:10072E0090E741E0FF903A69F0904002F08002D3EA
:02073E0022C3D4
:010740002296
:10219D00301340903A09E0FFC3903A07E09F903A20
:0621AD0006E0940040234F
:1021B300E4F528903A09E0FFE528C39F5010122464
:1021C300C54002C213AF28122E80052880E51200F5
:0121D30010FB
:1021D400800A903A087402F0C211C213903A10E0D7
:1021E40060031223A8903A12E06003122613903A77
:1021F40024E0600312265F903A66E06009903A2575
:07220400E060031226AA228C
:10010000120100020000004005167080000001028C
:020110000001EC
:0A0114000A0600020000004001008E
:1001200009022700010100A0FA0904000003FF00F2
:100130000000070506020002000705820200020017
:0701400007050102000200A7
:1001480009022000010100A0FA0904000002FF00D2
:1001580000000705020240000107050102400001F6
:10016A0004030904140341004300430045005300FB
:10017A00200049002F004F001A0355005300420087
:10018A002D0041004F00310036002D0031003600AD
:04019A004100000020
:10300100564E6F7620303120323031394031353AE9
:0B30110034353A3538000000000000A4
:1025AF000215301802080000010F01010C01010A89
:0425BF00010112FF05
:10116600E0FFAE40054074402EF582E434E7F58397
:1011760022E490E68AF090E6BEE090E68BF02290BC
:10118600E740F0E490E68AF090E68B22E0FE74C138
:101196002FF582E4343AF583E022FF7442253BF5CD
:1011A60082E434E7F583EFF0053BE53B22FF7E0062
:1011B6000DEE2516F582E43515F583222540F5401A
:1011C600E543353FF53FC3E5429544F542E5419594
:1011D60043F5412274402546F58274E73545F5838B
:1011E600227586005391EF90E65D22248B7C007B6E
:1011F60001F9EC22E4903AC9F0A3F0F517F51822AC
:1012060074C7253BF582E4343AF58322EC25E024C5
:1012160014F582E4343AF583E0FE547FFFEE22743F
:10122600B12FF582E4343AF5832274AF2EF582E4C9
:10123600343AF583E0227DA57A3A7B0A7F017E1F48
:101246002290E6BEE0640122C3E5469544E5459555
:10125600432274C52FF582E4343AF5832290E6BE24
:10126600E0640222F583EFF090E741E0FFEE25E02F
:1012760022E5402546F582E53F3545F5832285542E
:1012860058855559855C5A855D5B22855C58855D18
:101296005985545A85555B2290E6A0E04480F02299
:1012A600FEEF2569F569EE3568F56822AD447AE703
:1012B6007B40AF40AE3F22903A0A740AF0E4A3F0B6
:1012C600227C007B01F9EC227B017AE779402290AF
:0912D600E67BE090E67CF00D22BD
:10304F00903A0DE0FF7006903A0CE06008903A0C51
:09305F00E0FD022F5C1231C922D0
:102FB0007E007FA57D007B017A3A790A120AB11260
:0B2FC00012BD1229BF12203202311294
:102EC2007D0212123E1229F8903A0AE0B40A04A3D3
:102ED200E06003022FB012123C1229F812203222B3
:103112001212BD12123C122AD57DA57F007E1F021B
:0231220000FDAE
:10240B0012304F90E6BEE0F54A754C02E54A604B40
:10241B00C394405005854A4B8003754B401211897C
:10242B00E54BF090E6A0E020E1F9E4F549E549C37E
:10243B00954B501E7440254912116FE0FFAE4C05B1
:10244B004CEE240A1211F3343AFAEF1209A00549A3
:0E245B0080DBC3E54A954BF54A80B102304F55
:101FAA0090E6B8E030E733E4F540F53FE53FC39407
:101FBA002450207E007B017467253FF9EE343AFAFB
:101FCA0012095AFF7440254012116FEFF0053F05C0
:101FDA004080D912117712129E2212117C90E6A02B
:101FEA00E020E1F990E6BEE064246003C21922E42D
:101FFA00F53FF540E53FC39424501D744025401237
:10200A00116FE0FFE53F24671212C7343AFAEF1264
:10201A0009A0053F054080DC90E6BAE0B4CE08A3EB
:07202A00E0B4AC0312311217
:01203100228C
:0F315300D3E518950EE517950D400312318E2226
:0131D80022D4
:102E5D00903A0FE0FE903A0EE07C002400F50EEC67
:102E6D003EF50D450E7007C28CC2A9C21A22D28C36
:032E7D00D2A922B5
:0131D90022D3
:10294C0012117C90E6A0E020E1F9E4FF74422FF52F
:10295C0082E434E7F583E0FEEF1211F1343AFAEE3B
:10296C001209A00FBF24E590E740E0903A0EF090DA
:0A297C00E741E0903A0FF0022E5DF3
:09318E001228111211FAD21A22C2
:10308000C21A1211FAC28CC2A9538EF75389F143A6
:0830900089011231D9022E5D05
:102A6900E50945086019E50915097002150814C337
:102A790094FFE5086480948050161231A9801130C2
:102A8900190E7508057509FF123185C2191211FA57
:052A9900301A02D21901
:012A9E002215
:1019670090E6B8E030E75CE4F540903A0E12116675
:10197700EFF0903A0F121166EFF0E4F53FE53FC341
:10198700942450207E007B01748B253FF9EE343A76
:10199700FA12095AFF7440254012116FEFF0053F04
:1019A700054080D9121168E518F0E517121167EFA5
:1019B700F0A21AE433121167EFF0C21A121177126C
:1019C700129E2212117C90E6A0E020E1F9C21A9043
:1019D700E6BEE064266003C21922E4F540AF400585
:1019E7004074402F12116FE0903A0EF0AF4005405F
:1019F70074402F12116FE0903A0FF0E4F53FE53F86
:101A0700C39424501B7440254012116FE0FFE53F3B
:101A17001211F1343AFAEF1209A0053F054080DEB2
:101A2700122E5D90E6BAE0B4CE08A3E0B4AC031280
:021A370031126A
:011A3900228A
:04004600750F01220F
:1024690012304F90E6BEE0F54AE4F54CE54A604B80
:10247900C394405005854A4B8003754B401211891E
:10248900E54BF090E6A0E020E1F9E4F549E549C320
:10249900954B501E7440254912116FE0FFAE4C0553
:1024A9004CEE24251212C7343AFAEF1209A0054955
:0B24B90080DBC3E54A954BF54A80B17B
:0124C40022F5
:1026AA00150FE50F7043903A25E0F50F120032E45A
:1026BA00FB903A66E0FFEBC39F502BEB25E0242604
:1026CA00F582E4343AF583E0FAEB25E02427F58233
:1026DA00E4343AF583E0F9AF02547FFDE933921B03
:0926EA001230680B80CB12004A8B
:0126F30022C4
:102FCB0012117C90E6A0E020E1F990E740E0903A06
:0B2FDB0010F090E741E0903A11F02266
:1023A800150CE50C705C903A10E0F50C7B017A3A5C
:1023B80079CB123100E4FFFE74CB2EF582E4343A77
:1023C800F583E0FD1212306DF97D01E4FCECC39455
:1023D800085029E95D6013121225E014F012122545
:1023E800E070111212306DF08000903A11E0FB128B
:1023F8001225EBF00CED25E0FD0F80D10EEE640206
:0224080070B6AC
:01240A0022AF
:1030ED0012117C90E6A0E020E1F990E740E0903AE3
:0330FD0012F022AC
:102F2000E4F513FF121194FE74C72F12120AEEF08B
:0D2F3000121194FE121258EEF00FBF02E7CE
:012F3D002271
:10261300150AE50A7045903A12E0F50A7B017A3A09
:1026230079C1123100E4FF74C72F12120AC083C0AC
:1026330082121192FDEE5DD082D083F0121258C047
:1026430083C082121192FDEE4DD082D083F00FBF72
:0B26530002D5E513C394FF50020513ED
:01265E002259
:04004E007512FF2206
:10265F00E4FC0512903A24E0FFECC39F5032EC25C6
:10266F00E02415F582E4343AF583E0C39512500E59
:10267F0012121230E7047D0080107D01800C1212BF
:10268F001230E7047D0180027D001225C40C80C446
:0A269F00903A13E0B51203E4F512BF
:0126A900220E
:102D780012117C90E6A0E020E1F9E4FF74402F12E4
:102D8800116FE0FEEF7C007B012413F9EC343AFA72
:082D9800EE1209A00FBF12E4C6
:012DA0002210
:041E02008E498F4A2C
:101E0600E4F54BE54A64024549700C90E741F0E57C
:101E16004A154A70021549E54A6401454970109011
:101E2600E74074A512117BE54A154A70021549E58B
:101E36004A4549605490E6A0E020E1F9C3E54A949A
:101E460040E54994005004AD4A80027D40E4FFEF2E
:101E5600C39D5021AE4B054BEE7583007B01240AD2
:101E6600F9E583343AFA12095AFE74402F12116FBB
:101E7600EEF00F80DA121189EDF0FFC3E54A9FF507
:091E86004AE5499400F54980A6E3
:011E8F002230
:100ADD0090E6B8E030E76090E6BFE0FE90E6BEE05D
:100AED00FDEDFF4E7002804A90E6BDE0FD90E6BC44
:100AFD00E04D7003021E0290E6BDE06003020E336E
:100B0D0090E6BCE0146003020E33754CFF754D305A
:100B1D00754E01754F0075501E7B017AE7794112B4
:100B2D001BAE1212CE1230C4EF0490E740F090E6E7
:100B3D00BEE090E68BF02290E6BFE0FF90E6BEE0CF
:100B4D004F707790E6BDE0704D90E6BCE024EF600D
:100B5D0023249F603024FD603324F36034247270AD
:100B6D003590E6BAE064CE702DA3E064AC70271228
:100B7D003112802290E6BAE0B4CE1BA3E0B4AC16DD
:100B8D00122FB08011E4903A24F0800A7512FF8084
:100B9D0005E4903A66F090E6BDE064806003020ED5
:100BAD003390E6BCE064016003020E3390E6BAE0D8
:100BBD00903A0CF090E6BB020C8690E6BFE0600325
:100BCD00020E3390E6BDE0FE90E6BCE07C00240012
:100BDD00FFEC3EFEEF8EF0120A840C2F00200C2F3E
:100BED0000210C2F00220C2F00230C64002F0C8EE3
:100BFD0000410C9C00510CA700530CC400610CCF9C
:100C0D0000630CEC00710CFA00730D1700740D5C91
:100C1D0000810D6A00830D8700840DCD80010000D9
:100C2D000E3390E6BEE0B4A30312240B90E6BCE0B5
:100C3D0030E00312203290E6BCE020E103020E33D7
:100C4D0090E6BAE064CE6003020E33A3E064AC60BC
:100C5D0003020E330231121212636003020E33E0EF
:100C6D0090E68BF090E6A0E020E1F912304F90E78E
:100C7D0040E0903A0CF090E741E0903A0DF0020E12
:100C8D003090E6BEE064266003020E3302294C125A
:100C9D0012636003020E33022FCB12124760030260
:100CAD000E33E090E68BF090E6A0E020E1F990E7BE
:100CBD0040E0903A10F0221212476003020E330208
:100CCD0030ED1212476003020E33E090E68BF09088
:100CDD00E6A0E020E1F990E740E0903A12F0229092
:100CED00E6BEE064126003020E33022D7812124745
:100CFD006003020E33E090E68BF090E6A0E020E179
:100D0D00F990E740E0903A13F0221212636003026B
:100D1D000E33903A24E0C394084003020E331211AF
:100D2D007C90E6A0E020E1F990E740E0FF903A24C6
:100D3D00E0FE25E02412F582E4343A12126A2413FF
:100D4D00F582E4343AF583EFF0903A24020DC99020
:100D5D00E6BEE064426003020E33022469121247BC
:100D6D006003020E33E090E68BF090E6A0E020E108
:100D7D00F990E740E0903A25F022121263600302E9
:100D8D000E33903A66E0C394204003020E331211E5
:100D9D007C90E6A0E020E1F990E740E0FF903A6614
:100DAD00E0FE25E02424F582E4343A12126A24256B
:100DBD00F582E4343AF583EFF0903A66E004F022E0
:100DCD0012117C90E6A0E020E1F990E6BEE064040B
:020DDD00705450
:100DDF0090E740E0FCA3E0FDA3E0FEA3E0F5428E28
:100DEF00418D408C3FFBAA41A940A83F7F007E1B4D
:100DFF007D377C4B12083C8F468E458D448C43AB20
:100E0F0046AA45A944A843E4FFFE7D807C4712070C
:100E1F00441208D98E478F48EF903A0CF0E547A35C
:040E2F00F012304F3E
:010E3300229C
:102FE60090E6047480F00000007402F000000074A3
:0B2FF60006F0000000E4F000000022E4
:0131DA0022D2
:1028D700E4F52D7AE779407F40AB077D087FF87EE6
:1028E7001D1229F8E4F52D7440252D12116FE0FD16
:1028F700E52D75F002A4246CF9740135F08982F591
:0A29070083EDF0052DE52DB408DD89
:0129110022A3
:1028980090E678E05410FFC4540F4450F51013E448
:1028A80033F514438E201231C91230AE1231C112E1
:1028B80028D712167ED215122EC212308012004668
:0F28C800122F2012004E12304F1231A90230D9B8
:102F3E00120052122A69123153E5B090E68020E752
:0E2F4E0006E04408F08004E054F7F002291277
:06251C008B2D8A2E892F91
:10252200E4F5301230C48F31E53125E02402900108
:1025320082F0E4F530AF31EF3395E0FEC3E5309F32
:10254200EE6480F87480985027AB2DAA2EA92F85AF
:102552003082758300120973FDE53075F002A42400
:1025620084F9740135F08982F583EDF0053080C578
:012572002246
:062A31008E4F8F50AC0532
:102A3700E4FDE5146007E54F1211B3EFF0AE050DA5
:102A4700E5162E1211BAE550F0AF050DE5162F1257
:102A570011BAECF0AB16AA15AF10122F94AF1002F3
:022A67002A9FA4
:0300FD00022A31A3
:0A2AD5008E498F4A8D4B8A4C8B4DC1
:102ADF00E4F54EE54EC3954B5020054AE54AAE4905
:102AEF007002054914FFE54D254EF582E4354CF58E
:0A2AFF0083E0FD1200FD054E80D9B2
:012B090022A9
:0A29F8008E478F488D498A4A8B4BA9
:102A0200E4FDF54CE5146007E5471211B3EFF0AEB3
:102A1200050DE5162E1211BAE548F0AB16AA15AF50
:0F2A220010122F94AB4BAA4AAD49AF10022F7878
:10144D0090E6BAE0753F00F540A3E0FEEE423F9016
:10145D00E6BEE0754100F542A3E0FEEE424190E6A6
:10146D00B8E064C06003021513E542454170030204
:10147D00156890E6A0E020E1F9C3E5429440E5410E
:10148D00940050088541438542448006754300759C
:10149D00444090E6B9E064A3704090E6BCE0B4012E
:1014AD001BA3E0701790E6BBE030E71090E74074A7
:1014BD0003F0A37401F0A37403F0803EE4F545F549
:1014CD004612124E5034121277E0FF1211DAEFF07D
:1014DD000546E54670EB054580E7E4F545F5461212
:1014ED00124E50101211DA74CDF00546E54670EF2C
:1014FD00054580EB1212B21229F8121189E544F05C
:10150D001211C202147690E6B8E06440704DE542C7
:10151D0045416047121189F090E6A0E020E1F99075
:10152D00E68BE0754300F54490E6B9E0B4A31EE404
:10153D00F545F54612124E501A1211DAE0FF12124D
:10154D0077EFF00546E54670EB054580E71212B2E0
:0B155D00122AD5E5441211C202151B32
:011568002260
:0231CC00C3221C
:0231CE00D3220A
:0231D000D32208
:0831B10090E6BAE0F50BD32211
:09319700E50B12118504F0D322AE
:0831B90090E6BAE0F511D32203
:0931A000E51112118504F0D3229F
:0231D200D32206
:0231D400D32204
:0231D600D32202
:101CB800E4FF90E6B8E020E703021D640F0F7440CC
:101CC800240112116F740AF00F7440240212116F6C
:101CD800E4F00F7440240312116FE4F00F744024F1
:101CE8000412116F7401F00F7440240512116F74FF
:101CF80002F00F7440240612116FE4F00F744024B0
:101D08000712116F7410F00F7440240812116F74C9
:101D1800FFF00F7440240912116F74FFF00F744024
:101D2800240A12116F7408F00F7440240B12116FFB
:101D38007420F00F7440240C12116F740FF00F749C
:101D480040240D12116F740FF00F7440240E1211FD
:0C1D58006F7401F090E740EFF01211777B
:011D6400225C
:1015690090E6B9E0120A5E15B01015B01115E9142C
:10157900165A15159E2815982E15923C15AA3F1531
:10158900A4A215A4A30000167A120ADD02167C1281
:10159900196702167C121FAA02167C12144D021634
:1015A9007C121CB802167C90E6B8E030E7091212EA
:1015B900CE12310002167290E6BEE0701090E6BCC1
:1015C900E0FF90E6BAE0FD1225C402167C12117CF8
:1015D90090E6A0E020E1F91212CE12301C02167C2E
:1015E900C2AF90E748E513F0E4F5137B017AE77998
:1015F90046123100E4F53B74C1253B121197FF7483
:1016090040253B12116F1211ACB402EB90E6BCE01D
:101619006010E4F53B121206E0F41211A0B402F5D1
:10162900800DE4F53B121206E01211A0B402F6E4B3
:10163900F53B74C5253B12125BE0FF7444253BF56D
:1016490082E434E71211AAB402E8122F20D2AF8043
:1016590018E4F53B74AF253B121233FF7440253B68
:1016690012116F1211ACB402EB12117712129E8093
:0416790002C322D3B3
:01167D00224A
:102D4D00C0E0C083C082C085C084C08675860090F7
:102D5D00E6B5E04401F0D2161211EA7401F0D08606
:0B2D6D00D084D085D082D083D0E0322B
:102EE200C0E0C083C082C085C084C0861211E7746E
:0F2EF20004F0D086D084D085D082D083D0E03257
:102F0100C0E0C083C082C085C084C0861211E7744E
:0F2F110002F0D086D084D085D082D083D0E03239
:102BD600C0E0C083C082C085C084C0867586009070
:102BE600E680E030E705121284800312129112117A
:102BF600EA7410F0D086D084D085D082D083D0E01D
:012C0600329B
:102E3900C0E0C083C082C085C084C086758600D2C8
:102E4900181211EA7408F0D086D084D085D082D0C7
:042E590083D0E03210
:102C0700C0E0C083C082C085C084C086758600903E
:102C1700E680E030E7051212848003121291121148
:102C2700EA7420F0D086D084D085D082D083D0E0DB
:012C3700326A
:0131DB0032C1
:0131DC0032C0
:0131DD0032BF
:0131DE0032BE
:0131DF0032BD
:0131E00032BC
:0131E10032BB
:0131E20032BA
:1012DF00C0E0C083C082C085C084C086758600C050
:1012EF00D075D000C000C001C002C004C005C00648
:0212FF00C00726
:10130100201103021421903A09E0FFD3903A07E03B
:101311009F903A06E094004002D21390E698E0FED6
:1013210090E699E07C002400F525EC3EF524800F41
:10133100C3EF9525E5246480F8EE648098501E90F3
:101341003A06E0FEA3E0FFC3903205E09FFF903232
:1013510004E09EFEEF25E0FFEE33FE80D374F8F546
:101361009A7400F59BAE68AF69AD07AC06ECF59DCC
:10137100E569F59EC3E5669DFFE5659CFEC3EF95B6
:1013810025EE952450028004AE24AF25E4FDFCC374
:10139100ED9FEE6480F8EC64809850091212D5BD7F
:1013A10000010C80EAC3E5259FF527E5249EF5267B
:1013B100D3E5279400E5266480948040247432F5B7
:1013C1009D7406F59E7C007D00C3ED9527E526649E
:1013D10080F8EC64809850091212D5BD00010C8090
:1013E100E8E524A2E713FCE52513FD25E0FFEC3336
:1013F1001212A6C3E5699566E568956540169032B7
:1014010005E025E0FF903204E033FEC3E49FFFE4F2
:101411009E1212A6903A07E02DF0903A06E03CF0B9
:0F1421005391EF90E65F7440F090E6997480F07D
:10143000D007D006D005D004D002D001D000D0D043
:0D144000D086D084D085D082D083D0E03219
:0131E30032B9
:0131E40032B8
:0131E50032B7
:0131E60032B6
:0131E70032B5
:0131E80032B4
:0131E90032B3
:0131EA0032B2
:0131EB0032B1
:0131EC0032B0
:0131ED0032AF
:0131EE0032AE
:0131EF0032AD
:0131F00032AC
:0131F10032AB
:0131F20032AA
:0131F30032A9
:0131F40032A8
:0131F50032A7
:0131F60032A6
:0131F70032A5
:0131F80032A4
:0131F90032A3
:0131FA0032A2
:0131FB0032A1
:0131FC0032A0
:0131FD00329F
:0A317B00000102020303040405052D
:102C3800EC4EFEED4F247BF58274313EF583E49330
:102C4800FF3395E0FEEF24A1FFEE34E68F82F58393
:102C58002290E6BCE0547EFF7E00E0D394807C00A6
:012C68002249
:03000B0002220BC3
:10220B00C0E0C0F0C083C082C085C084C086758624
:10221B0000C0D075D000C000C004C005C006C00708
:10222B000553E553B406270518E51870020517AEDC
:10223B0017FF7C007D0A1209D4ED4C700E903ACA40
:10224B00E004F07006903AC9E004F0755300D00733
:10225B00D006D005D004D000D0D0D086D084D08585
:09226B00D082D083D0F0D0E03223
:101E9000E4F52CF52BF52AF529C218C215C217C294
:101EA00016122898755601755700755E01755F14F6
:101EB000755401755520755C01755D487560017537
:101EC000616AD2E843D82090E668E04409F090E6E1
:101ED0005CE0443DF0D2AFD21C122C9A90E680E038
:101EE00054F7F0C218301605120E34C216301829F5
:101EF0001231CC5024C218122E1420151690E682EE
:101F0000E030E704E020E1EF90E682E030E604E034
:0E1F100020E0E4122CF51231CE122F3E80C7D5
:100E340090E6B9E07003020EE5147003020F392442
:100E4400FE7003020F9324FB7003020EDF14700381
:100E5400020ED914607314607624056003020FCA6D
:100E64001231D04003020FD690E6BBE024FE60228C
:100E740014603324FD601114602224067048E55682
:100E840090E6B3F0E5578037E55E90E6B3F0E55FB2
:100E9400802DE55890E6B3F0E5598023E55A90E6B5
:100EA400B3F0E55B801990E6BAE0FF122D21AA06A3
:100EB400A9077B01EA494B600DEE90E6B3F0EF9091
:100EC400E6B4F0020FD6020FCF1231A0020FD612F1
:100ED40031B9020FD61231B1020FD6123197020F77
:100EE400D61231D24003020FD690E6B8E0247F60D8
:100EF400151460192402703AA215E43325E0FFA208
:100F040017E4334F8018E490E740F08016122C5910
:100F140040047D0180027D00122C38E0540190E7EA
:100F240040F0E4A3F090E68AF090E68B7402F002BD
:100F34000FD6020FCF1231D44003020FD690E6B879
:100F4400E024FE601624026003020FD690E6BAE0A5
:100F5400B40105C215020FD6020FCF90E6BAE070B5
:100F64002C122C5940047D0180027D00122C38E0A3
:100F740054FEF090E6BCE05480131313541FFFE0BA
:100F8400540F2F90E683F0E04420F08045803C121B
:100F940031D6503E90E6B8E024FE601A2402703246
:100FA40090E6BAE0B40104D215802790E6BAE0B422
:100FB4000202801E8015122C5940047D0180027D9E
:100FC40000122C38800812019E500790E6A0E044DD
:090FD40001F090E6A0E04480F079
:010FDD0022F1
:030033000200F9CF
:0400F90053D8EF32B7
:102F5C00E4F5C8E58E54074438F58E8FCB8FCDAF92
:0C2F6C00058FCA8FCCD2BDD2ADD2CA22D4
:102C6900AB07AA06A905A8047F007E1B7D377C4B0C
:102C790012083CAB07AA06A905A804E4FFFE7D805B
:102C89007C471207441208D9AD07AC06AF04022FDE
:012C99005CDE
:10313400AD07AC06C3E49DFBE49CFFEBFD022F5CF2
:0331C900C2CA2255
:03002B0002273C6D
:10273C00C0E0C083C082C085C084C086758600C0DE
:10274C00D075D000C000C001C002C003C004C005D9
:10275C00C006C00712219DC2CFD007D006D005D02D
:10276C0004D003D002D001D000D0D0D086D084D0F9
:08277C0085D082D083D0E03249
:102CF50090E682E030E004E020E60B90E682E030EA
:102D0500E119E030E71590E680E04401F07F147E9C
:0C2D1500001227CB90E680E054FEF02274
:102E140090E682E044C0F090E681F0438701000030
:042E24000000002288
:102C9A00301C0990E680E0440AF0800790E680E064
:102CAA004408F07FDC7E051227CB90E65D74FFF0C6
:0F2CBA0090E65FF05391EF90E680E054F7F02240
:102E28007400F58690FDA57C05A3E582458370F9BD
:012E38002277
:0831C100E4F51ED2E9D2AF22B1
:102A9F0090E678E020E6F9C2E990E678E04480F02D
:102AAF00EF25E090E679F090E678E030E0F990E6F7
:102ABF0078E04440F090E678E020E6F990E678E0A0
:062ACF0030E1D6D2E9223D
:102BA400A90790E678E020E6F9E51E702390E67820
:102BB400E04480F0E925E090E679F08D19AF03A9AF
:102BC40007751A018A1B891CE4F51D751E01D322A1
:022BD400C3221A
:102B3E00A90790E678E020E6F9E51E702590E67884
:102B4E00E04480F0E925E0440190E679F08D19AF7C
:102B5E0003A907751A018A1B891CE4F51D751E034E
:042B6E00D322C32289
:03004B0002178A0F
:10178A00C0E0C083C082C085C084C086758600C0A0
:10179A00D075D000C000C001C002C003C006C00797
:1017AA0090E678E030E206751E0602187490E67834
:1017BA00E020E10CE51E64026006751E070218743B
:1017CA00E51E24FE605F14603624FE70030218656D
:1017DA0024FC700302187124086003021874AB1AFF
:1017EA00AA1BA91CAF1D051D8F82758300120973E0
:1017FA0090E679F0E51D65197070751E05806B908D
:10180A00E679E0AB1AAA1BA91CAE1D8E827583006D
:10181A001209B2751E02E5196401704E90E678E06D
:10182A004420F08045E51924FEB51D0790E678E0CE
:10183A004420F0E51914B51D0A90E678E04440F01A
:10184A00751E0090E679E0AB1AAA1BA91CAE1D8E84
:10185A00827583001209B2051D800F90E678E04474
:10186A0040F0751E008003751E005391DFD007D02B
:10187A0006D003D002D001D000D0D0D086D084D0F8
:08188A0085D082D083D0E0324A
:022D2100A90700
:102D2300AE60AF618F828E83A3E064037017AD0141
:102D330019ED7001228F828E83E07C002FFDEC3E23
:092D4300FEAF0580DF7E007F0079
:012D4C002264
:102F7800122B3EE51E24FA600E146006240770F337
:0C2F8800D322E4F51ED322E4F51ED32270
:102F9400122BA4E51E24FA600E146006240770F3B5
:0C2FA400D322E4F51ED322E4F51ED32254
:1027CB008E2D8F2E90E600E054187012E52E24010A
:1027DB00FFE4352DC313F52DEF13F52E801590E681
:1027EB0000E05418FFBF100BE52E25E0F52EE52D6C
:1027FB0033F52DE52E152EAE2D7002152D4E6005E1
:06280B00122E2880EE22CF
:03004300021C009C
:03005300021C008C
:101C0000022D4D00022F0100022EE200022E3900AB
:101C1000022BD600022C07000231DB000231DC006F
:101C20000231DD000231DE000231DF000231E0006E
:101C30000231E1000231E2000212DF000231E30072
:101C40000231E4000231DC000231E5000231E6003D
:101C50000231E7000231E8000231E9000231EA0016
:101C60000231EB000231DC000231DC000231DC0029
:101C70000231EC000231ED000231EE000231EF00E2
:101C80000231F0000231F1000231F2000231F300C2
:101C90000231F4000231F5000231F6000231F700A2
:101CA0000231F8000231F9000231FA000231FB0082
:081CB0000231FC000231FD00CD
:10074100020945E86480F8E933E83360110460F098
:10075100ED33EC337009E8FCE9FDEAFEEBFF22041E
:1007610060DED3EB9FEA9EE99DE8C2E78CF0C2F719
:1007710095F0400CE8CCF8E9CDF9EACEFAEBCFFBE5
:1007810012091085D0F05804700320D5B3E8047025
:10079100075002B2D502094F92D5EC0460F7E4CCC0
:1007A100C0E0C398F8603B94186008400DD0E0FBAE
:1007B100020927E4FBFAC9FC8028E830E406E4C911
:1007C100FBE4CAFCE830E305E4C9CACBFCE8540702
:1007D1006010F8C3E913F9EA13FAEB13FBEC13FC0D
:1007E100D8F130F52FC3E49CFCEF9BFFEE9AFEEDB0
:1007F10099FDD0E0FBEF4E4D4C701222DB03020954
:100801004CEC2CFCEF33FFEE33FEED33FDED30E726
:10081100EB020927EF2BFFEE3AFEED39FDD0E0FBAD
:1008210050130BBB000302094FED13FDEE13FEEF56
:0808310013FFEC13FC02092780
:1008390002094FEC5D046005E8590470030209459B
:10084900120910580460F6EC4860F2EC7004FDFEE1
:10085900FF22C860DB2481C85009C3986002500692
:1008690002094C9850CAF582E9294B4A7005AB82B6
:1008790002093B75F0007C1A7880C3EF9BEE9AED74
:1008890099400DC3EF9BFFEE9AFEED99FDE842F00A
:10089900DC23ACF0D0E0FFD0E0FED0E0FDAB82205D
:1008A900E7101BEB60BAEC2CFCEF33FFEE33FEEDE7
:1008B90033FD020927E803F830E705C0F075F000B9
:1008C900EF2FFFEE33FEED33FD40B830E7C280AACB
:1008D900EDD2E7CD33EC3392D524814006E4FFFE17
:1008E900FDFC22FCE4CFCECDCC24E0501174FF8076
:1008F900EDC3CC13CCCD13CDCE13CECF13CF047013
:07090900F030D5DE020A29DF
:10091000E9D2E7C933E833F892D5EDD2E7CD33EC2D
:0709200033FC5002B2D522A6
:10092700EC30E7100FBF000C0EBE00080DBD000431
:100937000BEB6014A2D5EB13FCED92E7FD2274FFDD
:10094700FCFDFEFF22E480F8A2D574FF13FC7D8036
:03095700E480EF4A
:03000000021F1EBE
:0C1F1E00787FE4F6D8FD75816E021F6527
:10095A00BB010689828A83E0225002E722BBFE029B
:09096A00E32289828A83E49322CE
:10097300BB010CE58229F582E5833AF583E0225039
:1009830006E92582F8E622BBFE06E92582F8E22283
:0D099300E58229F582E5833AF583E493229D
:1009A000BB010689828A83F0225002F722BBFE0136
:0209B000F32230
:1009B200F8BB010DE58229F582E5833AF583E8F07B
:1009C200225006E92582C8F622BBFE05E92582C827
:0209D200F2220F
:1009D400BC000BBE0029EF8DF084FFADF022E4CC07
:1009E400F875F008EF2FFFEE33FEEC33FCEE9DECD0
:1009F400984005FCEE9DFE0FD5F0E9E4CEFD22ED16
:100A0400F8F5F0EE8420D21CFEADF075F008EF2F5F
:100A1400FFED33FD4007985006D5F0F222C398FD50
:050A24000FD5F0EA22ED
:0E0A2900C3E49FFFE49EFEE49DFDE49CFC22DE
:100A3700E86010ECA2E713FCED13FDEE13FEEF13D5
:040A4700FFD8F022C2
:100A4B00E8600FEFC333FFEE33FEED33FDEC33FC09
:030A5B00D8F122AD
:100A5E00D083D082F8E4937012740193700DA3A327
:100A6E0093F8740193F5828883E47374029368603B
:060A7E00EFA3A3A380DF3B
:100A8400D083D082F8E4937012740193700DA3A301
:100A940093F8740193F5828883E473740293B5F038
:0D0AA400067403936860E9A3A3A3A380D8A0
:101BAE008B498A4A894BE4F551F552E5501550AEF2
:101BBE004F7002154F4E6033AB4CAA4DA94E120911
:101BCE005AFFAB49AA4AA94B0552E552AC517002D5
:101BDE00055114F5828C83EF1209B2EF60CD7401BA
:101BEE00254EF54EE4354DF54D80C0AB49AA4AA9B8
:021BFE004B2278
:1030C400E4FFFE12095A600C0FEF70010E09E9705B
:0530D400F20A80EF226A
:100AB100EF4E6012EF60010EEDBB010B89828A835C
:100AC100F0A3DFFCDEFA2289F05007F709DFFCA969
:0C0AD100F022BBFEFCF309DFFCA9F022C0
:101F2A00021E90E493A3F8E493A34003F68001F21F
:101F3A0008DFF48029E493A3F85407240CC8C333B8
:101F4A00C4540F4420C8834004F456800146F6DF87
:101F5A00E4800B0102040810204080902573E47E7F
:101F6A00019360BCA3FF543F30E509541FFEE4937C
:101F7A00A360010ECF54C025E060A840B8E493A343
:101F8A00FAE493A3F8E493A3C8C582C8CAC583CA6E
:101F9A00F0A3C8C582C8CAC583CADFE9DEE780BE26
:0125C3000017
:00000001FF
