:1001000012010002000000400516108001000102EB
:020110000001EC
:0A0114000A0600020000004001008E
:1001200009022000010100A0FA0904000002FF00FA
:100130000000070502020002000705860200020017
:1001420009022000010100A0FA0904000002FF00D8
:10015200000007050102400000070581024000007F
:100164001403000000000000000000000000000074
:1001740000000000260341004300430045005300F3
:10018400200049002F004F002000500072006F0033
:100194006400750063007400730026035500530067
:1001A40042002D004900440049004F002D00310059
:1001B40036002000460061006D0069006C00790083
:1001C40000008081828384858687909192939495A0
:1001D4009697A0A1A2A3A4A5A6A7B0B1B2B3B4B5A3
:1001E400B6B7C0D0C0E0EF9001C6939001FDF0ED2A
:1001F4009001C6939001FFF0A2009200D0E0D0D00D
:1002040022C0D0C0E0EF9001C69390021CF0ED90A4
:1002140001C69390021FF0A200B39200D0E0D0D0A8
:0102240022B7
:100056005553422D4949524F2D3136005553422DA5
:1000660049492D3136005553422D524F2D31360018
:100076005553422D4949524F2D38005553422D496B
:10008600492D38005553422D4949524F2D303400E1
:100096005553422D4944494F2D3136005553422D73
:1000A60049492D31362D4F454D005553422D494472
:1000B6004F2D3136005553422D4944494F2D3800B6
:1000C6005553422D49492D382D4F454D0055534224
:1000D6002D4944494F2D34005553422D49492D345D
:1000E6002D4F454D005553422D49492D4F544845F6
:0200F6005200B6
:101C410090E740E580F0A3E590F0A3E5A0F0A3E5DF
:101C5100B0F0E42290E68AF090E6BEE090E68BF0E8
:081C610090E6A0E04480F022AF
:04002E0043B1402278
:0400460053B1BF22D1
:04004E0063B1402238
:071F8E0053B1F543B10A2233
:1017E800EF5407FE7401A806088002C333D8FCFE34
:1017F800EF131313541FFFED6011EF14600804700A
:101808001BEE42808016EE42908011EF14600904AE
:0F181800700AEEF452808004EEF45290021F8E9C
:1018A300EF54F824F8601024F8601024F860102432
:1018B30018700EAE80800AAE908006AEA08002AE95
:1018C300B0EF5407FF7401A807088002C333D8FCA4
:0B18D3005206EE60047F0180027F00DF
:0118DE0022E7
:10000E00E580120484900001E5901204969000029F
:0D001E00E5A0120496900003E5B0020496E0
:101E640012043E90205EF0F5809000011204579019
:081E7400205FF0F590021F8EC3
:101BC200902006E06003121493902008E060031254
:101BD200175690201AE0600312170590205CE0600F
:0B1BE2000990201BE060031216612236
:0100320022AB
:031FA100020F2903
:01004A002293
:01005200228B
:011FB9002205
:100F29007AE779407F40AB077D017F037E00121984
:100F39009090E740E0541FF51F90010AE0451FF02B
:100F4900E51F540FB410004003020FF4900F5CF832
:100F5900282873020F8C020F94020F9C020FF402CF
:100F69000FA4020FAC020FB4020FF4020FBC020F60
:100F7900C4020FCC020FF4020FD4020FDC020FE4FB
:100F8900020FEC7BFF7A00795680667BFF7A007945
:100F990062805E7BFF7A00796C80567BFF7A0079EC
:100FA90076804E7BFF7A00798180467BFF7A0079D3
:100FB9008A803E7BFF7A00799680367BFF7A0079BA
:100FC900A2802E7BFF7A0079B080267BFF7A007998
:100FD900BB801E7BFF7A0079C680167BFF7A007979
:100FE900D3800E7BFF7A0079DE80067BFF7A007959
:050FF900EB12160A22B4
:091F590090205D74FFF0A3F0225A
:101D150090205DE0F580A3E0F59075B2FF75B3FF07
:0E1D2500E4F5B4F5B575B18A75B67F021F8E70
:101F0C008F248D253006030201E6AD25AF24120285
:021F1C0005229C
:011FBA002204
:031FA400021F8E8B
:091F620090206174FFF0A3F0224D
:0D003600902061E0F580A3E0F590021F8EA0
:1018DF0090E6B8E030E707121C41121C552290E643
:1018EF00BEE0D394004024E090E68BF090E6A0E0B9
:1018FF0020E1F990E740E090205DF0F58090E7411E
:0C190F00E0FF90205EF0F590121F8E2289
:101BED00D204120D0C402290E6B9E024D0600C1402
:101BFD006009241F70111218DF800E121C4190E62F
:0B1C0D00BAF0121C558002D322C32243
:101E3000564D617920323220323032304030383ADB
:0B1E400035353A353600000000000088
:101EA90002151E4702080000010F01010C01010A79
:041EB900010112FF12
:100A8F00E0FFAE30053074402EF582E434E7F58395
:100A9F0022E490E68AF090E6BEE090E68BF022909A
:100AAF00E740F0E490E68AF090E68B22E0FE74894E
:100ABF002FF582E43420F583E022FF7444252BF5D3
:100ACF0082E434E7F583EFF0052BE52B22FF7E0060
:100ADF000DEE2516F582E43515F583222530F53018
:100AEF00E533352FF52FC3E5329534F532E53195E2
:100AFF0033F5312274402536F58274E73535F583A9
:100B0F002224617C007B01F9EC22E4902097F0A372
:100B1F00F0F517F51822E52125E0240AF582E434D3
:100B2F0020F583E0FE547FFFEE227493252BF58290
:100B3F00E43420F583225391EF90E65D2274692F00
:100B4F00F582E43420F5832274652EF582E4342097
:100B5F00F583E0227D657A207B007F017E1F229046
:100B6F00E6BEE0640122C3E5369534E535953322C0
:100B7F00748F2FF582E43420F5832290E6BEE06473
:100B8F000222F583EFF090E741E0FFEE25E022E54A
:100B9F00302536F582E52F3535F58322854044859E
:100BAF0041458548468549472285484485494585BD
:100BBF0040468541472290E6A0E04480F022AD34C4
:100BCF007AE77B40AF30AE2F22902000740AF0E41A
:100BDF00A3F0227C007B01F9EC227B017AE77940BC
:010BEF0022E3
:101E4B00902003E0FF7006902002E06008902002D3
:091E5B00E0FD021D8B121FAA22FA
:101DDF007E007F657D007B017A20790012056E12EF
:0B1DEF000BD8121F59121D15021F1EF9
:101CF5007D02120B65121990902000E0B40A04A32E
:101D0500E06003021DDF120B63121990121D1522EC
:101F1E00120BD8120B63121A6D7D657F007E1F02A5
:021F2E001FA7EB
:1014F600121E4B90E6BEE0F532753402E532604BC3
:10150600C3944050058532338003753340120AB2C6
:10151600E533F090E6A0E020E1F9E4F531E531C3EA
:101526009533501E74402531120A98E0FFAE3405FB
:1015360034EE2400120B123420FAEF120484053123
:0E15460080DBC3E5329533F53280B1021E4BD7
:10140B0090E6B8E030E733E4F530F52FE52FC394E1
:10141B000450207E007B01745D252FF9EE3420FAF9
:10142B0012043EFF74402530120A98EFF0052F0589
:10143B003080D9120AA0120BC522120AA590E6A081
:10144B00E020E1F990E6BEE064046003C20422E40C
:10145B00F52FF530E52FC39404501D744025301241
:10146B000A98E0FFE52F245D120BE23420FAEF120D
:10147B000484052F053080DC90E6BAE0B4CE08A3D7
:07148B00E0B4AC03121F1EC8
:011492002237
:0F1F4000D3E518950EE517950D4003121F6B2280
:011FBB002203
:101C8E00902005E0FE902004E07C002400F50EEC90
:101C9E003EF50D450E7007C28CC2A9C20522D28C2C
:031CAE00D2A92296
:011FBC002202
:10195600120AA590E6A0E020E1F9E4FF74422FF513
:1019660082E434E7F583E0FEEF120B103420FAEE42
:101976001204840FBF04E590E740E0902004F09045
:0A198600E741E0902005F0021C8EFE
:091F6B00120036120B19D20522F6
:101E7C00C205120B19C28CC2A9538EF75389F143B8
:081E8C008901121FBC021C8E2B
:101A0100E50945086019E50915097002150814C3AF
:101A110094FFE508648094805016120046801130CE
:101A2100040E7508057509FF12002EC204120B1968
:051A3100300502D204A3
:011A3600228D
:100FFE0090E6B8E030E75CE4F530902004120A8FFA
:10100E00EFF0902005120A8FEFF0E4F52FE52FC3D5
:10101E00940450207E007B017461252FF9EE34205C
:10102E00FA12043EFF74402530120A98EFF0052F95
:10103E00053080D9120A91E518F0E517120A90EFE3
:10104E00F0A205E433120A90EFF0C205120AA012C4
:10105E000BC522120AA590E6A0E020E1F9C2059088
:10106E00E6BEE064066003C20422E4F530AF30054C
:10107E003074402F120A98E0902004F0AF30053003
:10108E0074402F120A98E0902005F0E4F52FE52F1A
:10109E00C39404501B74402530120A98E0FFE52FCC
:1010AE00120B103420FAEF120484052F053080DE67
:1010BE00121C8E90E6BAE0B4CE08A3E0B4AC0312D4
:0210CE001F1EE3
:0110D00022FD
:041F9500750F0122A1
:10155400121E4B90E6BEE0F532E4F534E532604B02
:10156400C3944050058532338003753340120AB268
:10157400E533F090E6A0E020E1F9E4F531E531C38C
:101584009533501E74402531120A98E0FFAE34059D
:1015940034EE241B120BE23420FAEF1204840531DA
:0B15A40080DBC3E5329533F53280B1E7
:0115AF002219
:10166100150FE50F704B90201BE0F50F121FBAE428
:10167100F52190205CE0FFE521C39F5031E5212554
:10168100E0241CF582E43420F583E0F522E52125F0
:10169100E0241DF582E43420F583E0F523547FFD39
:1016A100E523339206AF22121F0C052180C4121FBD
:0116B100A494
:0116B2002215
:101DFA00120AA590E6A0E020E1F990E740E09020E1
:0B1E0A0006F090E741E0902007F02276
:10149300150CE50C705C902006E0F50C7B017A20BE
:1014A300799912000EE4FFFE74992EF582E434203C
:1014B300F583E0FD120B576DF97D01E4FCECC39459
:1014C300085029E95D6013120B4CE014F0120B4C29
:1014D300E07011120B576DF08000902007E0FB12B3
:1014E3000B4CEBF00CED25E0FD0F80D10EEE640408
:0214F30070B6D1
:0114F50022D4
:101ED300120AA590E6A0E020E1F990E740E0902007
:031EE30008F022E2
:101D3300E4F513FF120ABDFE74932F120B3DEEF070
:0D1D4300120ABDFE120B7FEEF00FBF04E789
:011D50002270
:10175600150AE50A7045902008E0F50A7B017A2013
:10176600798912000EE4FF74932F120B3DC083C0DB
:1017760082120ABBFDEE5DD082D083F0120B7FC0D1
:1017860083C082120ABBFDEE4DD082D083F00FBF1C
:0B17960004D5E513C394FF50020513B7
:0117A1002225
:041F99007512FF229C
:10170500E4F5210512F52190201AE0FFE521C39F9C
:101715005034E52125E0240BF582E43420F583E0FF
:10172500C39512500E120B2530E7047D0080107D05
:1017350001800C120B2530E7047D0180027D00122B
:1017450017E8052180C1902009E0B51203E4F512E0
:011755002271
:101C1800120AA590E6A0E020E1F9E4FF74402F1233
:101C28000A98E0FEEF7C007B012409F9EC3420FAE5
:081C3800EE1204840FBF12E458
:011C40002281
:041263008E318F3207
:10126700E4F533E53264024531700C90E741F0E56F
:1012770032153270021531E5326401453170109034
:10128700E7407465120AA4E532153270021531E59C
:10129700324531605490E6A0E020E1F9C3E532948D
:1012A70040E53194005004AD3280027D40E4FFEF09
:1012B700C39D5021AE330533EE7583007B012400B7
:1012C700F9E5833420FA12043EFE74402F120A987F
:1012D700EEF00F80DA120AB2EDF0FFC3E5329FF5A8
:0912E70032E5319400F53180A6D6
:0112F00022DB
:10059A0090E6B8E030E76090E6BFE0FE90E6BEE0A5
:1005AA00FDEDFF4E7002804A90E6BDE0FD90E6BC8C
:1005BA00E04D700302126390E6BDE060030208E4B6
:1005CA0090E6BCE01460030208E47534FF75351E3A
:1005DA0075363075370075381E7B017AE779411216
:1005EA0016B3120BE9121EBEEF0490E740F090E634
:1005FA00BEE090E68BF02290E6BFE0FF90E6BEE018
:10060A004F707790E6BDE0704D90E6BCE024EF6055
:10061A0023249F603024FD603324F36034247270F5
:10062A003590E6BAE064CE702DA3E064AC70271270
:10063A001F1E802290E6BAE0B4CE1BA3E0B4AC162B
:10064A00121DDF8011E490201AF0800A7512FF80D3
:10065A0005E490205CF090E6BDE064806003020847
:10066A00E490E6BCE0640160030208E490E6BAE0C4
:10067A00902002F090E6BB02074390E6BFE06003D9
:10068A000208E490E6BDE0FE90E6BCE07C002400AF
:10069A00FFEC3EFEEF8EF012054106EC002006EC60
:1006AA00002106EC002206EC00230721002F074B4D
:1006BA000041075900510764005307810061078C04
:1006CA00006307A9007107B7007307D400740819FB
:1006DA0000810827008308440084088A80010000FA
:1006EA0008E490E6BEE0B463031214F690E6BCE0B8
:1006FA0030E003121D1590E6BCE020E1030208E495
:10070A0090E6BAE064CE60030208E4A3E064AC6059
:10071A00030208E4021F1E120B8A60030208E4E0C7
:10072A0090E68BF090E6A0E020E1F9121E4B90E7EC
:10073A0040E0902002F090E741E0902003F00208A8
:10074A00E190E6BEE0640660030208E4021956126C
:10075A000B8A60030208E4021DFA120B6E600302A0
:10076A0008E4E090E68BF090E6A0E020E1F990E75B
:10077A0040E0902006F022120B6E60030208E402A9
:10078A001ED3120B6E60030208E4E090E68BF09031
:10079A00E6A0E020E1F990E740E0902008F02290FE
:1007AA00E6BEE0641260030208E4021C18120B6E33
:1007BA0060030208E4E090E68BF090E6A0E020E116
:1007CA00F990E740E0902009F022120B8A600302B8
:1007DA0008E490201AE0C3940840030208E4120ACD
:1007EA00A590E6A0E020E1F990E740E0FF90201A0A
:1007FA00E0FE25E02408F582E43420120B91240956
:10080A00F582E43420F583EFF090201A02088690EE
:10081A00E6BEE0644260030208E4021554120B6E5D
:10082A0060030208E4E090E68BF090E6A0E020E1A5
:10083A00F990E740E090201BF022120B8A60030235
:10084A0008E490205CE0C3942040030208E4120A02
:10085A00A590E6A0E020E1F990E740E0FF90205C57
:10086A00E0FE25E0241AF582E43420120B91241BC1
:10087A00F582E43420F583EFF090205CE004F02266
:10088A00120AA590E6A0E020E1F990E6BEE0B404E1
:10089A002290E740E0F8A3E0F9A3E0FAA3E0FB7FA7
:1008AA00007E1B7D377C4B1203201203BD8E2F8FD7
:1008BA0030801390E6BBE0FE90E6BAE07C002400AC
:1008CA00F530EC3EF52FC3E49530FDE4952FFCEDB1
:0A08DA00902002F0ECA3F0121E4B78
:0108E40022F1
:101E150090E6047480F00000007402F00000007485
:0B1E250006F0000000E4F000000022C6
:011FBD002201
:10191B00E4F52A7AE779407F40AB077D087FF87EB4
:10192B001D121990E4F52A7440252A120A98E0FD3D
:10193B00E52A75F002A42466F9740135F08982F565
:0A194B0083EDF0052AE52AB408DD5B
:01195500226F
:1018270090E678E05410FFC4540F4450F51013E4C9
:1018370033F514438E20121FAA120032121F86128C
:10184700191B121FA1D200121CF5121E7C121F9524
:0F185700121D33121F99121E4B12004602004A37
:101D5100120052121A01121F40E5B190E68020E7ED
:0E1D610006E04408F08004E054F7F0021FB9D9
:06160A008B2A8A2B892CBB
:10161000E4F52D121EBE8F2EE52E25E0240290014A
:101620009EF0E4F52DAF2EEF3395E0FEC3E52D9F40
:10163000EE6480F87480985027AB2AAA2BA92C85D9
:101640002D82758300120457FDE52D75F002A42448
:10165000A0F9740135F08982F583EDF0052D80C580
:011660002267
:0619C9008E3D8F3EAC05CF
:1019CF00E4FDE5146007E53D120ADCEFF0AE050D0E
:1019DF00E5162E120AE3E53EF0AF050DE5162F12C0
:1019EF000AE3ECF0AB16AA15AF10121DC3AF10022D
:0219FF001A3795
:031FA7000219C953
:0A1A6D008E378F388D398A3A8B3B93
:101A7700E4F53CE53CC3953950200538E538AE37E9
:101A87007002053714FFE53B253CF582E4353AF54E
:0A1A970083E0FD121FA7053C80D973
:011AA1002222
:0A1990008E378F388D398A3A8B3B71
:10199A00E4FDF53CE5146007E537120ADCEFF0AE2A
:1019AA00050DE5162E120AE3E538F0AB16AA15AFB7
:0F19BA0010121DC3AB3BAA3AAD39AF10021DA7E7
:100BF00090E6BAE0752F00F530A3E0FEEE422F90AC
:100C0000E6BEE0753100F532A3E0FEEE423190E63B
:100C1000B8E064C06003020CB6E5324531700302EF
:100C20000D0B90E6A0E020E1F9C3E5329440E531F8
:100C30009400500885313385323480067533007551
:100C4000344090E6B9E064A3704090E6BCE0B401A3
:100C50001BA3E0701790E6BBE030E71090E740740C
:100C600003F0A37401F0A37403F0803EE4F535F5BE
:100C700036120B755034120B9EE0FF120B03EFF08F
:100C80000536E53670EB053580E7E4F535F53612C7
:100C90000B755010120B0374CDF00536E53670EF6E
:100CA000053580EB120BCD121990120AB2E534F023
:100CB000120AEB020C1990E6B8E06440704DE53280
:100CC00045316047120AB2F090E6A0E020E1F990C9
:100CD000E68BE0753300F53490E6B9E0B4A31EE48A
:100CE000F535F536120B75501A120B03E0FF120B97
:100CF0009EEFF00536E53670EB053580E7120BCD3B
:0B0D0000121A6DE534120AEB020CBE63
:010D0B0022C5
:021FAD00C3224D
:021FAF00D3223B
:021FB100D32239
:0800030090E6BAE0F50BD322F0
:091F7400E50B120AAE04F0D322C1
:0800F80090E6BAE0F511D322F5
:091F7D00E511120AAE04F0D322B2
:021FB300D32237
:021FB500D32235
:021FB700D32233
:1011B800E4FF90E6B8E020E7030212620F0F7440E4
:1011C8002401120A98740AF00F74402402120A9833
:1011D800E4F00F74402403120A98E4F00F744024DA
:1011E80004120A98E4F00F74402405120A98740453
:1011F800F00F74402406120A98E4F00F7440240794
:10120800120A98E4F00F74402408120A9874FFF048
:101218000F74402409120A9874FFF00F7440240ACE
:10122800120A987408F00F7440240B120A9874205C
:10123800F00F7440240C120A98740FF00F744024B5
:101248000D120A98741FF00F7440240E120A987435
:0A12580001F090E740EFF0120AA049
:011262002269
:100D0C0090E6B9E012051B0D53100D53110D8C1408
:100D1C000DFD150D41280D3B2E0D353C0D4D3F0D98
:100D2C0047A20D47A300000E1D12059A020E1F12BA
:100D3C000FFE020E1F12140B020E1F120BF0020EEE
:100D4C001F1211B8020E1F90E6B8E030E709120B23
:100D5C00E912000E020E1590E6BEE0701090E6BC93
:100D6C00E0FF90E6BAE0FD1217E8020E1F120AA58A
:100D7C0090E6A0E020E1F9120BE9121E64020E1FAE
:100D8C00C2AF90E750E513F0E4F5137B017AE779F5
:100D9C004C12000EE4F52B7489252B120AC0FF743B
:100DAC0040252B120A98120AD5B404EB90E6BCE04D
:100DBC006010E4F52B120B39E0F4120AC9B404F5F7
:100DCC00800DE4F52B120B39E0120AC9B404F6E4D9
:100DDC00F52B748F252B120B82E0FF7448252BF515
:100DEC0082E434E7120AD3B404E8121D33D2AF8084
:100DFC0018E4F52B7465252B120B5AFF7440252B28
:100E0C00120A98120AD5B404EB120AA0120BC58070
:040E1C0002C322D318
:010E200022AF
:101D6F00C0E0C083C08290E6B5E04401F0D201121A
:0C1D7F000B457401F0D082D083D0E0321C
:101EE600C0E0C083C082120B457404F0D082D08358
:031EF600D0E03207
:101EF900C0E0C083C082120B457402F0D082D08347
:031F0900D0E032F3
:101CB100C0E0C083C08290E680E030E705120BAB44
:101CC1008003120BB8120B457410F0D082D083D070
:021CD100E032FF
:101E9400C0E0C083C082D203120B457408F0D08224
:051EA400D083D0E03204
:101CD300C0E0C083C08290E680E030E705120BAB22
:101CE3008003120BB8120B457420F0D082D083D03E
:021CF300E032DD
:011FBE0032F0
:011FBF0032EF
:011FC00032EE
:011FC10032ED
:011FC20032EC
:011FC30032EB
:011FC40032EA
:011FC50032E9
:011FC60032E8
:011FC70032E7
:011FC80032E6
:011FC90032E5
:011FCA0032E4
:011FCB0032E3
:011FCC0032E2
:011FCD0032E1
:011FCE0032E0
:011FCF0032DF
:011FD00032DE
:011FD10032DD
:011FD20032DC
:011FD30032DB
:011FD40032DA
:011FD50032D9
:011FD60032D8
:011FD70032D7
:011FD80032D6
:011FD90032D5
:011FDA0032D4
:011FDB0032D3
:011FDC0032D2
:011FDD0032D1
:011FDE0032D0
:011FDF0032CF
:011FE00032CE
:011FE10032CD
:0A1F4F00000102020303040405056B
:101B0800EC4EFEED4F244FF582741F3EF583E493AF
:101B1800FF3395E0FEEF24A1FFEE34E68F82F583D4
:101B28002290E6BCE0547EFF7E00E0D394807C00E7
:011B3800228A
:03000B000215B02B
:1015B000C0E0C0F0C083C082C0D075D000C000C001
:1015C00004C005C006C007053FE53FB4062705185F
:1015D000E51870020517AE17FF7C007D0A1204B8EB
:1015E000ED4C700E902098E004F07006902097E08B
:1015F00004F0753F00D007D006D005D004D000D04D
:0A160000D0D082D083D0F0D0E032C9
:1012F100E4F529F528F527F526C203C200C202C28A
:1013010001121827754201754300754A01754B1486
:10131100754001754120754801754942754C01754B
:101321004D64D2E843D82090E668E04409F090E6A5
:101331005CE0443DF0D2AFD2071210D190E680E0DC
:1013410054F7F0C2033001051208E5C20130032948
:10135100121FAD5024C203121C6920001690E682B0
:10136100E030E704E020E1EF90E682E030E604E0DF
:0E13710020E0E4121B6A121FAF121D5180C74C
:1008E50090E6B9E070030209961470030209EA2440
:1008F500FE7003020A4424FB70030209901470037E
:1009050002098A14607314607624056003020A7B69
:10091500121FB14003020A8790E6BBE024FE602265
:1009250014603324FD601114602224067048E542EA
:1009350090E6B3F0E5438037E54A90E6B3F0E54B42
:10094500802DE54490E6B3F0E5458023E54690E645
:10095500B3F0E547801990E6BAE0FF121B96AA06A8
:10096500A9077B01EA494B600DEE90E6B3F0EF90E5
:10097500E6B4F0020A87020A80121F7D020A871276
:1009850000F8020A87120003020A87121F74020A7E
:1009950087121FB34003020A8790E6B8E0247F6000
:1009A500151460192402703AA200E43325E0FFA271
:1009B50002E4334F8018E490E740F08016121B29BB
:1009C50040047D0180027D00121B08E0540190E780
:1009D50040F0E4A3F090E68AF090E68B7402F00212
:1009E5000A87020A80121FB54003020A8790E6B8FB
:1009F500E024FE601624026003020A8790E6BAE04E
:100A0500B40105C200020A87020A8090E6BAE070C6
:100A15002C121B2940047D0180027D00121B08E079
:100A250054FEF090E6BCE05480131313541FFFE00E
:100A3500540F2F90E683F0E04420F08045803C126F
:100A45001FB7503E90E6B8E024FE601A24027032CB
:100A550090E6BAE0B40104D200802790E6BAE0B48B
:100A65000202801E8015121B2940047D0180027D33
:100A750000121B088008121BED500790E6A0E04409
:090A850001F090E6A0E04480F0CD
:010A8E002245
:03003300021F9D0C
:041F9D0053D8EF32F4
:101D8B00E4F5C8E58E54074438F58E8FCB8FCDAF75
:0C1D9B00058FCA8FCCD2BDD2ADD2CA22B7
:101B3900AB07AA06A905A8047F007E1B7D377C4B4D
:101B4900120320AB07AA06A905A804E4FFFE7D80BD
:101B59007C471202281203BDAD07AC06AF04021D73
:011B69008BF0
:101F3000AD07AC06C3E49DFBE49CFFEBFD021D8BEB
:031FAA00C2CA2286
:03002B0002186652
:10186600C0E0C0F0C083C082C0D075D000C000C048
:1018760001C002C003C004C005C006C007121BC2D7
:10188600C2CFD007D006D005D004D003D002D001F5
:0D189600D000D0D0D082D083D0F0D0E0328E
:101B6A0090E682E030E004E020E60B90E682E03086
:101B7A00E119E030E71590E680E04401F07F147E39
:0C1B8A00001217A290E680E054FEF0224A
:101C690090E682E044C0F090E681F04387010000ED
:041C79000000002245
:1010D10030070990E680E0440AF0800790E680E05E
:1010E1004408F07FDC7E051217A290E65D74FFF0E4
:0F10F10090E65FF05391EF90E680E054F7F02225
:081F8600E4F51ED2E9D2AF22FE
:101A370090E678E020E6F9C2E990E678E04480F0A5
:101A4700EF25E090E679F090E678E030E0F990E66F
:101A570078E04440F090E678E020E6F990E678E018
:061A670030E1D6D2E922B5
:101AD600A90790E678E020E6F9E51E702390E678FF
:101AE600E04480F0E925E090E679F08D19AF03A98E
:101AF60007751A018A1B891CE4F51D751E01D32280
:021B0600C322F8
:101AA200A90790E678E020E6F9E51E702590E67831
:101AB200E04480F0E925E0440190E679F08D19AF29
:101AC20003A907751A018A1B891CE4F51D751E03FB
:041AD200D322C32236
:03004B00020E2181
:100E2100C0E0C083C082C085C084C086758600C012
:100E3100D075D000C000C001C002C003C006C00709
:100E410090E678E030E206751E06020F0B90E67818
:100E5100E020E10CE51E64026006751E07020F0B1F
:100E6100E51E24FE605F14603624FE7003020EFC52
:100E710024FC7003020F0824086003020F0BAB1A55
:100E8100AA1BA91CAF1D051D8F8275830012045773
:100E910090E679F0E51D65197070751E05806B90FF
:100EA100E679E0AB1AAA1BA91CAE1D8E82758300E0
:100EB100120496751E02E5196401704E90E678E001
:100EC1004420F08045E51924FEB51D0790E678E041
:100ED1004420F0E51914B51D0A90E678E04440F08D
:100EE100751E0090E679E0AB1AAA1BA91CAE1D8EF7
:100EF10082758300120496051D800F90E678E04408
:100F010040F0751E008003751E005391DFD007D09D
:100F110006D003D002D001D000D0D0D086D084D06A
:080F210085D082D083D0E032BC
:021B9600A9079D
:101B9800AE4CAF4D8F828E83A3E064037017AD0106
:101BA80019ED7001228F828E83E07C002FFDEC3EC0
:091BB800FEAF0580DF7E007F0016
:011BC1002201
:101DA700121AA2E51E24FA600E146006240770F3C7
:0C1DB700D322E4F51ED322E4F51ED32253
:101DC300121AD6E51E24FA600E146006240770F377
:0C1DD300D322E4F51ED322E4F51ED32237
:1017A2008E2A8F2B90E600E054187012E52B24014C
:1017B200FFE4352AC313F52AEF13F52B801590E6C3
:1017C20000E05418FFBF100BE52B25E0F52BE52AAE
:1017D20033F52AE52B152BAE2A7002152A4E600529
:0617E200121C7D80EE22C6
:101C7D007400F58690FDA57C05A3E582458370F97A
:011C8D002234
:03004300021100A7
:0300530002110097
:10110000021D6F00021EF900021EE600021E94007E
:10111000021CB100021CD300021FBE00021FBF0050
:10112000021FC000021FC100021FC200021FC30035
:10113000021FC400021FC500021FC600021FC70015
:10114000021FC800021FBF00021FC900021FCA0001
:10115000021FCB00021FCC00021FCD00021FCE00D9
:10116000021FCF00021FBF00021FBF00021FBF00EF
:10117000021FD000021FD100021FD200021FD300A5
:10118000021FD400021FD500021FD600021FD70085
:10119000021FD800021FD900021FDA00021FDB0065
:1011A000021FDC00021FDD00021FDE00021FDF0045
:0811B000021FE000021FE10034
:10022500020429E86480F8E933E83360110460F0DA
:10023500ED33EC337009E8FCE9FDEAFEEBFF22043F
:1002450060DED3EB9FEA9EE99DE8C2E78CF0C2F73A
:1002550095F0400CE8CCF8E9CDF9EACEFAEBCFFB06
:100265001203F485D0F05804700320D5B3E8047068
:10027500075002B2D502043392D5EC0460F7E4CC02
:10028500C0E0C398F8603B94186008400DD0E0FBCF
:1002950002040BE4FBFAC9FC8028E830E406E4C953
:1002A500FBE4CAFCE830E305E4C9CACBFCE8540723
:1002B5006010F8C3E913F9EA13FAEB13FBEC13FC2E
:1002C500D8F130F52FC3E49CFCEF9BFFEE9AFEEDD1
:1002D50099FDD0E0FBEF4E4D4C701222DB0302047A
:1002E50030EC2CFCEF33FFEE33FEED33FDED30E764
:1002F500EB02040BEF2BFFEE3AFEED39FDD0E0FBF0
:1003050050130BBB0003020433ED13FDEE13FEEF98
:0803150013FFEC13FC02040BC2
:10031D00020433EC5D046005E859047003020429FE
:10032D001203F4580460F6EC4860F2EC7004FDFE24
:10033D00FF22C860DB2481C85009C39860025006B3
:10034D000204309850CAF582E9294B4A7005AB82F8
:10035D0002041F75F0007C1A7880C3EF9BEE9AEDB6
:10036D0099400DC3EF9BFFEE9AFEED99FDE842F02B
:10037D00DC23ACF0D0E0FFD0E0FED0E0FDAB82207E
:10038D00E7101BEB60BAEC2CFCEF33FFEE33FEED08
:10039D0033FD02040BE803F830E705C0F075F000FB
:1003AD00EF2FFFEE33FEED33FD40B830E7C280AAEC
:1003BD00EDD2E7CD33EC3392D524814006E4FFFE38
:1003CD00FDFC22FCE4CFCECDCC24E0501174FF8097
:1003DD00EDC3CC13CCCD13CDCE13CECF13CF047034
:0703ED00F030D5DE02050D22
:1003F400E9D2E7C933E833F892D5EDD2E7CD33EC4F
:0704040033FC5002B2D522C7
:10040B00EC30E7100FBF000C0EBE00080DBD000452
:10041B000BEB6014A2D5EB13FCED92E7FD2274FFFE
:10042B00FCFDFEFF22E480F8A2D574FF13FC7D8057
:03043B00E480EF6B
:0300000002137F69
:0C137F00787FE4F6D8FD75814D0213C69E
:10043E00BB010689828A83E0225002E722BBFE02BC
:09044E00E32289828A83E49322EF
:10045700BB010CE58229F582E5833AF583E022505A
:1004670006E92582F8E622BBFE06E92582F8E222A4
:0D047700E58229F582E5833AF583E49322BE
:10048400BB010689828A83F0225002F722BBFE0157
:02049400F32251
:10049600F8BB010DE58229F582E5833AF583E8F09C
:1004A600225006E92582C8F622BBFE05E92582C848
:0204B600F22230
:1004B800BC000BBE0029EF8DF084FFADF022E4CC28
:1004C800F875F008EF2FFFEE33FEEC33FCEE9DECF1
:1004D800984005FCEE9DFE0FD5F0E9E4CEFD22ED37
:1004E800F8F5F0EE8420D21CFEADF075F008EF2F81
:1004F800FFED33FD4007985006D5F0F222C398FD72
:050508000FD5F0EA220E
:0E050D00C3E49FFFE49EFEE49DFDE49CFC22FF
:10051B00D083D082F8E4937012740193700DA3A36F
:10052B0093F8740193F5828883E473740293686083
:06053B00EFA3A3A380DF83
:10054100D083D082F8E4937012740193700DA3A349
:1005510093F8740193F5828883E473740293B5F080
:0D056100067403936860E9A3A3A3A380D8E8
:1016B3008B318A328933E4F539F53AE5381538AE9A
:1016C30037700215374E6033AB34AA35A93612048E
:1016D3003EFFAB31AA32A933053AE53AAC39700281
:1016E300053914F5828C83EF120496EF60CD7401F3
:1016F3002536F536E43535F53580C0AB31AA32A948
:0217030033228F
:101EBE00E4FFFE12043E600C0FEF70010E09E97094
:051ECE00F20A80EF2282
:10056E00EF4E6012EF60010EEDBB010B89828A83A4
:10057E00F0A3DFFCDEFA2289F05007F709DFFCA9B1
:0C058E00F022BBFEFCF309DFFCA9F02208
:10138B000212F1E493A3F8E493A34003F68001F275
:10139B0008DFF48029E493A3F85407240CC8C33363
:1013AB00C4540F4420C8834004F456800146F6DF32
:1013BB00E4800B0102040810204080901EA9E47EFB
:1013CB00019360BCA3FF543F30E509541FFEE49327
:1013DB00A360010ECF54C025E060A840B8E493A3EE
:1013EB00FAE493A3F8E493A3C8C582C8CAC583CA19
:1013FB00F0A3C8C582C8CAC583CADFE9DEE780BED1
:011EBD000024
:00000001FF
