:1023B6005553422D44494F2D313648005553422D31
:1023C6004449313641005553422D444F3136410080
:0C23D6005553422D44494F2D3136410033
:1014D000C107015600015557015708015803422919
:0314E0002B0000DE
:0428AF004380202220
:0428B3005380DF224D
:0428B70063802022F8
:0627FD0053B4F053B23F9B
:07280300908000E555F02272
:0C2824005355BF122803435540022803FF
:062891005355DF0228038D
:0628970043552002280356
:06289D005355EF02280371
:0628A3004355100228035A
:10276E00E55820E1064380025380FB5355F70228BB
:01277E000357
:10277F00E55820E1065380FD4380044355080228A5
:01278F000346
:072875005380EF5358FE22CF
:102666005380F7E55530E3085380FD438004800628
:0A2676004380025380FB5358FD22FD
:07287C0043801043580122C4
:0728830043800E43580222BE
:0C2830005357FE5355FBE4F5B602280395
:0D280A0043570143550412280375B6FF2201
:0C283C005357FD5355FD53B40F02280301
:0D28170043570243550212280343B4F02238
:102737005357FB4357085355FE1227FD43B4014334
:03274700B2C022FB
:1027A1004357045357F74355011227FD43B40E22F3
:0328C7000227A144
:0328CA00022737AB
:0328CD00AFB12286
:0328D0008FB122A3
:07288A00E5A0C4540FFF227A
:0F27D100EF540FC454F0FFE5A0540F4FF5A022B2
:0816F700E5A0540EC313FF220D
:0E27EF00EF540725E0FFE5A054F14FF5A022BE
:0F27B100E58054C0C4135407FFE5A054014FFF47
:0127C00022F6
:10261500EF5406C43354E0FEEF5401FFE580543F08
:0A2625004EF580E5A054FE4FF5A02D
:01262F002288
:100F4700AC07EC1203980F87000F87010F87020F7A
:100F570087030F87040F87050F87060F87070FCDB6
:100F6700080FCD090FCD0A0FCD0B101B10101B1149
:100F7700101B1210691810691910691A000010B7B0
:100F8700ED60201228CDEFFB7A0074017E00A804E3
:100F9700088005C333CE33CED8F9FFEE4AFEEF4BB8
:100FA700FF80201228CDEFFB7A0074017E00A80491
:100FB700088005C333CE33CED8F9F4FFEEF45AFEDA
:100FC700EF5BFF0228D0ED602412288AEFFB7A003E
:100FD700EC24F8FF74017E00A807088005C333CE10
:100FE70033CED8F9FFEE4AFEEF4BFF802412288A52
:100FF700EFFB7A00EC24F8FF74017E00A807088055
:1010070005C333CE33CED8F9F4FFEEF45AFEEF5BC7
:10101700FF0227D1ED60241216F7EFFB7A00EC24CC
:10102700F0FF74017E00A807088005C333CE33CED6
:10103700D8F9FFEE4AFEEF4BFF80241216F7EFFBBD
:101047007A00EC24F0FF74017E00A807088005C32E
:1010570033CE33CED8F9F4FFEEF45AFEEF5BFF023E
:1010670027EFED60241227B1EFFB7A00EC24E8FFAD
:1010770074017E00A807088005C333CE33CED8F9A4
:10108700FFEE4AFEEF4BFF80241227B1EFFB7A00F9
:10109700EC24E8FF74017E00A807088005C333CE5F
:1010A70033CED8F9F4FFEEF45AFEEF5BFF122615A4
:0110B7002216
:1013E900AD07ED12039814290014290114290214D8
:1013F9002903142904142905142906142907144F4B
:1014090008144F09144F0A144F0B14791014791149
:1014190014791214A31814A31914A31A000014CDD3
:101429001228CDEFFB7A0074017E00A8050880051B
:10143900C333CE33CED8F9FFEE5AFEEF5B4E6003CD
:101449007F01227F002212288AEFFB7A00ED24F81F
:10145900FF74017E00A807088005C333CE33CED8B8
:10146900F9FFEE5AFEEF5B4E60037F01227F0022F7
:101479001216F7EFFB7A00ED24F0FF74017E00A845
:1014890007088005C333CE33CED8F9FFEE5AFEEFF5
:101499005B4E60037F01227F00221227B1EFFB7AA6
:1014A90000ED24E8FF74017E00A807088005C33316
:1014B900CE33CED8F9FFEE5AFEEF5B4E60037F01C3
:0714C900227F00227F0022B8
:10243A00120299FF1228D09000011202B2FF12274D
:10244A00D19000021202B2FF1227EF90000312028B
:05245A00B2FF0226158F
:10245F001228CDEF1202DF12288A900001EF12022C
:10246F00F11216F7900002EF1202F11227B190004D
:05247F0003EF0202F171
:1026C90090298A7408F0A374FFF0A3740FF0A3741F
:0726D90007F0A3F0D2042278
:101D930090298AE030E00512280A80031228309047
:101DA300298AE030E105122817800312283C902984
:101DB3008AE030E2051227A1800312273790298A8F
:101DC300E030E3051228CA80031228C790298BE06C
:101DD300FF1228D0A3E0FF1227D1A3E0FF1227EFC1
:0E1DE300A3E0FF122615D20412287502266610
:1026E00090299074FFF0A3740FF0A37407F0A3F087
:0626F000E490298FF022A6
:102171007B017A29799012243A90298FE030E00589
:1021810012280A800312283090298FE030E10512CD
:102191002817800312283C90298FE030E20512278E
:0B21A100A18003122737D204D20522D0
:1016690043B23E1228AF12287C1228831228301266
:10167900283C12273712276E90E61274A0F000005A
:1016890000E490E613F000000090E61474E0F00026
:101699000000E490E615F090E6047480F000000084
:1016A9007402F00000007406F0000000E4F000008D
:1016B9000090E618F00000007411F000000090E6B8
:1016C9001A7409F00000001215AEE490E672F09069
:1016D900E671F000000090E6D204F000000090E608
:0E16E900E204F0D2001228241228AFD204220C
:10190E00200746E5BB30E741E5AB20E13C00000097
:10191E0090E690E0FC00000090E691E0FD000000F3
:10192E00ECC313FCED13FDEC90E6D0F0000000AF1D
:10193E0005EF90E6D1F0000000E4F5BB000000E5F5
:10194E00BB30E7030080F80000300750E5BB30E7FE
:10195E0027E5567023E5AC20E04200000090E6D06B
:10196E007402F0000000E490E6D1F000000075561D
:10197E000175BB0600000022E5BB30E71FE556B43B
:10198E00011A00000090E6AFE06402600690E6B037
:0C199E00E0600690E6487406F0E4F556A0
:0119AA00221A
:0B2848008F2C90E6487406F07FFF2202
:10258900AE07AC053006091213E9EF6401FD8007B7
:0C259900AF061213E9AD07AF04020F47B4
:0116FF0022C8
:0128E50022D0
:0128E60022CF
:0128E70022CE
:0128E80022CD
:101E9D007AE779407F40AB077D017F037E00121FFB
:101EAD004B90E740E0540FF5599017C2E054F045C0
:101EBD0059F0E55924F3601214601714601C2403C3
:101ECD0070217BFF7A2379B680167BFF7A2379C246
:101EDD00800E7BFF7A2379CC80067BFF7A2379D61F
:041EED00121DF122AF
:1007A700E4F526F527D204120DCA5003020A0F906A
:1007B700E6B9E0120398086A12085C130935320893
:1007C700F63408F63508F63607DF7109D8BB09EFA6
:0F07D700BC0952BD00000A0D90E6B8E030E763A0
:1007E600E4F52AF52B7A297B2D7D677F017E1F1282
:1007F6001F4BE4F528F529C3E5299405E52864800F
:10080600948050307B01748A2529F974293528FA99
:10081600120299FF7440252BF58274E7352AF58379
:10082600EFF00529E52970020528052BE52B70C791
:10083600052A80C3E490E68AF090E6BEE090E68B57
:100846000209EC7A297B2D7D677F017E1F121F4BE3
:10085600121D93020A0F90E740E557F0A3E558F002
:10086600E4020943E490E68AF090E6BEE090E68B67
:10087600F090E6A0E020E1F990E744E030E00512D0
:10088600280A800312283090E744E030E105122858
:1008960017800312283C90E744E030E2051227A1B6
:1008A600800312273790E744E030E3051228CA8018
:1008B600031228C790E740E0FF1228D0A3E0FF12FA
:1008C60027D1A3E0FF1227EFA3E0FF12261590E73A
:1008D60045E030E00512287C800312287590E74534
:1008E600E030E106122883020A0F122666020A0F7A
:1008F60012282490E6047480F00000007402F000D0
:1009060000007406F0000000E4F000000090E6919C
:100916007480F0000000F0000000F0000000F0001D
:100926000000E490E68AF090E68B04F0020A0FE4F9
:10093600FF12284890E740EFF090E6BFE090E68A85
:10094600F090E6BEE090E68BF0020A0FE490E68AAD
:10095600F090E6BEE090E68BF090E6A0E020E1F9AC
:1009660090E741E090292BF090E742E090292CF0A7
:1009760090E740E030E00C12289D90292CE04403DB
:10098600F0800A1228A390292CE04402F07A297BF1
:100996002B7D027F171225C190E743E090292BF0AB
:1009A60090E744E090292CF090E740E030E10C120B
:1009B600289190292CE04403F0800A122897902968
:1009C6002CE04402F07A297B2B7D027F161225C18A
:1009D600802CC20712277F90E6F574FFF0E490E6BC
:1009E6008AF090E68B04F08015D20712276E90E607
:1009F600F574FFF0E490E68AF090E68B04F090E65A
:0A0A0600A0E04480F08002D322C378
:010A100022C3
:1017B800120100020000004005160F80000001021F
:0C17C80000010A060002000000400100C1
:1017D4000902200001010080320904000002FF0018
:1017E400000007050202000200070586020002004D
:1017F40009022E0001010080320904000004FF00E8
:101804000000070502024000000705040240000032
:0E18140007058602400000070588024000001C
:10182200140300000000000000000000000000009F
:10183200000000000C034100430043004500530038
:1018420024035500530042002D00440049004F007C
:101852002D003100360041000000000000000000B1
:0618620000000000000080
:1014E3006080288001010101010101070000000063
:1014F30000000000070707070707070700000000B1
:101503000000003F0101010101010107000000008B
:101513000000000007070707070707070000000090
:101523000000003F8F0107010101010701000302D1
:10153300020202000701070707070707F200F2008C
:101543000000003F0F010F01010101070102050027
:10155300000000000706070707070707F000F00071
:101563000000003F60242907000000000000000085
:101573000000000000000000000000000000000068
:10158300000000000000000000000000472900E008
:06159300000007BA4E0043
:1015AE0090E60174BAF090E6F574FFF0902900E031
:1015BE0090E6F3F0902901E090E6C3F0902902E066
:1015CE0090E6C1F0902903E090E6C2F0902905E084
:1015DE0090E6C0F0902906E090E6F4F075AF07743F
:1015EE0028F59A7480F59B759DE4E4F59EFF90E6D0
:1015FE007BE090E67CF00FBF80F4E490E671F0F5AE
:10160E00B490E672E0547FF053B67F000000E49091
:10161E00E6C4F000000090E6C5F0902907E090E6E1
:10162E00C6F0902908E090E6C7F0902909E090E610
:10163E00C8F090290AE090E6C9F090290BE090E6F8
:10164E00CAF090290CE090E6CBF090290DE090E6E0
:0A165E00CCF090290EE090E6CDF0EC
:01166800225F
:0A285300000102020303040405055E
:03000B00021E488A
:101E4800C0E0C0F0C083C082C0D075D000C000C060
:101E580004C005C006C0070545E545B406220518B7
:101E6800E51870020517AE17FF7C007D0A120313F0
:101E7800ED4C70099029C675F0011203687545008C
:101E8800D007D006D005D004D000D0D0D082D083DF
:051E9800D0F0D0E032A3
:101A4800E4F525F524F523F522C203C200C202C23B
:101A5800011220F47548177549B87550177551CAA1
:101A68007546177547D4754E17754FF47552187526
:101A78005322D2E843D82090E668E04409F090E683
:101A88005CE0443DF0D2AFD20812238790E680E0B4
:101A980054F7F0C203300105120A11C201300329BC
:101AA8001228D95024C20312248420001690E682FA
:101AB800E030E704E020E1EF90E682E030E604E081
:0E1AC80020E0E41223E21228DB12256B80C717
:100A110090E6B9E01203980AB5000B32010BB50359
:100A21000A34060AAF080AA9090A9D0A0AA30B009B
:100A3100000C151228DD4003020C2190E6BBE024D6
:100A4100FE602214603324FD6011146022240670BC
:100A510048E54890E6B3F0E5498037E55090E6B3C4
:100A6100F0E551802DE54A90E6B3F0E54B8023E5B2
:100A71004C90E6B3F0E54D801990E6BAE0FF122400
:100A81000EAA06A9077B01EA494B600DEE90E6B379
:100A9100F0EF90E6B4F0020C21020C1A12275C026E
:100AA1000C2112286D020C21122865020C2112273B
:100AB1004A020C211228DF4003020C2190E6B8E023
:100AC100247F601514601924027063A200E43325A9
:100AD100E0FFA202E4334F8041E490E740F0803F21
:100AE10090E6BCE0547EFF7E00E0D394807C004021
:100AF100047D0180027D00EC4EFEED4F2453F58212
:100B010074283EF583E493FF3395E0FEEF24A1FFC3
:100B1100EE34E68F82F583E0540190E740F0E4A3E0
:100B2100F090E68AF090E68B7402F0020C21020C40
:100B31001A1228E14003020C2190E6B8E024FE607D
:100B41001624026003020C2190E6BAE0B40105C24A
:100B510000020C21020C1A90E6BAE0705590E6BC36
:100B6100E0547EFF7E00E0D394807C0040047D0150
:100B710080027D00EC4EFEED4F2453F58274283E39
:100B8100F583E493FF3395E0FEEF24A1FFEE34E615
:100B91008F82F583E054FEF090E6BCE0548013139D
:100BA10013541FFFE0540F2F90E683F0E04420F030
:100BB100806E80651228E3506790E6B8E024FE60FD
:100BC1001A2402705B90E6BAE0B40104D2008050AE
:100BD10090E6BAE0B402028047803E90E6BCE05461
:100BE1007EFF7E00E0D394807C0040047D01800282
:100BF1007D00EC4EFEED4F2453F58274283EF583C3
:100C0100E493FF3395E0FEEF24A1FFEE34E68F82FB
:100C1100F58380081207A7500790E6A0E04401F091
:070C210090E6A0E04480F022
:010C280022A9
:030033000228BBE5
:0428BB0053D8EF32CD
:03004300021700A1
:0300530002170091
:1017000002254C0002270C000226F6000226B1003A
:101710000221E50002221C000228EC000228ED0054
:101720000228EE000228EF000228F0000228F10053
:101730000228F2000228F3000228F4000228F50033
:101740000228F6000228ED000228F7000228F8001F
:101750000228F9000228FA000228FB000228FC00F7
:101760000228FD000228ED000228ED000228ED000D
:101770000228FE000228FF000229000002290100C1
:10178000022902000229030002290400022905009F
:10179000022906000229070002290800022909007F
:1017A00002290A0002290B0002290C0002290D005F
:0817B00002290E0002290F00BE
:1023E20090E682E030E004E020E60B90E682E03006
:1023F200E119E030E71590E680E04401F07F147EB9
:0C2402000012202B90E680E054FEF02237
:1024840090E682E044C0F090E681F04387010000CA
:042494000000002222
:1023870030080990E680E0440AF0800790E680E094
:102397004408F07FDC7E0512202B90E65D74FFF089
:0F23A70090E65FF05391EF90E680E054F7F0225C
:02240E00A9071C
:10241000AE52AF538F828E83A3E064037017AD0179
:1024200019ED7001228F828E83E07C002FFDEC3E3F
:09243000FEAF0580DF7E007F0095
:012439002280
:1025A5001222BEE51E24FA600E146006240770F39D
:0C25B500D322E4F51ED322E4F51ED3224D
:1025C1001222F2E51E24FA600E146006240770F34D
:0C25D100D322E4F51ED322E4F51ED32231
:10202B008E268F2790E600E054187012E5272401C6
:10203B00FFE43526C313F526EF13F527801590E63D
:10204B0000E05418FFBF100BE52725E0F527E52628
:10205B0033F526E5271527AE26700215264E6005AB
:06206B0012249880EE2211
:08285D00E4F51ED2E9D2AF221E
:1022530090E678E020E6F9C2E990E678E04480F081
:10226300EF25E090E679F090E678E030E0F990E64B
:1022730078E04440F090E678E020E6F990E678E0F4
:0622830030E1D6D2E92291
:1022F200A90790E678E020E6F9E51E702390E678DB
:10230200E04480F0E925E090E679F08D19AF03A969
:1023120007751A018A1B891CE4F51D751E01D3225B
:02232200C322D4
:1022BE00A90790E678E020E6F9E51E702590E6780D
:1022CE00E04480F0E925E0440190E679F08D19AF05
:1022DE0003A907751A018A1B891CE4F51D751E03D7
:0422EE00D322C32212
:03004B000211F3AC
:1011F300C0E0C083C082C085C084C086758600C03D
:10120300D075D000C000C001C002C003C006C00733
:1012130090E678E030E206751E060212DD90E6786D
:10122300E020E10CE51E64026006751E070212DD74
:10123300E51E24FE605F14603624FE70030212CEA6
:1012430024FC70030212DA240860030212DDAB1AD5
:10125300AA1BA91CAF1D051D8F827583001202B244
:1012630090E679F0E51D65197070751E05806B9029
:10127300E679E0AB1AAA1BA91CAE1D8E827583000A
:101283001202F1751E02E5196401704E90E678E0D2
:101293004420F08045E51924FEB51D0790E678E06B
:1012A3004420F0E51914B51D0A90E678E04440F0B7
:1012B300751E0090E679E0AB1AAA1BA91CAE1D8E21
:1012C300827583001202F1051D800F90E678E044D9
:1012D30040F0751E008003751E005391DFD007D0C8
:1012E30006D003D002D001D000D0D0D086D084D095
:0812F30085D082D083D0E032E7
:102498007400F58690FDA57C05A3E582458370F957
:0124A8002211
:10264B00564E6F7620323020323031394031313AAC
:0B265B0033363A33330000000000006B
:101599000215266202080000010F01010C01010A6F
:0415A900010112FF2B
:10268000902930E0FF700690292FE0600890292FF4
:09269000E0FD0225F91228D62212
:1024CC007E007F677D007B017A29792D1203EB90CA
:1024DC00292D740AF0E4A3F01226C9121D930225CB
:0124EC002DC2
:1025DD007D02121F4390292DE0B40A04A3E060038D
:0C25ED000224CC7D67121F43121D9322B4
:10252D0090292D740AF0E4A3F07A297B2D7D677F25
:0F253D00017E1F1222897D677F007E1F0228D337
:101C580012268090E6BEE0F53C753E02E53C6057F2
:101C6800C394405005853C3D8003753D40E490E6B3
:101C78008AF090E68BE53DF090E6A0E020E1F9E4FB
:101C8800F53BE53BC3953D50257440253BF582E483
:101C980034E7F583E0FFAE3E053EEE7C007B012491
:101CA8002DF9EC3429FAEF1202DF053B80D4C3E5A5
:0A1CB8003C953DF53C80A502268016
:1018680090E6B8E030E745E4F532F531E531C39468
:101878000550247E007B01748A2531F9EE3429FA5B
:10188800120299FF74402532F582E434E7F583EFBC
:10189800F00531053280D5E490E68AF090E6BEE0A6
:1018A80090E68BF090E6A0E04480F02290E6BEE05F
:1018B80090E68BF090E6A0E020E1F990E6BEE064C7
:1018C800056003C20422E4F531F532E531C394051D
:1018D800502474402532F582E434E7F583E0FFE5CF
:1018E800317C007B01248AF9EC3429FAEF1202DFFB
:1018F8000531053280D590E6BAE0B4CE08A3E0B44D
:05190800AC0312252DC7
:01190D0022B7
:0F27E000D3E518950EE517950D400312279022AB
:0128E90022CC
:1024A900902932E0FE902931E07C002400F50EEC01
:1024B9003EF50D450E7007C28CC2A9C20522D28C09
:0324C900D2A92273
:0128EA0022CB
:1020710090E6BEE090E68BF090E6A0E020E1F9E486
:10208100FF74422FF582E434E7F583E0FEEF7C0034
:102091007B01248FF9EC3429FAEE1202DF0FBF0520
:1020A100E090E740E0902931F090E741E09029325B
:0420B100F00224A96C
:10279000122171E49029C6F0A3F0F517F518D205BF
:0127A0002216
:1024ED00C205E49029C6F0A3F0F517F518C28CC209
:1024FD00A9538EF75389F14389011228EA0224A9C1
:10213300E50945086019E50915097002150814C376
:1021430094FFE50864809480501E1228B3801930F0
:1021530004167508057509FF1228AFC204E4902917
:0D216300C6F0A3F0F517F518300502D20400
:01217000224C
:1010B80090E6B8E020E70302116DE4F5329029319B
:1010C800E0FFAE32053274402EF582E434E7F58352
:1010D800EFF0902932E0FFAE32053274402EF582EF
:1010E800E434E7F583EFF0E4F531E531C3940550D6
:1010F800247E007B01748F2531F9EE3429FA12021F
:1011080099FF74402532F582E434E7F583EFF00562
:1011180031053280D5AE32053274402EF582E43482
:10112800E7F583E518F0E517FFAE32053274402E77
:10113800F582E434E7F583EFF0A205E433FFAE323D
:10114800053274402EF582E434E7F583EFF0C205EA
:10115800E490E68AF090E6BEE090E68BF090E6A098
:10116800E04480F02290E6BEE090E68BF090E6A0A6
:10117800E020E1F9C20590E6BEE064076003C2041E
:1011880022E4F532AF32053274402FF582E434E7B9
:10119800F583E0902931F0AF32053274402FF582A3
:1011A800E434E7F583E0902932F0E4F531E531C322
:1011B8009405502474402532F582E434E7F583E041
:1011C800FFE5317C007B01248FF9EC3429FAEF121A
:1011D80002DF0531053280D51224A990E6BAE0B4C1
:0A11E800CE08A3E0B4AC0312252DDD
:0111F20022DA
:0428BF00750F01226E
:101D2B0012268090E6BEE0F53CE4F53EE53C6057BC
:101D3B00C394405005853C3D8003753D40E490E6DF
:101D4B008AF090E68BE53DF090E6A0E020E1F9E427
:101D5B00F53BE53BC3953D50257440253BF582E4AF
:101D6B0034E7F583E0FFAE3E053EEE7C007B0124BD
:101D7B0048F9EC3429FAEF1202DF053B80D4C3E5B6
:071D8B003C953DF53C80A5ED
:011D9200222E
:101F9300150FE50F7046902948E0F50F1228E5E488
:101FA300F9902989E0FFE9C39F502EE925E02449F0
:101FB300F582E43429F583E0F562E925E0244AF566
:101FC30082E43429F583E0F563547FFDE5633392BE
:0C1FD30006AF621225890980C81228E6BA
:011FDF0022DF
:10250D0090E6BEE090E68BF090E6A0E020E1F99039
:10251D00E740E0902933F090E741E0902934F02234
:101B6200150CE50C6003021BEC902933E0F50C7BAD
:101B7200017A2979C812245FE4FFFE74C82EF58227
:101B8200E43429F583E0FD74942EF582E43429F5DA
:101B920083E06DF97D01E4FCECC394085046E95DF5
:101BA200602974982FF582E43429F583E014F074E7
:101BB200982FF582E43429F583E0702074942EF591
:101BC20082E43429F583E06DF08000902934E0FB53
:101BD20074982FF582E43429F583EBF00CED25E0BF
:0A1BE200FD0F80B40EEE6404709154
:011BEC0022D6
:1026990090E6BEE090E68BF090E6A0E020E1F990AC
:0826A900E740E0902935F02222
:1021AC00E4F513FF74B82FF582E43429F583E0FECF
:1021BC0074C22FF582E43429F583EEF074B82FF550
:1021CC0082E43429F583E0FE74BE2FF582E43429D1
:0821DC00F583EEF00FBF04CC07
:0121E40022D8
:101BED00150AE50A7064902935E0F50A7B017A291A
:101BFD0079B812245FE4FF74C22FF582E43429F51D
:101C0D0083C083C082E0FE74B82FF582E43429F5D9
:101C1D0083E0FDEE5DD082D083F074BE2FF582E4BB
:101C2D003429F583C083C082E0FE74B82FF582E4B9
:101C3D003429F583E0FDEE4DD082D083F00FBF0443
:0A1C4D00B6E513C394FF500205131F
:011C5700226A
:0428C3007512FF2269
:101CC200E4FB0512902947E0FFEBC39F5050EB2540
:101CD200E02438F582E43429F583E0C39512501DDF
:101CE200EB25E02437F582E43429F583E0FE547FC6
:101CF200FFEE30E7047D00801F7D01801BEB25E0B5
:101D02002437F582E43429F583E0FE547FFFEE3078
:101D1200E7047D0180027D00120F470B80A6902907
:081D220036E0B51203E4F512EE
:011D2A002296
:1023240090E6BEE090E68BF090E6A0E020E1F9E4D0
:10233400FF74402FF582E434E7F583E0FEEF7C0080
:102344007B012436F9EC3429FAEE1202DF0FBF12B6
:01235400E0A8
:012355002265
:0419AB008E3B8F3CA4
:1019AF00E4F53DE53C6402453B700C90E741F0E502
:1019BF003C153C7002153BE53C6401453B701690AD
:1019CF00E7407467F090E6BEE090E68BF0E53C15DB
:1019DF003C7002153BE53C453B605D90E6A0E02086
:1019EF00E1F9C3E53C9440E53B94005004AD3C80E5
:1019FF00027D40E4FFEFC39D5025AE3D053DEE75E2
:101A0F0083007B01242DF9E5833429FA120299FE14
:101A1F0074402FF582E434E7F583EEF00F80D6E4BF
:101A2F0090E68AF090E68BEDF0FFC3E53C9FF53C26
:081A3F00E53B9400F53B809D9E
:011A4700227C
:1004170090E6B8E030E76390E6BFE0FE90E6BEE026
:10042700FDEDFF4E7002804D90E6BDE0FD90E6BC0D
:10043700E04D70030219AB90E6BDE060030207A62A
:1004470090E6BCE01460030207A6753EFF753F26E1
:1004570075404B75410075421E7B017AE779411261
:100467001EF17B017AE77940122722EF0490E740DB
:10047700F090E6BEE090E68BF02290E6BFE0FF90BA
:10048700E6BEE04F707790E6BDE0704D90E6BCE0C9
:1004970024EF6023249F603024FD603324F360340D
:1004A7002472703590E6BAE064CE702DA3E064AC98
:1004B700702712252D802290E6BAE0B4CE1BA3E068
:1004C700B4AC161224CC8011E4902947F0800A7549
:1004D70012FF8005E4902989F090E6BDE064806012
:1004E700030207A690E6BCE0640160030207A6903A
:1004F700E6BAE090292FF090E6BB0205C690E6BF6A
:10050700E060030207A690E6BDE0FE90E6BCE07C53
:10051700002400FFEC3EFEEF8EF01203BE056C00D8
:1005270020056C0021056C0022056C002305A10045
:100537002F05CE004105DC005105EA0053060A00ED
:1005470061061800630638007106460073066600E8
:100557007406BC008106CA008306EA00840741804E
:1005670001000007A690E6BEE0B46503121C589090
:10057700E6BCE030E003121D9390E6BCE020E10307
:100587000207A690E6BAE064CE60030207A6A3E0DE
:1005970064AC60030207A602252D90E6BEE0640264
:1005A70060030207A6E090E68BF090E6A0E020E16A
:1005B700F912268090E740E090292FF090E741E07C
:1005C700902930F00207A390E6BEE06407600302BB
:1005D70007A602207190E6BEE0640260030207A648
:1005E70002250D90E6BEE0640160030207A6E090D5
:1005F700E68BF090E6A0E020E1F990E740E0902953
:1006070033F02290E6BEE0640160030207A60226EB
:100617009990E6BEE0640160030207A6E090E68BCE
:10062700F090E6A0E020E1F990E740E0902935F06E
:100637002290E6BEE0641260030207A6022324901C
:10064700E6BEE0640160030207A6E090E68BF09047
:10065700E6A0E020E1F990E740E0902936F022900B
:10066700E6BEE0640260030207A6902947E0C39450
:100677000840030207A690E6BEE090E68BF090E6FE
:10068700A0E020E1F990E740E0FF902947E0FE2550
:10069700E02435F582E43429F583EFF090E741E073
:1006A700FFEE25E02436F582E43429F583EFF09058
:1006B700294702073D90E6BEE0644260030207A6B1
:1006C700021D2B90E6BEE0640160030207A6E090DE
:1006D700E68BF090E6A0E020E1F990E740E0902972
:1006E70048F02290E6BEE0640260030207A6902964
:1006F70089E0C3942040030207A690E6BEE090E697
:100707008BF090E6A0E020E1F990E740E0FF902928
:1007170089E0FE25E02447F582E43429F583EFF0EC
:1007270090E741E0FFEE25E02448F582E43429F51F
:1007370083EFF0902989E004F02290E6BEE090E68E
:100747008BF090E6A0E020E1F990E6BEE06404704B
:010757004E53
:1007580090E74012038C8F348E338D328C31AB345A
:10076800AA33A932A8317F007E1B7D377C4B12014A
:100778007B8F388E378D368C35AB38AA37A936A89B
:1007880035E4FFFE7D807C471200831202188E3903
:0E0798008F3AEF90292FF0E539A3F01226805A
:0107A6002230
:1026300090E6047480F00000007402F00000007462
:0B26400006F0000000E4F000000022A3
:0128EB0022CA
:1020B500E4F5267AE779407F40AB077D087FF87E17
:1020C5001D121F4BE4F52674402526F582E434E7FE
:1020D500F583E0FDE52675F002A42424F97418358E
:0E20E500F08982F583EDF00526E526B408D9D2
:0120F30022CA
:1020F40090E678E05410FFC4540F4450F51013E4F4
:1021040033F514438E201228D612166912285D1254
:1021140020B5121E9DD2001225DD1224ED1228BF17
:0F2124001221AC1228C31226801228B30228E71A
:10256B001228E81221331227E0E58090E68020E064
:0E257B0006E04408F08004E054F7F002190E68
:061DF1008B268A278928D9
:101DF700E4F5291227228F2AE52A25E024029018E4
:101E070042F0E4F529AF2AEF3395E0FEC3E5299FB9
:101E1700EE6480F87480985027AB26AA27A92885F6
:101E270029827583001202B2FDE52975F002A42408
:101E370044F9741835F08982F583EDF0052980C5DA
:011E47002278
:061FE0008E418F42AC05AA
:101FE600E4FDE5146012E541FF7E000DEE2516F5D1
:101FF60082E43515F583EFF0AE050DE5162EF58274
:10200600E43515F583E542F0AF050DE5162FF582AB
:10201600E43515F583ECF0AB16AA15AF101225C101
:05202600AF100222537F
:0328D300021FE001
:0A2289008E3B8F3C8D3D8A3E8B3F5B
:10229300E4F540E540C3953D5020053CE53CAE3BAD
:1022A3007002053B14FFE53F2540F582E4353EF51A
:0A22B30083E0FD1228D3054080D916
:0122BD0022FE
:081F43007A297B2D7F017E1F2E
:0A1F4B008E398F3A8D3B8A3C8B3DA6
:101F5500E4FDF53EE5146012E539FF7E000DEE2542
:101F650016F582E43515F583EFF0AE050DE5162E71
:101F7500F582E43515F583E53AF0AB16AA15AF10F1
:0E1F85001225C1AB3DAA3CAD3BAF100225A515
:100C290090E6BAE0753100F532A3E0FEEE4231906C
:100C3900E6BEE0753300F534A3E0FEEE423390E6FC
:100C4900B8E064C06003020D36E534453370030231
:100C59000DC990E6A0E020E1F9C3E5349440E533FD
:100C6900940050088533358534368006753500750E
:100C7900364090E6B9E064A3705890E6BCE0B40150
:100C89001BA3E0701790E6BBE030E71090E74074D3
:100C990003F0A37401F0A37403F0806CE4F537F555
:100CA90038C3E5389536E5379535505CE532253852
:100CB900F582E5313537F583E0FF74402538F58253
:100CC90074E73537F583EFF00538E53870D3053724
:100CD90080CFE4F537F538C3E5389536E5379535EE
:100CE900501974402538F58274E73537F58374CD8A
:100CF900F00538E53870E0053780DCAD367AE77BFA
:100D090040AF32AE31121F4BE490E68AF090E68B89
:100D1900E536F02532F532E5353531F531C3E534BF
:100D29009536F534E5339535F533020C5290E6B82E
:100D3900E064406003020DC9E53445337003020DD8
:100D4900C9E490E68AF090E68BF090E6A0E020E115
:100D5900F990E68BE0753500F53690E6B9E0B4A375
:100D690036E4F537F538C3E5389536E53795355026
:100D79003374402538F58274E73537F583E0FFE5AC
:100D8900322538F582E5313537F583EFF00538E559
:100D99003870D3053780CFAD367AE77B40AF32AEB6
:100DA90031122289E5362532F532E5353531F5310D
:100DB900C3E5349536F534E5339535F533020D4100
:010DC9002207
:0228D900C32218
:0228DB00D32206
:0228DD00D32204
:0828650090E6BAE0F50BD32266
:10274A0090E740E50BF0E490E68AF090E68B04F01F
:02275A00D32288
:08286D0090E6BAE0F511D32258
:10275C0090E740E511F0E490E68AF090E68B04F007
:02276C00D32276
:0228DF00D32202
:0228E100D32200
:0228E300D322FE
:1012FB00E4FF90E6B8E020E7030213E80F0F744019
:10130B002401F582E434E7F583740AF00F7440246A
:10131B0002F582E434E7F583E4F00F74402403F51F
:10132B0082E434E7F583E4F00F74402404F582E49F
:10133B0034E7F5837401F00F74402405F582E4342F
:10134B00E7F5837404F00F74402406F582E434E768
:10135B00F583E4F00F74402407F582E434E7F5835A
:10136B00E4F00F74402408F582E434E7F58374FF4E
:10137B00F00F74402409F582E434E7F58374FFF031
:10138B000F7440240AF582E434E7F5837408F00FF8
:10139B007440240BF582E434E7F5837420F00F746A
:1013AB0040240CF582E434E7F5837410F00F74409D
:1013BB00240DF582E434E7F5837410F00F744024A8
:1013CB000EF582E434E7F5837401F090E740EFF01B
:0D13DB00E490E68AF090E6BEE090E68BF02C
:0113E80022E2
:100DCA0090E6B9E01203980E11100E11110E551487
:100DDA000F09150DFF280DF92E0DF33C0E0B3F0ED2
:100DEA0005A20E05A300000F43120417020F4512B5
:100DFA0010B8020F45121868020F45120C29020F8B
:100E0A00451212FB020F4590E6B8E030E70C7B0171
:100E1A007AE7794012245F020F2D90E6BEE0701047
:100E2A0090E6BCE0FF90E6BAE0FD120F47020F45DC
:100E3A0090E6BEE090E68BF090E6A0E020E1F97B38
:100E4A00017AE7794012243A020F45C2AF90E7507F
:100E5A00E513F0E4F5137B017AE7794C12245FE499
:100E6A00F52D74B8252DF582E43429F583E0FF7455
:100E7A0040252DF582E434E7F583EFF0052DE52DC5
:100E8A00B404DF90E6BCE06027E4F52D74C2252D9A
:100E9A00F582E43429F583E0F4FF7444252DF582C4
:100EAA00E434E7F583EFF0052DE52DB404DE802464
:100EBA00E4F52D74C2252DF582E43429F583E0FF8B
:100ECA007444252DF582E434E7F583EFF0052DE52A
:100EDA002DB404DFE4F52D74BE252DF582E4342902
:100EEA00F583E0FF7448252DF582E434E7F583EFB6
:100EFA00F0052DE52DB404DF1221ACD2AF8024E435
:100F0A00F52D7494252DF582E43429F583E0FF74D8
:100F1A0040252DF582E434E7F583EFF0052DE52D24
:100F2A00B404DFE490E68AF090E6BEE090E68BF047
:0C0F3A0090E6A0E04480F08002C322D3C7
:010F46002288
:10254C00C0E0C083C08290E6B5E04401F0D20153F4
:0F255C0091EF90E65D7401F0D082D083D0E03231
:1026F600C0E0C083C0825391EF90E65D7404F0D0D1
:0627060082D083D0E03216
:10270C00C0E0C083C0825391EF90E65D7402F0D0BC
:06271C0082D083D0E03200
:1021E500C0E0C083C08290E680E030E70E85464AB5
:1021F50085474B854E4C854F4D800C854E4A854F06
:102205004B85464C85474D5391EF90E65D7410F034
:07221500D082D083D0E0323B
:1026B100C0E0C083C082D2035391EF90E65D7408FD
:0826C100F0D082D083D0E0329A
:10221C00C0E0C083C08290E680E030E70E85464A7D
:10222C0085474B854E4C854F4D800C854E4A854FCE
:10223C004B85464C85474D5391EF90E65D7420F0ED
:07224C00D082D083D0E03204
:0128EC0032B9
:0128ED0032B8
:0128EE0032B7
:0128EF0032B6
:0128F00032B5
:0128F10032B4
:0128F20032B3
:0128F30032B2
:0128F40032B1
:0128F50032B0
:0128F60032AF
:0128F70032AE
:0128F80032AD
:0128F90032AC
:0128FA0032AB
:0128FB0032AA
:0128FC0032A9
:0128FD0032A8
:0128FE0032A7
:0128FF0032A6
:0129000032A4
:0129010032A3
:0129020032A2
:0129030032A1
:0129040032A0
:01290500329F
:01290600329E
:01290700329D
:01290800329C
:01290900329B
:01290A00329A
:01290B003299
:01290C003298
:01290D003297
:01290E003296
:01290F003295
:1025F900E4F5C8E58E54074438F58E8FCB8FCDAFFF
:0C260900058FCA8FCCD2BDD2ADD2CA2240
:10235600AB07AA06A905A8047F007E1B7D377C4B28
:1023660012017BAB07AA06A905A804E4FFFE7D803F
:102376007C47120083120218AD07AC06AF04022593
:01238600F95D
:1027C100AD07AC06C3E49DFBE49CFFEBFD0225F9DC
:0328D600C2CA2251
:03002B000228A9FF
:0628A9001216FFC2CF323F
:10008000020284E86480F8E933E83360110460F028
:10009000ED33EC337009E8FCE9FDEAFEEBFF2204E6
:1000A00060DED3EB9FEA9EE99DE8C2E78CF0C2F7E1
:1000B00095F0400CE8CCF8E9CDF9EACEFAEBCFFBAD
:1000C00012024F85D0F05804700320D5B3E80470B5
:1000D000075002B2D502028E92D5EC0460F7E4CC50
:1000E000C0E0C398F8603B94186008400DD0E0FB76
:1000F000020266E4FBFAC9FC8028E830E406E4C9A1
:10010000FBE4CAFCE830E305E4C9CACBFCE85407C9
:100110006010F8C3E913F9EA13FAEB13FBEC13FCD4
:10012000D8F130F52FC3E49CFCEF9BFFEE9AFEED77
:1001300099FDD0E0FBEF4E4D4C701222DB03020222
:100140008BEC2CFCEF33FFEE33FEED33FDED30E7AF
:10015000EB020266EF2BFFEE3AFEED39FDD0E0FB3D
:1001600050130BBB000302028EED13FDEE13FEEFE6
:0801700013FFEC13FC02026610
:1001780002028EEC5D046005E859047003020284F3
:1001880012024F580460F6EC4860F2EC7004FDFE71
:10019800FF22C860DB2481C85009C398600250065A
:1001A80002028B9850CAF582E9294B4A7005AB8246
:1001B80002027A75F0007C1A7880C3EF9BEE9AED04
:1001C80099400DC3EF9BFFEE9AFEED99FDE842F0D2
:1001D800DC23ACF0D0E0FFD0E0FED0E0FDAB822025
:1001E800E7101BEB60BAEC2CFCEF33FFEE33FEEDAF
:1001F80033FD020266E803F830E705C0F075F00049
:10020800EF2FFFEE33FEED33FD40B830E7C280AA92
:10021800EDD2E7CD33EC3392D524814006E4FFFEDE
:10022800FDFC22FCE4CFCECDCC24E0501174FF803D
:10023800EDC3CC13CCCD13CDCE13CECF13CF0470DA
:07024800F030D5DE02037E59
:10024F00E9D2E7C933E833F892D5EDD2E7CD33ECF5
:07025F0033FC5002B2D5226E
:10026600EC30E7100FBF000C0EBE00080DBD0004F9
:100276000BEB6014A2D5EB13FCED92E7FD2274FFA5
:10028600FCFDFEFF22E480F8A2D574FF13FC7D80FE
:03029600E480EF12
:03000000021AD60B
:0C1AD600787FE4F6D8FD758163021B1DCB
:10029900BB010689828A83E0225002E722BBFE0263
:0902A900E32289828A83E4932296
:1002B200BB010CE58229F582E5833AF583E0225001
:1002C20006E92582F8E622BBFE06E92582F8E2224B
:0D02D200E58229F582E5833AF583E4932265
:1002DF00BB010689828A83F0225002F722BBFE01FE
:0202EF00F322F8
:1002F100F8BB010DE58229F582E5833AF583E8F043
:10030100225006E92582C8F622BBFE05E92582C8EE
:02031100F222D6
:10031300BC000BBE0029EF8DF084FFADF022E4CCCE
:10032300F875F008EF2FFFEE33FEEC33FCEE9DEC97
:10033300984005FCEE9DFE0FD5F0E9E4CEFD22EDDD
:10034300F8F5F0EE8420D21CFEADF075F008EF2F27
:10035300FFED33FD4007985006D5F0F222C398FD18
:050363000FD5F0EA22B5
:10036800C5F0F8A3E028F0C5F0F8E5821582700220
:060378001583E038F022BD
:0E037E00C3E49FFFE49EFEE49DFDE49CFC2290
:0C038C00E0FCA3E0FDA3E0FEA3E0FF22E4
:10039800D083D082F8E4937012740193700DA3A3F4
:1003A80093F8740193F5828883E473740293686008
:0603B800EFA3A3A380DF08
:1003BE00D083D082F8E4937012740193700DA3A3CE
:1003CE0093F8740193F5828883E473740293B5F005
:0D03DE00067403936860E9A3A3A3A380D86D
:101EF1008B3B8A3C893DE4F543F544E5421542AE0E
:101F010041700215414E6033AB3EAA3FA940120217
:101F110099FFAB3BAA3CA93D0544E544AC437002A3
:101F2100054314F5828C83EF1202F1EF60CD740149
:101F31002540F540E4353FF53F80C0AB3BAA3CA9C5
:021F41003D223F
:10272200E4FFFE120299600C0FEF70010E09E970CE
:05273200F20A80EF2215
:1003EB00EF4E6012EF60010EEDBB010B89828A8329
:1003FB00F0A3DFFCDEFA2289F05007F709DFFCA936
:0C040B00F022BBFEFCF309DFFCA9F0228C
:101AE200021A48E493A3F8E493A34003F68001F2B8
:101AF20008DFF48029E493A3F85407240CC8C33305
:101B0200C4540F4420C8834004F456800146F6DFD3
:101B1200E4800B01020408102040809014D0E47E7F
:101B2200019360BCA3FF543F30E509541FFEE493C8
:101B3200A360010ECF54C025E060A840B8E493A38F
:101B4200FAE493A3F8E493A3C8C582C8CAC583CABA
:101B5200F0A3C8C582C8CAC583CADFE9DEE780BE72
:0115AD00003D
:00000001FF
