:04002E0043B1402278
:0400460053B1BF22D1
:04004E0063B1402238
:0100320022AB
:01004A002293
:01005200228B
:0122070022B4
:0122080022B3
:10188600EF5407FE7401A806088002C333D8FCFE95
:10189600EF131313541FFFED601EEF14600E146058
:1018A6000F14601024037031EE428022EE42902223
:1018B600EE42A022EE42B022EF14600F1460111423
:1018C600601324037013EEF4528022EEF452902239
:0918D600EEF452A022EEF452B02F
:0118DF0022E6
:101C1400EF54F824F8601024F8601024F8601024BD
:101C240018700EAE80800AAE908006AEA08002AE20
:101C3400B0EF5407FF7401A807088002C333D8FC2F
:0B1C44005206EE60047F0180027F006A
:011C4F002272
:10000E00E58012080E900001E59012082090000283
:0D001E00E5A0120820900003E5B0020820C4
:101E96001207C8902861F0F5809000011207E190C2
:101EA6002862F0F5909000021207E1902863F0F5A1
:0E1EB600A09000031207E1902864F0F5B0221E
:101F410090286074FFF090285FF090285EF0902850
:101F51005DF0902864F0902863F0902862F090285A
:031F610061F0220A
:1015FA00E4F5B2F5B3F5B4F5B590285DE0FF908057
:10160A0000F090285EE0FE908001F090285FE0FDF7
:10161A00908002F0902860E0FC908003F08FB28EF8
:10162A00B38DB48CB5902861E0F580A3E0F590A362
:10163A00E0F5A0A3E0F5B090285DE0F4908004F016
:10164A0090285EE0F4908005F090285FE0F49080A6
:10165A0006F0902860E0F4908007F075B1BF75B687
:02166A00442218
:10216D008F558D563006030201DAAD56AF5512016B
:02217D00F92245
:0122090022B2
:01220A0022B1
:0D00360090286574FFF0A3F0A3F0A3F02262
:1016DD00E4F5B2F5B3F5B4F5B5902865E0FF90806B
:1016ED0000F0902866E0FE908001F0902867E0FD04
:1016FD00908002F0902868E0FC908003F08FB28E0D
:10170D00B38DB48CB5902869E0F580A3E0F590A376
:10171D00E0F5A0A3E0F5B0902865E0F4908004F02A
:10172D00902866E0F4908005F0902867E0F49080B2
:0C173D0006F0902868E0F4908007F0228D
:01220B0022B0
:100E6700D204120CEA5003020FB190E6B9E024ED68
:100E77007003020F5624E37003020F79248E700368
:100E8700020FAA147003020FAA24916003020FAF86
:100E9700E490E68AF090E6BEE090E68BF090E6A05C
:100EA700E020E1F9E4F5B2F5B3F5B4F5B590E74420
:100EB700E090285DF0908000F090E745E090285E94
:100EC700F0908001F090E746E090285FF090800274
:100ED700F090E747E0902860F0908003F090E744B7
:100EE700E0F5B2A3E0F5B3A3E0F5B4A3E0F5B59060
:100EF700E740E0902861F0F58090E741E0902862B4
:100F0700F0F59090E742E0902863F0F5A090E74372
:100F1700E0902864F0F5B090E744E0F4908004F0A6
:100F270090E745E0F4908005F090E746E0F4908084
:100F370006F090E747E0F4908007F090E6BAE025E6
:100F4700E025E05404FFE5B154FB4FF5B1805B9019
:100F5700E740E5B2F0A3E5B3F0A3E5B4F0A3E5B548
:100F6700F0A3E580F0A3E590F0A3E5A0F0A3E5B03A
:100F7700802190E740E580F0A3E590F0A3E5A0F09D
:100F8700A3E5B0F0A3E5B2F0A3E5B3F0A3E5B4F0B1
:100F9700A3E5B5F0E490E68AF090E6BEE090E68B34
:0C0FA700F08007120B498002D322C32205
:1001020012010002000000400516048001000102F5
:020112000001EA
:0A0116000A0600020000004001008C
:1001220009022000010100A0FA0904000002FF00F8
:100132000000070502020002000705860200020015
:1001440009022000010100A0FA0904000002FF00D6
:10015400000007050102400000070581024000007D
:100166001403000000000000000000000000000072
:1001760000000000260341004300430045005300F1
:10018600200049002F004F002000500072006F0031
:100196006400750063007400730018035500530073
:1001A60042002D00440049004F002D00330032006C
:1001B600490000008081828384858687909192938E
:1001C60094959697A0A1A2A3A4A5A6A7B0B1B2B3F1
:1001D600B4B5B6B7C0D0C0E0EF9001BA939001F1C4
:1001E600F0ED9001BA939001F3F0A2009200D0E0F6
:1001F600D0D022C0D0C0E0EF9001BA93900210F0A8
:10020600ED9001BA93900213F0A200B39200D0E0F1
:03021600D0D02223
:1020B300564D617920313520323031394031323A51
:0B20C30031353A333600000000000009
:10214300021520CA02080000010F01010C01010A57
:04215300010112FF75
:1020CE00902803E0FF7006902802E0600890280236
:0920DE00E0FD0220441221F82269
:101F87007E007F6D7D007B017A2879001208F8902A
:101F97002800740AF0E4A3F0121F411215FA021F79
:011FA700E851
:1012E4007D02121A35902800E0B40A04A3E06003DA
:0C12F400021F877D6D121A351215FA22B8
:101FE800902800740AF0E4A3F07A287B007D6D7FC6
:0F1FF800017E1F121D697D6D7F007E1F0221F586
:1017B4001220CE90E6BEE0F535753702E535605768
:1017C400C3944050058535368003753640E490E671
:1017D4008AF090E68BE536F090E6A0E020E1F9E4AB
:1017E400F534E534C39536502574402534F582E448
:1017F40034E7F583E0FFAE370537EE7C007B012448
:1018040000F9EC3428FAEF12080E053480D4C3E54D
:0A181400359536F53580A50220CE8B
:1000560090E6B8E030E745E4F52BF52AE52AC394A7
:100066000850247E007B01745D252AF9EE3428FAB7
:100076001207C8FF7440252BF582E434E7F583EFB9
:10008600F0052A052B80D5E490E68AF090E6BEE0DE
:1000960090E68BF090E6A0E04480F02290E6BEE089
:1000A60090E68BF090E6A0E020E1F990E6BEE064F1
:1000B600086003C20422E4F52AF52BE52AC3940856
:1000C60050247440252BF582E434E7F583E0FFE500
:1000D6002A7C007B01245DF9EC3428FAEF12080E25
:1000E600052A052B80D590E6BAE0B4CE08A3E0B485
:0500F600AC03121FE83D
:0100FB0022E2
:0F21C400D3E518950EE517950D40031221A322C0
:01220C0022AF
:101F6400902805E0FE902804E07C002400F50EECA7
:101F74003EF50D450E7007C28CC2A9C20522D28C53
:031F8400D2A922BD
:01220D0022AE
:101B160090E6BEE090E68BF090E6A0E020E1F9E4E6
:101B2600FF74422FF582E434E7F583E0FEEF7C0094
:101B36007B012465F9EC3428FAEE12080E0FBF0873
:101B4600E090E740E0902804F090E741E090280517
:041B5600F0021F6416
:1021A3001216DDE490289FF0A3F0F517F518D20579
:0121B3002209
:101FA800C205E490289FF0A3F0F517F518C28CC27B
:101FB800A9538EF75389F143890112220D021F6438
:101B9900E50945086019E50915097002150814C316
:101BA90094FFE50864809480501E12004680193025
:101BB90004167508057509FF12002EC204E4902861
:0D1BC9009FF0A3F0F517F518300502D204C7
:011BD60022EC
:100FB30090E6B8E020E703021068E4F52B902804DC
:100FC300E0FFAE2B052B74402EF582E434E7F58366
:100FD300EFF0902805E0FFAE2B052B74402EF58231
:100FE300E434E7F583EFF0E4F52AE52AC3940850E7
:100FF300247E007B017465252AF9EE3428FA120752
:10100300C8FF7440252BF582E434E7F583EFF00540
:101013002A052B80D5AE2B052B74402EF582E434A4
:10102300E7F583E518F0E517FFAE2B052B74402E8B
:10103300F582E434E7F583EFF0A205E433FFAE2B4A
:10104300052B74402EF582E434E7F583EFF0C205F7
:10105300E490E68AF090E6BEE090E68BF090E6A09E
:10106300E04480F02290E6BEE090E68BF090E6A0AC
:10107300E020E1F9C20590E6BEE0640A6003C20421
:1010830022E4F52BAF2B052B74402FF582E434E7D4
:10109300F583E0902804F0AF2B052B74402FF582E5
:1010A300E434E7F583E0902805F0E4F52AE52AC364
:1010B300940850247440252BF582E434E7F583E04B
:1010C300FFE52A7C007B012465F9EC3428FAEF1252
:1010D300080E052A052B80D5121F6490E6BAE0B4EA
:0A10E300CE08A3E0B4AC03121FE82E
:0110ED0022E0
:0400FC00750F012259
:10181E001220CE90E6BEE0F535E4F537E53560579B
:10182E00C3944050058535368003753640E490E606
:10183E008AF090E68BE536F090E6A0E020E1F9E440
:10184E00F534E534C39536502574402534F582E4DD
:10185E0034E7F583E0FFAE370537EE7C007B0124DD
:10186E001BF9EC3428FAEF12080E053480D4C3E5C8
:07187E00359536F53580A514
:011885002240
:10199100150FE50F704B90281BE0F50F122209E49B
:1019A100F55290285CE0FFE552C39F5031E5522586
:1019B100E0241CF582E43428F583E0F553E5522553
:1019C100E0241DF582E43428F583E0F554547FFDCD
:1019D100E554339206AF5312216D055280C4122291
:0119E1000AFB
:0119E20022E2
:101FC80090E6BEE090E68BF090E6A0E020E1F99084
:101FD800E740E0902806F090E741E0902807F022DB
:10156F00150CE50C60030215F9902806E0F50C7BCD
:10157F00017A2879A112000EE4FFFE74A12EF582E4
:10158F00E43428F583E0FD746D2EF582E43428F5FC
:10159F0083E06DF97D01E4FCECC394085046E95DEE
:1015AF00602974712FF582E43428F583E014F07408
:1015BF00712FF582E43428F583E07020746D2EF5D9
:1015CF0082E43428F583E06DF08000902807E0FB7B
:1015DF0074712FF582E43428F583EBF00CED25E0E0
:0A15EF00FD0F80B40EEE640470914D
:0115F90022CF
:1020E70090E6BEE090E68BF090E6A0E020E1F99064
:0820F700E740E0902808F02208
:101C8C00E4F513FF74912FF582E43428F583E0FE1C
:101C9C00749B2FF582E43428F583EEF074912FF5C4
:101CAC0082E43428F583E0FE74972FF582E434281F
:081CBC00F583EEF00FBF04CC2C
:011CC40022FD
:10174900150AE50A7064902808E0F50A7B017A28F1
:10175900799112000EE4FF749B2FF582E43428F589
:1017690083C083C082E0FE74912FF582E43428F5AA
:1017790083E0FDEE5DD082D083F074972FF582E48B
:101789003428F583C083C082E0FE74912FF582E48A
:101799003428F583E0FDEE4DD082D083F00FBF04ED
:0A17A900B6E513C394FF50020513C8
:0117B3002213
:0421ED007512FF2246
:10166C00E4F51F0512F51F90281AE0FFE51FC39F34
:10167C005054E51F25E0240BF582E43428F583E073
:10168C00C39512501EE51F25E0240AF582E4342888
:10169C00F583E0FE547FFFEE30E7047D0080207D73
:1016AC0001801CE51F25E0240AF582E43428F5832B
:1016BC00E0FE547FFFEE30E7047D0180027D0012D6
:1016CC001886051F80A1902809E0B51203E4F512D5
:0116DC0022EB
:101DD20090E6BEE090E68BF090E6A0E020E1F9E428
:101DE200FF74402FF582E434E7F583E0FEEF7C00D8
:101DF2007B012409F9EC3428FAEE12080E0FBF1207
:011E0200E0FF
:011E030022BC
:0413B8008E348F35AB
:1013BC00E4F536E53564024534700C90E741F0E510
:1013CC0035153570021534E53564014534701690C9
:1013DC00E740746DF090E6BEE090E68BF0E53515D5
:1013EC003570021534E5354534605D90E6A0E0209B
:1013FC00E1F9C3E5359440E53494005004AD3580F3
:10140C00027D40E4FFEFC39D5025AE360536EE75E8
:10141C0083007B012400F9E5833428FA1207C8FE07
:10142C0074402FF582E434E7F583EEF00F80D6E4B8
:10143C0090E68AF090E68BEDF0FFC3E5359FF5352D
:08144C00E5349400F534809DA5
:011454002275
:1002190090E6B8E030E76390E6BFE0FE90E6BEE026
:10022900FDEDFF4E7002804D90E6BDE0FD90E6BC0D
:10023900E04D70030213B890E6BDE060030205AE1D
:1002490090E6BCE01460030205AE7537FF753820EF
:100259007539B3753A00753B1E7B017AE77941120E
:1002690019E37B017AE77940122158EF0490E740BE
:10027900F090E6BEE090E68BF02290E6BFE0FF90BA
:10028900E6BEE04F707790E6BDE0704D90E6BCE0C9
:1002990024EF6023249F603024FD603324F360340D
:1002A9002472703590E6BAE064CE702DA3E064AC98
:1002B9007027121FE8802290E6BAE0B4CE1BA3E0B3
:1002C900B4AC16121F878011E490281AF0800A75C1
:1002D90012FF8005E490285CF090E6BDE064806040
:1002E900030205AE90E6BCE0640160030205AE902E
:1002F900E6BAE0902802F090E6BB0203C890E6BF98
:10030900E060030205AE90E6BDE0FE90E6BCE07C4D
:10031900002400FFEC3EFEEF8EF01208CB036E00C6
:1003290020036E0021036E0022036E002303A30045
:100339002F03D0004103DE005103EC0053040C00ED
:1003490061041A0063043A007104480073046800E8
:100359007404BE008104CC008304EC00840543804E
:1003690001000005AE90E6BEE0B46B031217B4902D
:10037900E6BCE030E0031215FA90E6BCE020E103A8
:100389000205AE90E6BAE064CE60030205AEA3E0D2
:1003990064AC60030205AE021FE890E6BEE06402A9
:1003A90060030205AEE090E68BF090E6A0E020E164
:1003B900F91220CE90E740E0902802F090E741E062
:1003C900902803F00205AB90E6BEE0640A600302E0
:1003D90005AE021B1690E6BEE0640260030205AE9C
:1003E900021FC890E6BEE0640160030205AEE0901A
:1003F900E68BF090E6A0E020E1F990E740E0902854
:1004090006F02290E6BEE0640160030205AE022018
:10041900E790E6BEE0640160030205AEE090E68B7A
:10042900F090E6A0E020E1F990E740E0902808F09C
:100439002290E6BEE0641260030205AE021DD2906E
:10044900E6BEE0640160030205AEE090E68BF09041
:10045900E6A0E020E1F990E740E0902809F0229039
:10046900E6BEE0640260030205AE90281AE0C39478
:100479000840030205AE90E6BEE090E68BF090E6F8
:10048900A0E020E1F990E740E0FF90281AE0FE257E
:10049900E02408F582E43428F583EFF090E741E0A1
:1004A900FFEE25E02409F582E43428F583EFF09086
:1004B900281A02053F90E6BEE0644260030205AED9
:1004C90002181E90E6BEE0640160030205AEE090EA
:1004D900E68BF090E6A0E020E1F990E740E0902873
:1004E9001BF02290E6BEE0640260030205AE90288C
:1004F9005CE0C3942040030205AE90E6BEE090E6BE
:100509008BF090E6A0E020E1F990E740E0FF902829
:100519005CE0FE25E0241AF582E43428F583EFF047
:1005290090E741E0FFEE25E0241BF582E43428F54D
:1005390083EFF090285CE004F02290E6BEE090E6BC
:100549008BF090E6A0E020E1F990E6BEE06404704B
:01055900544D
:10055A0090E740E0FCA3E0FDA3E0FEA3E0F52D8ECA
:10056A002C8D2B8C2AFBAA2CA92BA82A7F007E1B58
:10057A007D377C4B1206AA8F318E308D2F8C2EAB95
:10058A0031AA30A92FA82EE4FFFE7D807C471205F0
:10059A00B21207478E328F33EF902802F0E532A36A
:0405AA00F01220CE5D
:0105AE00222A
:1020980090E6047480F00000007402F00000007400
:0B20A80006F0000000E4F00000002241
:01220E0022AD
:101B5A00E4F5257AE779407F40AB077D087FF87E78
:101B6A001D121A3DE4F52574402525F582E434E773
:101B7A00F583E0FDE52575F002A42468F9740135C2
:0E1B8A00F08982F583EDF00525E525B408D934
:011B9800222A
:101C500090E678E05410FFC4540F4450F51013E49C
:101C600033F514438E201200321221E5121B5A1252
:101C7000004AD2001212E4121FA81200FC121C8C9F
:0C1C80001221ED1220CE1200460200528C
:10202600122207121B991221C4E5B190E68020E71F
:0E20360006E04408F08004E054F7F0022208AF
:06193A008B4D8A4E894F1F
:10194000E4F5501221588F51E55125E02402900111
:10195000A0F0E4F550AF51EF3395E0FEC3E5509FA2
:10196000EE6480F87480985027AB4DAA4EA94F853D
:1019700050827583001207E1FDE55075F002A42442
:10198000A2F9740135F08982F583EDF0055080C528
:011990002234
:061A85008E3A8F3BAC0518
:101A8B00E4FDE5146012E53AFF7E000DEE2516F538
:101A9B0082E43515F583EFF0AE050DE5162EF582D4
:101AAB00E43515F583E53BF0AF050DE5162FF58213
:101ABB00E43515F583ECF0AB16AA15AF1012207CAC
:051ACB00AF10021D3305
:0321F500021A8546
:0A1D69008E348F358D368A378B38A3
:101D7300E4F539E539C3953650200535E535AE34FC
:101D83007002053414FFE5382539F582E43537F55B
:0A1D930083E0FD1221F5053980D927
:011D9D002223
:081A35007A287B007F017E1F6F
:0A1A3D008E328F338D348A358B36DC
:101A4700E4FDF537E5146012E532FF7E000DEE2563
:101A570016F582E43515F583EFF0AE050DE5162E84
:101A6700F582E43515F583E533F0AB16AA15AF100B
:0E1A770012207CAB36AA35AD34AF10022060D1
:100B490090E6BAE0752A00F52BA3E0FEEE422A9062
:100B5900E6BEE0752C00F52DA3E0FEEE422C90E6F2
:100B6900B8E064C06003020C56E52D452C70030201
:100B79000CE990E6A0E020E1F9C3E52D9440E52CCD
:100B890094005008852C2E852D2F8006752E007512
:100B99002F4090E6B9E064A3705890E6BCE0B40138
:100BA9001BA3E0701790E6BBE030E71090E74074B4
:100BB90003F0A37401F0A37403F0806CE4F530F53D
:100BC90031C3E531952FE530952E505CE52B253164
:100BD900F582E52A3530F583E0FF74402531F58249
:100BE90074E73530F583EFF00531E53170D3053021
:100BF90080CFE4F530F531C3E531952FE530952EF9
:100C0900501974402531F58274E73530F58374CD78
:100C1900F00531E53170E0053080DCAD2F7AE77BF6
:100C290040AF2BAE2A121A3DE490E68AF090E68B8B
:100C3900E52FF0252BF52BE52E352AF52AC3E52DD1
:100C4900952FF52DE52C952EF52C020B7290E6B813
:100C5900E064406003020CE9E52D452C7003020CA9
:100C6900E9E490E68AF090E68BF090E6A0E020E1D6
:100C7900F990E68BE0752E00F52F90E6B9E0B4A364
:100C890036E4F530F531C3E531952FE530952E5031
:100C99003374402531F58274E73530F583E0FFE59B
:100CA9002B2531F582E52A3530F583EFF00531E55D
:100CB9003170D3053080CFAD2F7AE77B40AF2BAEB3
:100CC9002A121D69E52F252BF52BE52E352AF52A44
:100CD900C3E52D952FF52DE52C952EF52C020C61EC
:010CE90022E8
:0221FB00C322FD
:0221FD00D322EB
:0221FF00D322E9
:0800030090E6BAE0F50BD322F0
:10217F0090E740E50BF0E490E68AF090E68B04F0F0
:02218F00D32259
:0821DD0090E6BAE0F511D322EF
:1021910090E740E511F0E490E68AF090E68B04F0D8
:0221A100D32247
:02220100D322E6
:02220300D322E4
:02220500D322E2
:1011F600E4FF90E6B8E020E7030212E30F0F744025
:101206002401F582E434E7F583740AF00F74402470
:1012160002F582E434E7F583E4F00F74402403F525
:1012260082E434E7F583E4F00F74402404F582E4A5
:1012360034E7F5837404F00F74402405F582E43432
:10124600E7F5837404F00F74402406F582E434E76E
:10125600F583E4F00F74402407F582E434E7F58360
:10126600E4F00F74402408F582E434E7F58374FF54
:10127600F00F74402409F582E434E7F58374FFF037
:101286000F7440240AF582E434E7F5837408F00FFE
:101296007440240BF582E434E7F5837420F00F7470
:1012A60040240CF582E434E7F583741FF00F744094
:1012B600240DF582E434E7F583741FF00F7440249F
:1012C6000EF582E434E7F5837401F090E740EFF021
:0D12D600E490E68AF090E6BEE090E68BF032
:0112E30022E8
:100CEA0090E6B9E01208A50D31100D31110D7514F9
:100CFA000E29150D1F280D192E0D133C0D2B3F0D16
:100D0A0025A20D25A300000E63120219020E651218
:100D1A000FB3020E65120056020E65120B49020E3F
:100D2A00651211F6020E6590E6B8E030E70C7B0119
:100D3A007AE7794012000E020E4D90E6BEE070107E
:100D4A0090E6BCE0FF90E6BAE0FD121886020E6556
:100D5A0090E6BEE090E68BF090E6A0E020E1F97B19
:100D6A00017AE77940121E96020E65C2AF90E750EB
:100D7A00E513F0E4F5137B017AE7794C12000EE4EF
:100D8A00F52674912526F582E43428F583E0FF746C
:100D9A00402526F582E434E7F583EFF00526E526BB
:100DAA00B404DF90E6BCE06027E4F526749B2526B0
:100DBA00F582E43428F583E0F4FF74442526F582AD
:100DCA00E434E7F583EFF00526E526B404DE802453
:100DDA00E4F526749B2526F582E43428F583E0FFA2
:100DEA0074442526F582E434E7F583EFF00526E519
:100DFA0026B404DFE4F52674972526F582E4342820
:100E0A00F583E0FF74482526F582E434E7F583EF9D
:100E1A00F00526E526B404DF121C8CD2AF8024E448
:100E2A00F526746D2526F582E43428F583E0FF74EF
:100E3A00402526F582E434E7F583EFF00526E5261A
:100E4A00B404DFE490E68AF090E6BEE090E68BF028
:0C0E5A0090E6A0E04480F08002C322D3A8
:010E66002269
:10200700C0E0C083C08290E6B5E04401F0D201533E
:0F20170091EF90E65D7401F0D082D083D0E0327B
:10211700C0E0C083C0825391EF90E65D7404F0D0B5
:0621270082D083D0E032FB
:10212D00C0E0C083C0825391EF90E65D7402F0D0A1
:06213D0082D083D0E032E5
:101CC500C0E0C083C08290E680E030E70E853F43E8
:101CD500854044854745854846800C85474385486A
:101CE50044853F458540465391EF90E65D7410F07D
:071CF500D082D083D0E03261
:1020FF00C0E0C083C082D2035391EF90E65D7408B5
:08210F00F0D082D083D0E03251
:101CFC00C0E0C083C08290E680E030E70E853F43B1
:101D0C00854044854745854846800C854743854832
:101D1C0044853F458540465391EF90E65D7420F035
:071D2C00D082D083D0E03229
:01220F00329C
:01221000329B
:01221100329A
:012212003299
:012213003298
:012214003297
:012215003296
:012216003295
:012217003294
:012218003293
:012219003292
:01221A003291
:01221B003290
:01221C00328F
:01221D00328E
:01221E00328D
:01221F00328C
:01222000328B
:01222100328A
:012222003289
:012223003288
:012224003287
:012225003286
:012226003285
:012227003284
:012228003283
:012229003282
:01222A003281
:01222B003280
:01222C00327F
:01222D00327E
:01222E00327D
:01222F00327C
:01223000327B
:01223100327A
:012232003279
:10204400E4F5C8E58E54074438F58E8FCB8FCDAFB9
:0C205400058FCA8FCCD2BDD2ADD2CA22FB
:101E3600AB07AA06A905A8047F007E1B7D377C4B4D
:101E46001206AAAB07AA06A905A804E4FFFE7D8030
:101E56007C471205B2120747AD07AC06AF04022055
:011E66004437
:1021B400AD07AC06C3E49DFBE49CFFEBFD022044A9
:0321F800C2CA2236
:03002B00021BD7DE
:101BD700C0E0C0F0C083C082C0D075D000C000C0D4
:101BE70001C002C003C004C005C006C00712220B13
:101BF700C2CFD007D006D005D004D003D002D00181
:0D1C0700D000D0D0D082D083D0F0D0E03219
:0A21D30000010202030304040505E5
:03000B000218E0F8
:1018E000C0E0C0F0C083C082C0D075D000C000C0CE
:1018F00004C005C006C007053EE53EB4062705182E
:10190000E51870020517AE17FF7C007D0A12084229
:10191000ED4C700E9028A0E004F0700690289FE037
:1019200004F0753E00D007D006D005D004D000D01A
:0A193000D0D082D083D0F0D0E03296
:10145500E4F524F523F522F521C203C200C202C238
:1014650001121C50754101754202754901754A16F4
:10147500753F01754022754701754844754B0175E7
:101485004C66D2E843D82090E668E04409F090E63F
:101495005CE0443DF0D2AFD207121E6790E680E0D3
:1014A50054F7F0C203300105120924C201300329A3
:1014B5001221FB5024C203121F1C20001690E68245
:1014C500E030E704E020E1EF90E682E030E604E07A
:0E14D50020E0E4121EC41221FD12202680C762
:1009240090E6B9E070030209D5147003020A522458
:10093400FE7003020AD524FB70030209CF1470036E
:100944000209C914607314607624056003020B3530
:100954001221FF4003020B4190E6BBE024FE60221B
:1009640014603324FD601114602224067048E541AC
:1009740090E6B3F0E5428037E54990E6B3F0E54A06
:10098400802DE54390E6B3F0E5448023E54590E609
:10099400B3F0E546801990E6BAE0FF121EF0AA060D
:1009A400A9077B01EA494B600DEE90E6B3F0EF90A6
:1009B400E6B4F0020B41020B3A122191020B4112F0
:1009C40021DD020B41120003020B4112217F020BB5
:1009D400411222014003020B4190E6B8E0247F60FB
:1009E4001514601924027063A200E43325E0FFA209
:1009F40002E4334F8041E490E740F0803F90E6BC4E
:100A0400E0547EFF7E00E0D394807C0040047D01AE
:100A140080027D00EC4EFEED4F24D3F58274213E1E
:100A2400F583E493FF3395E0FEEF24A1FFEE34E673
:100A34008F82F583E0540190E740F0E4A3F090E660
:100A44008AF090E68B7402F0020B41020B3A1222F8
:100A5400034003020B4190E6B8E024FE6016240232
:100A64006003020B4190E6BAE0B40105C200020B38
:100A740041020B3A90E6BAE0705590E6BCE0547E31
:100A8400FF7E00E0D394807C0040047D0180027DE1
:100A940000EC4EFEED4F24D3F58274213EF583E441
:100AA40093FF3395E0FEEF24A1FFEE34E68F82F549
:100AB40083E054FEF090E6BCE05480131313541FFB
:100AC400FFE0540F2F90E683F0E04420F0806E8026
:100AD40065122205506790E6B8E024FE601A2402ED
:100AE400705B90E6BAE0B40104D200805090E6BA9C
:100AF400E0B402028047803E90E6BCE0547EFF7E74
:100B040000E0D394807C0040047D0180027D00ECF1
:100B14004EFEED4F24D3F58274213EF583E493FF1A
:100B24003395E0FEEF24A1FFEE34E68F82F5838057
:100B340008120E67500790E6A0E04401F090E6A08A
:040B4400E04480F019
:010B4800228A
:030033000221F1B6
:0421F10053D8EF329E
:101EC40090E682E030E004E020E60B90E682E03029
:101ED400E119E030E71590E680E04401F07F147EDC
:0C1EE40000121AD090E680E054FEF022BC
:101F1C0090E682E044C0F090E681F0438701000037
:041F2C00000000228F
:101E670030070990E680E0440AF0800790E680E0BA
:101E77004408F07FDC7E05121AD090E65D74FFF00F
:0F1E870090E65FF05391EF90E680E054F7F02281
:0821E500E4F51ED2E9D2AF229D
:101D330090E678E020E6F9C2E990E678E04480F0A6
:101D4300EF25E090E679F090E678E030E0F990E670
:101D530078E04440F090E678E020E6F990E678E019
:061D630030E1D6D2E922B6
:101E0400A90790E678E020E6F9E51E702390E678CD
:101E1400E04480F0E925E090E679F08D19AF03A95C
:101E240007751A018A1B891CE4F51D751E01D3224E
:021E3400C322C7
:101D9E00A90790E678E020E6F9E51E702590E67832
:101DAE00E04480F0E925E0440190E679F08D19AF2A
:101DBE0003A907751A018A1B891CE4F51D751E03FC
:041DCE00D322C32237
:03004B000210EEB2
:1010EE00C0E0C083C082C085C084C086758600C043
:1010FE00D075D000C000C001C002C003C006C0073A
:10110E0090E678E030E206751E060211D890E67879
:10111E00E020E10CE51E64026006751E070211D880
:10112E00E51E24FE605F14603624FE70030211C9B2
:10113E0024FC70030211D5240860030211D8AB1AE7
:10114E00AA1BA91CAF1D051D8F827583001207E116
:10115E0090E679F0E51D65197070751E05806B902F
:10116E00E679E0AB1AAA1BA91CAE1D8E8275830010
:10117E00120820751E02E5196401704E90E678E0A3
:10118E004420F08045E51924FEB51D0790E678E071
:10119E004420F0E51914B51D0A90E678E04440F0BD
:1011AE00751E0090E679E0AB1AAA1BA91CAE1D8E27
:1011BE0082758300120820051D800F90E678E044AA
:1011CE0040F0751E008003751E005391DFD007D0CE
:1011DE0006D003D002D001D000D0D0D086D084D09B
:0811EE0085D082D083D0E032ED
:021EF000A90740
:101EF200AE4BAF4C8F828E83A3E064037017AD01AB
:101F020019ED7001228F828E83E07C002FFDEC3E62
:091F1200FEAF0580DF7E007F00B8
:011F1B0022A3
:10206000121D9EE51E24FA600E146006240770F30C
:0C207000D322E4F51ED322E4F51ED32297
:10207C00121E04E51E24FA600E146006240770F389
:0C208C00D322E4F51ED322E4F51ED3227B
:101AD0008E258F2690E600E054187012E52624012A
:101AE000FFE43525C313F525EF13F526801590E6A1
:101AF00000E05418FFBF100BE52625E0F526E5258C
:101B000033F525E5261526AE25700215254E600510
:061B1000121F3080EE22DE
:101F30007400F58690FDA57C05A3E582458370F9C4
:011F4000227E
:03004300021300A5
:0300530002130095
:101300000220070002212D00022117000220FF0009
:10131000021CC500021CFC0002220F000222100069
:1013200002221100022212000222130002221400E3
:1013300002221500022216000222170002221800C3
:10134000022219000222100002221A0002221B00AF
:1013500002221C0002221D0002221E0002221F0087
:10136000022220000222100002221000022210009D
:101370000222210002222200022223000222240053
:101380000222250002222600022227000222280033
:101390000222290002222A0002222B0002222C0013
:1013A00002222D0002222E0002222F0002223000F3
:0813B00002223100022232008A
:1005AF000207B3E86480F8E933E83360110460F0C0
:1005BF00ED33EC337009E8FCE9FDEAFEEBFF2204B2
:1005CF0060DED3EB9FEA9EE99DE8C2E78CF0C2F7AD
:1005DF0095F0400CE8CCF8E9CDF9EACEFAEBCFFB79
:1005EF0012077E85D0F05804700320D5B3E804704D
:1005FF00075002B2D50207BD92D5EC0460F7E4CCE8
:10060F00C0E0C398F8603B94186008400DD0E0FB41
:10061F00020795E4FBFAC9FC8028E830E406E4C938
:10062F00FBE4CAFCE830E305E4C9CACBFCE8540795
:10063F006010F8C3E913F9EA13FAEB13FBEC13FCA0
:10064F00D8F130F52FC3E49CFCEF9BFFEE9AFEED43
:10065F0099FDD0E0FBEF4E4D4C701222DB030207E9
:10066F00BAEC2CFCEF33FFEE33FEED33FDED30E74C
:10067F00EB020795EF2BFFEE3AFEED39FDD0E0FBD5
:10068F0050130BBB00030207BDED13FDEE13FEEF7E
:08069F0013FFEC13FC020795A8
:1006A7000207BDEC5D046005E8590470030207B357
:1006B70012077E580460F6EC4860F2EC7004FDFE09
:1006C700FF22C860DB2481C85009C3986002500626
:1006D7000207BA9850CAF582E9294B4A7005AB82DE
:1006E7000207A975F0007C1A7880C3EF9BEE9AED9C
:1006F70099400DC3EF9BFFEE9AFEED99FDE842F09E
:10070700DC23ACF0D0E0FFD0E0FED0E0FDAB8220F0
:10071700E7101BEB60BAEC2CFCEF33FFEE33FEED7A
:1007270033FD020795E803F830E705C0F075F000E0
:10073700EF2FFFEE33FEED33FD40B830E7C280AA5E
:10074700EDD2E7CD33EC3392D524814006E4FFFEAA
:10075700FDFC22FCE4CFCECDCC24E0501174FF8009
:10076700EDC3CC13CCCD13CDCE13CECF13CF0470A6
:07077700F030D5DE02089707
:10077E00E9D2E7C933E833F892D5EDD2E7CD33ECC1
:07078E0033FC5002B2D5223A
:10079500EC30E7100FBF000C0EBE00080DBD0004C5
:1007A5000BEB6014A2D5EB13FCED92E7FD2274FF71
:1007B500FCFDFEFF22E480F8A2D574FF13FC7D80CA
:0307C500E480EFDE
:030000000214E304
:0C14E300787FE4F6D8FD75815602152ACA
:1007C800BB010689828A83E0225002E722BBFE022F
:0907D800E32289828A83E4932262
:1007E100BB010CE58229F582E5833AF583E02250CD
:1007F10006E92582F8E622BBFE06E92582F8E22217
:0D080100E58229F582E5833AF583E4932230
:10080E00BB010689828A83F0225002F722BBFE01C9
:02081E00F322C3
:10082000F8BB010DE58229F582E5833AF583E8F00E
:10083000225006E92582C8F622BBFE05E92582C8BA
:02084000F222A2
:10084200BC000BBE0029EF8DF084FFADF022E4CC9A
:10085200F875F008EF2FFFEE33FEEC33FCEE9DEC63
:10086200984005FCEE9DFE0FD5F0E9E4CEFD22EDA9
:10087200F8F5F0EE8420D21CFEADF075F008EF2FF3
:10088200FFED33FD4007985006D5F0F222C398FDE4
:050892000FD5F0EA2281
:0E089700C3E49FFFE49EFEE49DFDE49CFC2272
:1008A500D083D082F8E4937012740193700DA3A3E2
:1008B50093F8740193F5828883E4737402936860F6
:0608C500EFA3A3A380DFF6
:1008CB00D083D082F8E4937012740193700DA3A3BC
:1008DB0093F8740193F5828883E473740293B5F0F3
:0D08EB00067403936860E9A3A3A3A380D85B
:1019E3008B348A358936E4F53CF53DE53B153BAE52
:1019F3003A7002153A4E6033AB37AA38A939120749
:101A0300C8FFAB34AA35A936053DE53DAC3C7002B1
:101A1300053C14F5828C83EF120820EF60CD74012E
:101A23002539F539E43538F53880C0AB34AA35A902
:021A3300362259
:10215800E4FFFE1207C8600C0FEF70010E09E9706A
:05216800F20A80EF22E5
:1008F800EF4E6012EF60010EEDBB010B89828A8317
:10090800F0A3DFFCDEFA2289F05007F709DFFCA923
:0C091800F022BBFEFCF309DFFCA9F0227A
:1014EF00021455E493A3F8E493A34003F68001F2AA
:1014FF0008DFF48029E493A3F85407240CC8C333FE
:10150F00C4540F4420C8834004F456800146F6DFCC
:10151F00E4800B0102040810204080902143E47EF8
:10152F00019360BCA3FF543F30E509541FFEE493C1
:10153F00A360010ECF54C025E060A840B8E493A388
:10154F00FAE493A3F8E493A3C8C582C8CAC583CAB3
:10155F00F0A3C8C582C8CAC583CADFE9DEE780BE6B
:012157000087
:00000001FF
