:10090D000012010002000000400516034000000126
:10091D000200010A06000200000040010009021950
:10092D000001010080320904000001FF00000307EF
:10093D0005020200020009021900010100803209BE
:10094D0004000001FF00000307050202400000043F
:10095D000309040C034100430043004500530018F4
:10096D00035500530042002D004400410031003278
:10097D00002D00380045000C0344004100430020C9
:0B098D000044006100740061000000E5
:03000000020200F9
:1002000090E6007412F0750800750900750B007512
:100210000A00750C00750D00750E00750F007581D4
:100220005F7A007B007C007D007E0075B00075B5B4
:100230000F7580FF75B20675B37FD296D282D2B3A6
:10024000C295743690C003F07582007490F074010A
:10025000F0D295C2B3C0E0D2B39040007480F0C237
:10026000B3D0E0D290D293D292D291C2927E027158
:10027000DFC2937E0271DFC2907E0271DFC2917E87
:100280000271DFD2927E0271DFD2937E0271DFD2E1
:10029000907E0271DFD2917E0271DFC2900090E603
:1002A000047480F00090E6047400F00090E604749A
:1002B00002F00090E6047404F00090E6047406F086
:1002C0000090E6047408F00090E6047400F00090DA
:1002D000E69074FFF00090E69174FFF090E68B7466
:1002E000FFF090E6A07480F090E6B57401F090E61F
:1002F00080E020E10BD2E3D2E1F075F000D5F0FD13
:1003000090E680E0C2E3F0E50FA2E5500271D9204B
:10031000B70BE509B4010675080075090090E6A35E
:10032000E020E202E19290E65DE030E204E4D2E215
:10033000F020E00930E604E4D2E6F080CAE4D2E03E
:10034000F090E6A0E04480F090E6B9E0B406030245
:10035000087CB40A0261E6B40B0261E6B4090261EA
:10036000E6B4080261E6B40102807BB4003C90E68A
:10037000B8E0B4801890E7407402F0A37400F090E5
:10038000E68A7400F090E68B7402F08059B4811311
:100390007400F0A3F090E68A7400F090E68B74028B
:1003A000F08043B48202803E803CB4B0028039B415
:1003B000B102813DB4B2028159B4B302816AB4B4CE
:1003C0000281EEB4B50281F0B4A20281F2B4CC0293
:1003D000A122B4A302A1066107A280B3929422DCF9
:1003E000FEDDFCDEFA22A12C90E6BAE0C0E030E7A8
:1003F00017C0E0D2B39040007480F0C2B3D0E07573
:100400000900D291D293D292D0E0C0E030E600D081
:10041000E0C0E030E017D2949040007401D2B3F015
:10042000750901C2B3E50FA2B492E0F50FD0E0C0A8
:10043000E0A2E5E50F92E5F50FD0E0A12C90E6BC37
:10044000E0F50A90E6BDE0F50B90E6BBE05407F559
:100450000D12083D750801A12C90E6BCE0C5F09096
:10046000E6BDE0C5F0120823A12C758600D294D217
:10047000B39080107401F090E6BEE0B4001F90E6E7
:10048000BBE0F50090E6BAE0F50190E6BCE023F5AC
:1004900082758380E501F0A3E500F0804390E68B50
:1004A00074FFF090E6A0E05402B400F77585807503
:1004B000840090E740E0A38006A3A305840584B4EC
:1004C0000002801CC31350F1C0E0E00586F00586F1
:1004D000A30584E00586F00586A30584D0E080DFCF
:1004E000908012F09080107400F0C2B3803E803C87
:1004F000803A90E6B8E0B4C004B13A802FB440042A
:10050000D1638028802690E6B8E0B4C00890E68BDE
:1005100074FFF08017B4400890E68B74FFF0800CF5
:10052000800A90E6BCE0A2E09281800090E68A44D6
:1005300000F090E68B447FF0610790E6BEE0F9B4EE
:1005400000012290E6BAE0FAA3E0FBC0E0C082C05E
:100550008390E678E0D2E7F0D083D082D0E090E6D6
:100560007974A2F0C0E0C082C08390E678E030E009
:0D057000FCA2E1D083D082D0E0EBF0C0E02F
:10057D00C082C08390E678E030E0FCA2E1D083D069
:10058D0082D0E0EAF0C0E0C082C08390E678E0302F
:10059D00E0FCA2E1D083D082D0E090E740AA82783F
:1005AD0000C0E0C082C08390E678E0D2E7F0D0834F
:1005BD00D082D0E090E67974A3F0C0E0C082C08311
:1005CD0090E678E030E0FCA2E1D083D082D0E0E08C
:1005DD00B90113C0E0C082C08390E678E0D2E5F0A7
:1005ED00D083D082D0E0C0E0C082C08390E678E0B6
:1005FD0030E0FCA2E1D083D082D0E0E9C398C0E026
:10060D00B40213C0E0C082C08390E678E0D2E5F07A
:10061D00D083D082D0E0B40113C0E0C082C08390FB
:10062D00E678E0D2E6F0D083D082D0E090E679E0B3
:10063D0090E7408A82F0080AD0E0B401A990E68BD9
:10064D00E9F0C0E0C083C08290E678E020E6FCD0FF
:10065D0082D083D0E02290E6BEE0F9B4001922C02A
:10066D00E0C082C08390E678E0D2E6F0E020E6FCC0
:10067D00D083D082D0E02290E68B74FFF090E6A07C
:10068D00E05402B400F790E6BAE0FAA3E0FBC0E054
:10069D00C082C08390E678E0D2E7F0D083D082D0DC
:1006AD00E090E67974A2F0C0E0C082C08390E67855
:1006BD00E030E0FCA2E1D083D082D0E0EBF0C0E0EE
:1006CD00C082C08390E678E030E0FCA2E1D083D018
:1006DD0082D0E0EAF0C0E0C082C08390E678E030DE
:1006ED00E0FCA2E1D083D082D0E090E7407A00E533
:1006FD00822AF582E090E679F0C0E0C082C0839056
:10070D00E678E030E0FCA2E1D083D082D0E00A1997
:10071D00E9B400DBC0E0C082C08390E678E0D2E6A9
:10072D00F0E020E6FCD083D082D0E0C0E0C082C0F3
:10073D008390E678E0D2E7F0D083D082D0E090E6E7
:10074D007974A2F0C0E0C082C08390E678E030E01A
:10075D00FCA2E1D083D082D0E0C0E0C082C0839003
:10076D00E678E0D2E6F0E020E6FCD083D082D0E05F
:10077D00C0E0C082C08390E678E0A2E1D083D08251
:10078D00D0E050A722E50820E0028019B29190E652
:10079D0091E0F990E690E0F8B40006E9B40002802B
:1007AD0004F1C2B2920090E69074FFF00090E691D1
:1007BD0074FFF06107E50B543F4440F5F0AA0AE9D8
:1007CD00250AF50AE8350B543FF50B75860090F0B8
:1007DD000085F0858A8409D902801AA30586A3E5D0
:1007ED008530E70D758540E50D045407F50D1208AC
:1007FD003D0586D9E608D802801BA30586A3E585AD
:10080D0030E70C758540E50D045407F50D113D05D8
:10081D0086D9E7D8E522D2B3C295C0E0743690C030
:10082D0003F0758200D0E0F0E5F0F0D295C2B3226E
:10083D00C0E0E50D1392B01392B11392B2E50DB471
:10084D000021E50EB4071CE50930E017E50F30B7C0
:10085D000EA2B4400520E00780F430E00280EF9254
:10086D00E0F50F850D0ED0E0D291D293D292229069
:10087D00E6BBE0B4010F90E6B37409F090E6B474F2
:10088D000EF0020307B4020F90E6B37409F090E680
:10089D00B4742AF0020307B4020F90E6B37409F0A2
:1008AD0090E6B47443F0020307B4033990E6BAE05E
:1008BD00B4000E90E6B37409F090E6B4745CF08069
:1008CD0035B4010E90E6B37409F090E6B47460F09F
:1008DD008024B4020E90E6B37409F090E6B4746C03
:0D08ED00F080138011B4060E90E6B374097C
:1008FA00F090E6B47420F0800090E6A0E04480F026
:03090A00020307DE
:00000001FF
