:1021F5005553422D44494F2D3332005553422D44FA
:10220500494F2D3234005553422D4F544845520005
:10160000EF75F00CA4248CF582E43428F58375F092
:1016100004EE120517E4F0EEC4333354C04432FD37
:10162000EF75F00CA4248BF582E43428F58375F073
:1016300004EE020517E4902886F0A374FFF0A3F0EF
:10164000A3F0A3F022E0F580A3E0F590A3E0F5A0DD
:10165000A3E0F5B022E490E68AF090E6BEE090E6E2
:0C1660008BF022AB2AAA2BA92C02043A22
:04002E0043B1202298
:0400460053B1DF22B1
:04004E0063B1202258
:0100320022AB
:101C74007AE779407F40AB077D017F037E00121D28
:101C84009D90E740E0FF90010CF024FB600C2404DD
:101C940070107BFF7A2179F5800E7BFF7A22790020
:0C1CA40080067BFF7A22790B1219732254
:1020BB00902806E060031217A4902808E060031232
:1020CB001B0C90281AE06003121BA490285CE060A4
:0B20DB000990281BE060031219CA22C4
:03004000021C742B
:01004A002293
:01005200228B
:0112FF0022CC
:1018C100EF5407FE7401A806088002C333D8FCFE5A
:1018D100EF131313541FFFED601EEF14600E14601D
:1018E1000F14601024037031EE428022EE429022E8
:1018F100EE42A022EE42B022EF14600F14601114E8
:10190100601324037013EEF4528022EEF4529022FD
:0A191100EEF452A022EEF452B022D0
:101CB000EF54F824F8601024F8601024F860102421
:101CC00018700EAE80800AAE908006AEA08002AE84
:101CD000B0EF5407FF7401A807088002C333D8FC93
:0C1CE0005206EE60047F0180027F0022AB
:10000E00E580120480900001E590120492900002A7
:0D001E00E5A0120492900003E5B0020492E8
:1020080012043A90285EF0F5809000011204539073
:10201800285FF0F590900002120453902860F0F5C4
:0E202800A0900003120453902861F0F5B0223E
:10191B008B2A8A2B892C12043AFF30E0047EFF803D
:10192B00027E008EB2EF30E1047FFF80027F008FDA
:10193B00B3121663FF30E2047EFF80027E008EB48A
:10194B00EF30E3047FFF80027F008FB5AB2DAA2E13
:10195B00A92F12043A5401C454F0FF121663540F0A
:08196B004F90285DF0F5B12258
:10157F007E007FAF7D007B017A287900120576907F
:10158F002800740AF0E412163E90285D12163912E4
:10159F001635E4902805F0902804F0902807F09075
:1015AF002806F0902808F0A3F090281AF0A3F090E6
:1015BF00285CF0FFE4FEEF75F00CA42463F582E4E1
:1015CF00342812162CE4F0EEC4333354C04432FDE9
:1015DF00EF75F00CA42462F582E4342812162CED7A
:1015EF00F0121600EDF00EBE03CC0FEF640370C4C3
:0115FF0022C9
:101A6E0090E600E054E7F075B63F90285E121645FA
:101A7E0090285DE0FF30E0047EFF80027E008EB293
:101A8E00EF30E1047FFF80027F008FB390285DE08E
:101A9E00FF30E2047EFF80027E008EB4EF30E3045E
:101AAE007FFF80027F008FB590285DE0F5B10224A4
:011ABE002EF9
:1023EB008F248D253006030201E2AD25AF241202A6
:0223FB000122BD
:012480002239
:012481002238
:10238400121635E4FFE4FE121600EDF00EBE02F75D
:052394000FBF03F12260
:101ABF00902887121645902886E0FF30E0047EFFBD
:101ACF0080027E008EB2EF30E1047FFF80027F0044
:101ADF008FB3902886E0FF30E2047EFF80027E0005
:101AEF008EB4EF30E3047FFF80027F008FB5902824
:0D1AFF0086E0F5B17B017A28798B02166C28
:1011BE00D204120B0F500302127590E6B9E024ED23
:1011CE00600E24E3607214606F241F6003021273BA
:1011DE0090E6B8E030E723E5B1540F90E740F0E534
:1011EE00B130E4047F0180027F0090E741EFF07B95
:1011FE00017AE7794212000E805F12165590E6A032
:10120E00E020E1F990E6BDE0FF90E6BCE04F700B08
:10121E00752D01752EE6752FBA8009752D01752E67
:10122E00E7752F417B017AE7794412191B7B017A0E
:10123E00E77940122008802F7B017AE7794012006F
:10124E000EE5B1540F90E744F0E5B130E4047F01B0
:10125E0080027F0090E745EFF012165590E6A0E071
:09126E004480F08002D322C32267
:1001020012010002000000400516018001000102F8
:020112000001EA
:0A0116000A0600020000004001008C
:1001220009022000010100A0FA0904000002FF00F8
:100132000000070502020002000705860200020015
:1001440009022000010100A0FA0904000002FF00D6
:10015400000007050102400000070581024000007D
:100166001403000000000000000000000000000072
:1001760000000000260341004300430045005300F1
:10018600200049002F004F002000500072006F0031
:10019600640075006300740073002003550053006B
:1001A60042002D00440049004F002D00330032006C
:1001B6000000000000000000000000008081828333
:1001C600848586879091929394959697A0A1A2A3F1
:1001D600A4A5A6A7B0B1B2B3B4B5B6B7C0D0C0E0B7
:1001E600EF9001C2939001F9F0ED9001C293900156
:1001F600FBF0A2009200D0E0D0D022C0D0C0E0EF49
:100206009001C293900218F0ED9001C29390021BE8
:0B021600F0A200B39200D0E0D0D02294
:10233800564D617920323920323031394031333AC3
:0B23480030323A333800000000000083
:1023AE000215234F02080000010F01010C01010A62
:0423BE00010112FF08
:1008F900E0FFAE2F052F74402EF582E434E7F5832F
:100909002275F00CE542120517E54175F00CA42596
:1009190083F583E5822FF582E5833EF58322E49012
:10092900E68AF090E6BEE090E68BF022EC75F008DE
:10093900A4FFED7A002FFFEA35F0FEE42FF582746B
:10094900803EF5832275F009E52BA4F58285F083B5
:1009590075F003E52D120517E5822290E740F0E4D2
:1009690090E68AF090E68B22E0FE74D32FF582E4BC
:100979003428F583E022FF7444252BF582E434E71B
:10098900F583EFF0052BE52B22AA39A93A75F00C6E
:10099900E53CA4F58285F08375F004E53B12051763
:1009A900020453FF7E000DEE2516F582E43515F598
:1009B900832275F008A42403F582E5F03480F583D9
:1009C90022252FF52FE532352EF52EC3E531953346
:1009D900F531E5309532F53022E490E68BF090E67A
:1009E900BAE0FFA3E0FD2274402535F58274E735AE
:1009F90034F583227586005391EF90E65D222486B3
:100A09007C007B01F9EC2235F0FAE53B75F004A492
:100A190029F9EA35F0FA22E49028E1F0A3F0F51774
:100A2900F5182274DD252BF582E43428F58322ECB0
:100A390025E0240AF582E43428F583E0FE547FFF9B
:100A4900EE2274B32FF582E43428F5832274AF2E95
:100A5900F582E43428F583E0227DAF7A287B007F94
:100A6900017E1F2290E6BEE0640122C3E53595337D
:100A7900E53495322274D92FF582E43428F583229E
:100A890090E6BEE0640222F583EFF090E741E0FFD3
:100A9900EE25E022E52F2535F582E52E3534F5835F
:100AA90022854C50854D5185545285555322855484
:100AB90050855551854C52854D5322AC07C41313AB
:100AC9005403FD22AF047E007C00754700F54822DF
:100AD90090E6A0E04480F02275F00CE53E1205177F
:100AE900E53D22AD337AE77B40AF2FAE2E22902829
:100AF90000740AF0E4A3F0227C007B01F9EC227B6C
:060B0900017AE7794022A9
:1020E6008B3FA905E9120AC4EC1209BBE9F01209F3
:1020F60035E53FF0120944E540F0AB01E53F120A31
:0B210600CDE540754900F54A021C358C
:10239900AB05EB120AC6EF1209BBEBF07E007C001D
:0523A9007A000220365D
:10218A008D2FA903E52F120AC4120935E9F01209A5
:10219A0044E531F0AB2FE9120ACDE531754900F576
:0421AA004A021C3594
:10174100A9077401A805088002C333D8FC25E04429
:10175100C0FF75F008E91209BEEFF0E975F008A4C1
:10176100FFED7583002FFFE583120941E0FC744210
:101771002BF582E434E7F583ECF0120944E0FF74C1
:10178100402B120902EFF0E975F008A47C002DFF4F
:10179100EC120941E0FF74412BF582E434E7F58353
:0317A100EFF02244
:10166C008B388A39893AE4F53CE4F53BE53C75F076
:10167C000CA4AB38253AF9E539120A109000011286
:10168C000453602A120992FCE53C75F00CA429F96C
:10169C00EA120A10900002120453FD900003120487
:1016AC0053F540AB05AD04AF3C1220E6800BAB38D4
:1016BC00120992FDAF3C122399053BE53BC3940202
:0C16CC0040AA053CE53CC39403409E226C
:10235300902803E0FF7006902802E06008902802AE
:09236300E0FD0200E412247122E5
:1022E7007E007FAF7D007B017A2879001205761288
:0B22F7000AF712157F121A6E0223FD79
:102215007D02120A64121D9D902800E0B40A04A3F1
:10222500E060030222E7120A62121D9D121A6E2255
:1023FD00120AF7120A62121E7A7DAF7F007E1F024B
:02240D00246E3B
:1018070012235390E6BEE0F539753B02E539604B8C
:10181700C39440500585393A8003753A40120968E8
:10182700E53AF090E6A0E020E1F9E4F538E538C3C1
:10183700953A501E74402538120902E0FFAE3B0569
:101847003BEE2400120A093428FAEF120480053807
:0E18570080DBC3E539953AF53980B1022353A1
:09242E007B017A28796202166C28
:101C35008E418F428C438D448A458B46E544AE43A5
:101C45007802C333CE33CED8F9FF90286312090A40
:101C55007401F090286412090AE548F0902865128D
:0F1C6500090AE54AF090286212090AE546F022C2
:102036008E3D8F3E8C3F8D40E540AE3F7802C333E8
:10204600CE33CED8F9FF902863120AE1120914E4C0
:0D205600F0902862120AE1120914EBF0224A
:1012770090E6B8E030E733E4F52FF52EE52EC3947A
:101287002950207E007B01745D252EF9EE3428FA63
:1012970012043AFF7440252F120902EFF0052E05BC
:1012A7002F80D9120927120AD92212092C90E6A0F9
:1012B700E020E1F990E6BEE064296003C20422E47D
:1012C700F52EF52FE52EC39429501D7440252F12B6
:1012D7000902E0FFE52E245D120B013428FAEF1214
:1012E7000480052E052F80DC90E6BAE0B4CE08A373
:0812F700E0B4AC031223FD2258
:0F241F00D3E518950EE517950D400312243722CB
:012482002237
:1021D200902805E0FE902804E07C002400F50EEC37
:1021E2003EF50D450E7007C28CC2A9C20522D28CE3
:0321F200D2A9224D
:012483002236
:101D630012092C90E6A0E020E1F9E4FF74422FF57C
:101D730082E434E7F583E0FEEF120A073428FAEE33
:101D83001204800FBF29E590E740E0902804F0900B
:0A1D9300E741E0902805F00221D29C
:09243700121ABF120A20D205227C
:10236C00C205120A20C28CC2A9538EF75389F143BD
:08237C0089011224830221D221
:101E0E00E50945086019E50915097002150814C39E
:101E1E0094FFE508648094805016120046801130BD
:101E2E00040E7508057509FF12002EC204120A2051
:061E3E00300502D204226F
:1010EB0090E6B8E030E75CE4F52F9028041208F99D
:1010FB00EFF09028051208F9EFF0E4F52EE52EC37A
:10110B00942950207E007B017486252EF9EE34281D
:10111B00FA12043AFF7440252F120902EFF0052E44
:10112B00052F80D91208FBE518F0E5171208FAEF26
:10113B00F0A205E4331208FAEFF0C20512092712E8
:10114B000AD92212092C90E6A0E020E1F9C2059001
:10115B00E6BEE0642B6003C20422E4F52FAF2F053B
:10116B002F74402F120902E0902804F0AF2F052FA7
:10117B0074402F120902E0902805F0E4F52EE52EBD
:10118B00C39429501B7440252F120902E0FFE52E52
:10119B00120A073428FAEF120480052E052F80DE81
:1011AB001221D290E6BAE0B4CE08A3E0B4AC03129D
:0311BB0023FD22EF
:04246200750F0122CF
:1018650012235390E6BEE0F539E4F53BE539604BCC
:10187500C39440500585393A8003753A401209688A
:10188500E53AF090E6A0E020E1F9E4F538E538C363
:10189500953A501E74402538120902E0FFAE3B050B
:1018A5003BEE241B120B013428FAEF120480053895
:0C18B50080DBC3E539953AF53980B1229B
:1019CA00150FE50F704B90281BE0F50F122480E4E9
:1019DA00F52190285CE0FFE521C39F5031E52125E0
:1019EA00E0241CF582E43428F583E0F522E521257C
:1019FA00E0241DF582E43428F583E0F523547FFDC5
:101A0A00E523339206AF221223EB052180C4122468
:021A1A00812227
:1023020012092C90E6A0E020E1F990E740E0902845
:0B23120006F090E741E0902807F02261
:1017A400150CE50C705C902806E0F50C7B017A289A
:1017B40079E312000EE4FFFE74E32EF582E434288C
:1017C400F583E0FD120A566DF97D01E4FCECC39447
:1017D400085029E95D6013120A4BE014F0120A4B19
:1017E400E07011120A566DF08000902807E0FB1299
:1017F4000A4BEBF00CED25E0FD0F80D10EEE6404F6
:0318040070B62299
:1023D80012092C90E6A0E020E1F990E740E090286F
:0323E80008F022D8
:10227300E4F513FF120973FE74DD2F120A30EEF03A
:0E228300120973FE120A7EEEF00FBF04E7226E
:101B0C00150AE50A7045902808E0F50A7B017A2849
:101B1C0079D312000EE4FF74DD2F120A30C083C09B
:101B2C0082120971FDEE5DD082D083F0120A7EC064
:101B3C0083C082120971FDEE4DD082D083F00FBFAD
:0C1B4C0004D5E513C394FF5002051322DA
:042466007512FF22CA
:101BA400E4FC051290281AE0FFECC39F5032EC25A8
:101BB400E0240BF582E43428F583E0C39512500E3B
:101BC400120A3830E7047D0080107D01800C120A6F
:101BD4003830E7047D0180027D001218C10C80C4F6
:0B1BE400902809E0B51203E4F512227E
:10213C0012092C90E6A0E020E1F9E4FF74402F1284
:10214C000902E0FEEF7C007B012409F9EC3428FA4B
:09215C00EE1204800FBF12E42210
:100056008E388F39E4F53AE53964024538700C90EC
:10006600E741F0E539153970021538E5396401457F
:1000760038701090E74074AF12092BE539153970C6
:10008600021538E5394538605490E6A0E020E1F9DC
:10009600C3E5399440E53894005004AD3980027DBB
:1000A60040E4FFEFC39D5021AE3A053AEE7583005A
:1000B6007B012400F9E5833428FA12043AFE7440E1
:1000C6002F120902EEF00F80DA120968EDF0FFC375
:0E00D600E5399FF539E5389400F53880A6220B
:1005A20090E6B8E030E76090E6BFE0FE90E6BEE09D
:1005B200FDEDFF4E7002804A90E6BDE0FD90E6BC84
:1005C200E04D700302005690E6BDE060030208F8B9
:1005D20090E6BCE01460030208F8753BFF753C230B
:1005E200753D38753E00753F1E7B017AE7794112F1
:1005F2001A1C120B081223C3EF0490E740F090E696
:10060200BEE090E68BF02290E6BFE0FF90E6BEE00F
:100612004F707790E6BDE0704D90E6BCE024EF604D
:1006220023249F603024FD603324F36034247270ED
:100632003590E6BAE064CE702DA3E064AC70271268
:1006420023FD802290E6BAE0B4CE1BA3E0B4AC1640
:100652001222E78011E490281AF0800A7512FF80B6
:1006620005E490285CF090E6BDE064806003020837
:10067200F890E6BCE0640160030208F890E6BAE094
:10068200902802F090E6BB02074B90E6BFE06003C1
:100692000208F890E6BDE0FE90E6BCE07C00240093
:1006A200FFEC3EFEEF8EF012054906F4002006F440
:1006B200002106F4002206F400230729002F075325
:1006C200004107610051076C0053078900610794DC
:1006D200006307B1007107BF007307DC00740821D3
:1006E2000081082F0083084C0084089280010000DA
:1006F20008F890E6BEE0B4AD0312180790E6BCE03D
:1007020030E003121A6E90E6BCE020E1030208F822
:1007120090E6BAE064CE60030208F8A3E064AC603D
:10072200030208F80223FD120A8960030208F8E0B6
:1007320090E68BF090E6A0E020E1F912235390E7D7
:1007420040E0902802F090E741E0902803F0020890
:10075200F590E6BEE0642B60030208F8021D631206
:100762000A8960030208F8022302120A6D6003027A
:1007720008F8E090E68BF090E6A0E020E1F990E73F
:1007820040E0902806F022120A6D60030208F80287
:1007920023D8120A6D60030208F8E090E68BF0900D
:1007A200E6A0E020E1F990E740E0902808F02290EE
:1007B200E6BEE0641260030208F802213C120A6DF0
:1007C20060030208F8E090E68BF090E6A0E020E1FA
:1007D200F990E740E0902809F022120A89600302AA
:1007E20008F890281AE0C3940840030208F8120996
:1007F2002C90E6A0E020E1F990E740E0FF90281A73
:10080200E0FE25E02408F582E43428120A90240947
:10081200F582E43428F583EFF090281A02088E90CE
:10082200E6BEE0644260030208F8021865120A6D2F
:1008320060030208F8E090E68BF090E6A0E020E189
:10084200F990E740E090281BF022120A8960030227
:1008520008F890285CE0C3942040030208F81209CB
:100862002C90E6A0E020E1F990E740E0FF90285CC0
:10087200E0FE25E0241AF582E43428120A90241BB3
:10088200F582E43428F583EFF090285CE004F0224E
:1008920012092C90E6A0E020E1F990E6BEE06404A3
:1008A200705490E740E0FCA3E0FDA3E0FEA3E0F576
:1008B200318E308D2F8C2EFBAA30A92FA82E7F00CF
:1008C2007E1B7D377C4B12031C8F358E348D338C0F
:1008D20032AB35AA34A933A832E4FFFE7D807C47CF
:1008E2001202241203B98E368F37EF902802F0E5F8
:0708F20036A3F0122353228C
:10231D0090E6047480F00000007402F00000007478
:0B232D0006F0000000E4F000000022B9
:012484002235
:101D2800E4F52A7AE779407F40AB077D087FF87EA3
:101D38001D121D9DE4F52A7440252A120902E0FDB2
:101D4800E52A75F002A42468F9740135F08982F552
:0B1D580083EDF0052AE52AB408DD2227
:101CEC0090E678E05410FFC4540F4450F51013E400
:101CFC0033F514438E2012003212245A121D28126E
:101D0C000040D20012221512236C1224621222738C
:0C1D1C0012246612235312004602004AF3
:10229100120052121E0E12241FE5B190E68020E7B3
:0E22A10006E04408F08004E054F7F00212FF5B
:101973008B2A8A2B892CE4F52D1223C38F2EE52E77
:1019830025E024029001A0F0E4F52DAF2EEF33956E
:10199300E0FEC3E52D9FEE6480F87480985027AB7A
:1019A3002AAA2BA92C852D82758300120453FDE5E9
:1019B3002D75F002A424A2F9740135F08982F58310
:0719C300EDF0052D80C522A7
:101DD6008E3E8F3FAC05E4FDE5146007E53E120933
:101DE600ACEFF0AE050DE5162E1209B3E53FF0AFE8
:101DF600050DE5162F1209B3ECF0AB16AA15AF10B8
:081E06001222CBAF10021E44B2
:03246E00021DD676
:101E7A008E388F398D3A8A3B8B3CE4F53DE53DC37C
:101E8A00953A50200539E539AE387002053814FF05
:101E9A00E53C253DF582E4353BF583E0FD12246EF1
:051EAA00053D80D92276
:101D9D008E368F378D388A398B3AE4FDF53BE51455
:101DAD006007E5361209ACEFF0AE050DE5162E1203
:101DBD0009B3E537F0AB16AA15AF101222CBAB3A2B
:091DCD00AA39AD38AF100222AFB3
:100EC70090E6BAE0752E00F52FA3E0FEEE422E90D5
:100ED700E6BEE0753000F531A3E0FEEE423090E665
:100EE700B8E064C06003020F8DE53145307003023E
:100EF7000FE290E6A0E020E1F9C3E5319440E53048
:100F0700940050088530328531338006753200757C
:100F1700334090E6B9E064A3704090E6BCE0B401CA
:100F27001BA3E0701790E6BBE030E71090E7407432
:100F370003F0A37401F0A37403F0803EE4F534F5E5
:100F470035120A745034120A9DE0FF1209F0EFF0CF
:100F57000535E53570EB053480E7E4F534F53512F2
:100F67000A7450101209F074CDF00535E53570EFAD
:100F7700053480EB120AEC121D9D120968E533F067
:100F87001209CA020EF090E6B8E06440704DE531F0
:100F970045306047120968F090E6A0E020E1F9903B
:100FA700E68BE0753200F53390E6B9E0B4A31EE4B2
:100FB700F534F535120A74501A1209F0E0FF120AD7
:100FC7009DEFF00535E53570EB053480E7120AEC47
:0C0FD700121E7AE5331209CA020F95229F
:02247400C32281
:02247600D3226F
:02247800D3226D
:0800030090E6BAE0F50BD322F0
:09244000E50B12096404F0D3223B
:0824520090E6BAE0F511D32277
:09244900E51112096404F0D3222C
:02247A00D3226B
:02247C00D32269
:02247E00D32267
:1013B800E4FF90E6B8E020E7030214640F0F7440DE
:1013C8002401120902740AF00F744024021209025F
:1013D800E4F00F74402403120902E4F00F7440246F
:1013E800041209027401F00F7440240512090274F2
:1013F80004F00F744024061209027403F00F7440BD
:101408002407120902E4F00F744024081209027438
:10141800FFF00F7440240912090274FFF00F7440A2
:10142800240A1209027408F00F7440240B120902EE
:101438007420F00F7440240C120902741FF00F740A
:1014480040240D120902741FF00F7440240E120973
:0D145800027401F090E740EFF01209272226
:100B0F0090E6B9E01205230B68100B68110BA114C6
:100B1F000C12150C78200C89210C92220CA2230C9C
:100B2F0031250CA2270B56280B502E0B4A3C0B627B
:100B3F003F0B5CA20B5CA300000D191205A2020D66
:100B4F001B1210EB020D1B121277020D1B120EC798
:100B5F00020D1B1213B8020D1B90E6B8E030E70927
:100B6F00120B0812000E020C2A90E6BEE0701090D5
:100B7F00E6BCE0FF90E6BAE0FD1218C1020D1B12B1
:100B8F00092C90E6A0E020E1F9120B0812200802D0
:100B9F000D1BC2AF90E750E513F0E4F5137B017A1C
:100BAF00E7794C12000EE4F52B74D3252B1209763E
:100BBF00FF7440252B12090212098BB404EB90E647
:100BCF00BCE06010E4F52B120A2CE0F412097FB49C
:100BDF0004F5800DE4F52B120A2CE012097FB40402
:100BEF00F6E4F52B74D9252B120A81E0FF74482502
:100BFF002BF582E434E7120989B404E8122273D288
:100C0F00AF8018E4F52B74AF252B120A59FF7440EF
:100C1F00252B12090212098BB404EBE490E68AF03B
:100C2F00804F90E6BCE06401603D90E6BEE0B41BEF
:100C3F00047F0180027F008F2AE4FAF52CE4F52B64
:100C4F00E52BC39403501CAF02AB2CAD2B121741F5
:100C5F00052BE52A60047F0380027F02EF252CF528
:100C6F002C80DD0ABA03D680081209E7E4FB1217BD
:100C7F004112092C120AD9020D1B1209E2122399F3
:100C8F00020D1B1209E2A3E0FBA3E0F53112218A4A
:100C9F00020D1B90E6BEE070101209E7A3E0FBA364
:100CAF00E0F5401220E6020D1B90E6BEE0641B70DB
:100CBF005BE090E68BF090E6A0E020E1F9E4F52B05
:100CCF00E4F52D12094E2440F582E58334E7F583D0
:100CDF00E0FD12094E2441F582E58334E7F583E008
:100CEF00FB12094E2442F582E58334E7F583E0F5E4
:100CFF0040AF2B1220E6052DE52DC3940340C4050C
:0E0D0F002BE52BC3940340B88002C322D322ED
:10211100C0E0C083C082C085C084C086758600903F
:10212100E6B5E04401F0D201120A007401F0D08654
:0B213100D084D085D082D083D0E03273
:10223500C0E0C083C082C085C084C0861209FD7419
:0F22450004F0D086D084D085D082D083D0E03210
:10225400C0E0C083C082C085C084C0861209FD74FA
:0F22640002F0D086D084D085D082D083D0E032F3
:101F1500C0E0C083C082C085C084C086758600903D
:101F2500E680E030E705120AAA8003120AB7120A12
:101F3500007410F0D086D084D085D082D083D0E0D4
:011F45003269
:1021AE00C0E0C083C082C085C084C086758600D260
:1021BE0003120A007408F0D086D084D085D082D065
:0421CE0083D0E032A8
:101F4600C0E0C083C082C085C084C086758600900C
:101F5600E680E030E705120AAA8003120AB7120AE1
:101F6600007420F0D086D084D085D082D083D0E093
:011F76003238
:012485003224
:012486003223
:012487003222
:012488003221
:012489003220
:01248A00321F
:01248B00321E
:01248C00321D
:01248D00321C
:01248E00321B
:01248F00321A
:012490003219
:012491003218
:012492003217
:012493003216
:012494003215
:012495003214
:012496003213
:012497003212
:012498003211
:012499003210
:01249A00320F
:01249B00320E
:01249C00320D
:01249D00320C
:01249E00320B
:01249F00320A
:0124A0003209
:0124A1003208
:0124A2003207
:0124A3003206
:0124A4003205
:0124A5003204
:0124A6003203
:0124A7003202
:0124A8003201
:1000E400E4F5C8E58E54074438F58E8FCB8FCDAF39
:0C00F400058FCA8FCCD2BDD2ADD2CA227B
:101F7700AB07AA06A905A8047F007E1B7D377C4B0B
:101F870012031CAB07AA06A905A804E4FFFE7D807F
:101F97007C471202241203B9AD07AC06AF04020056
:011FA700E455
:10240F00AD07AC06C3E49DFBE49CFFEBFD0200E4CB
:03247100C2CA22BA
:03002B00021B585D
:101B5800C0E0C0F0C083C082C085C084C0867586DE
:101B680000C0D075D000C000C001C002C003C004CE
:101B7800C005C006C0071220BBC2CFD007D006D010
:101B880005D004D003D002D001D000D0D0D086D068
:0C1B980084D085D082D083D0F0D0E03221
:0A00360000010202030304040505A3
:101FA800EC4EFEED4F2436F58274003EF583E49343
:101FB800FF3395E0FEEF24A1FFEE34E68F82F58330
:101FC8002290E6BCE0547EFF7E00E0D394807C0043
:011FD80022E6
:03000B000216D802
:1016D800C0E0C0F0C083C082C085C084C086758663
:1016E80000C0D075D000C000C004C005C006C00747
:1016F800054BE54BB406270518E51870020517AE2B
:1017080017FF7C007D0A1204B4ED4C700E9028E29D
:10171800E004F070069028E1E004F0754B00D00773
:10172800D006D005D004D000D0D0D086D084D085C3
:09173800D082D083D0F0D0E03261
:10146500E4F529F528F527F526C203C200C202C214
:1014750001121CEC754E01754F0275560175571614
:10148500754C01754D227554017555447558017596
:101495005966D2E843D82090E668E04409F090E622
:1014A5005CE0443DF0D2AFD207121FD990E680E050
:1014B50054F7F0C203300105120D1DC20130032996
:1014C5001224745024C20312216520001690E6826E
:1014D500E030E704E020E1EF90E682E030E604E06A
:0E14E50020E0E412206312247612229180C7C8
:100D1D0090E6B9E07003020DCE147003020E22248A
:100D2D00FE7003020E7C24FB7003020DC8147003C9
:100D3D00020DC214607314607624056003020EB3B5
:100D4D001224784003020EBF90E6BBE024FE602221
:100D5D0014603324FD601114602224067048E54EA2
:100D6D0090E6B3F0E54F8037E55690E6B3F0E557E2
:100D7D00802DE55090E6B3F0E5518023E55290E6E5
:100D8D00B3F0E553801990E6BAE0FF12208FAA0662
:100D9D00A9077B01EA494B600DEE90E6B3F0EF90A9
:100DAD00E6B4F0020EBF020EB8122449020EBF12B5
:100DBD002452020EBF120003020EBF122440020E77
:100DCD00BF12247A4003020EBF90E6B8E0247F6084
:100DDD00151460192402703AA200E43325E0FFA235
:100DED0002E4334F8018E490E740F08016121FC9DB
:100DFD0040047D0180027D00121FA8E0540190E7A0
:100E0D0040F0E4A3F090E68AF090E68B7402F002D5
:100E1D000EBF020EB812247C4003020EBF90E6B83E
:100E2D00E024FE601624026003020EBF90E6BAE0D5
:100E3D00B40105C200020EBF020EB890E6BAE07012
:100E4D002C121FC940047D0180027D00121FA8E0F5
:100E5D0054FEF090E6BCE05480131313541FFFE0D2
:100E6D00540F2F90E683F0E04420F08045803C1233
:100E7D00247E503E90E6B8E024FE601A24027032C3
:100E8D0090E6BAE0B40104D200802790E6BAE0B44F
:100E9D000202801E8015121FC940047D0180027D53
:100EAD0000121FA880081211BE500790E6A0E04462
:0A0EBD0001F090E6A0E04480F0226E
:0300330002246A3A
:04246A0053D8EF3222
:1020630090E682E030E004E020E60B90E682E03088
:10207300E119E030E71590E680E04401F07F147E3B
:0C20830000121BEF90E680E054FEF022FB
:1021650090E682E044C0F090E681F04387010000EC
:042175000000002244
:101FD90030070990E680E0440AF0800790E680E047
:101FE9004408F07FDC7E05121BEF90E65D74FFF07C
:0F1FF90090E65FF05391EF90E680E054F7F0220E
:08245A00E4F51ED2E9D2AF2225
:101E440090E678E020E6F9C2E990E678E04480F094
:101E5400EF25E090E679F090E678E030E0F990E65E
:101E640078E04440F090E678E020E6F990E678E007
:061E740030E1D6D2E922A4
:101EE300A90790E678E020E6F9E51E702390E678EE
:101EF300E04480F0E925E090E679F08D19AF03A97D
:101F030007751A018A1B891CE4F51D751E01D3226E
:021F1300C322E7
:101EAF00A90790E678E020E6F9E51E702590E67820
:101EBF00E04480F0E925E0440190E679F08D19AF18
:101ECF0003A907751A018A1B891CE4F51D751E03EA
:041EDF00D322C32225
:03004B00020FE3BE
:100FE300C0E0C083C082C085C084C086758600C04F
:100FF300D075D000C000C001C002C003C006C00746
:1010030090E678E030E206751E060210CD90E67891
:10101300E020E10CE51E64026006751E070210CD98
:10102300E51E24FE605F14603624FE70030210BECA
:1010330024FC70030210CA240860030210CDAB1A0B
:10104300AA1BA91CAF1D051D8F82758300120453B3
:1010530090E679F0E51D65197070751E05806B903B
:10106300E679E0AB1AAA1BA91CAE1D8E827583001C
:10107300120492751E02E5196401704E90E678E041
:101083004420F08045E51924FEB51D0790E678E07D
:101093004420F0E51914B51D0A90E678E04440F0C9
:1010A300751E0090E679E0AB1AAA1BA91CAE1D8E33
:1010B30082758300120492051D800F90E678E04448
:1010C30040F0751E008003751E005391DFD007D0DA
:1010D30006D003D002D001D000D0D0D086D084D0A7
:0810E30085D082D083D0E032F9
:02208F00A9079F
:10209100AE58AF598F828E83A3E064037017AD01F0
:1020A10019ED7001228F828E83E07C002FFDEC3EC2
:0920B100FEAF0580DF7E007F0018
:0120BA002203
:1022AF00121EAFE51E24FA600E146006240770F3A9
:0C22BF00D322E4F51ED322E4F51ED32246
:1022CB00121EE3E51E24FA600E146006240770F359
:0C22DB00D322E4F51ED322E4F51ED3222A
:101BEF008E2A8F2B90E600E054187012E52B2401FB
:101BFF00FFE4352AC313F52AEF13F52B801590E672
:101C0F0000E05418FFBF100BE52B25E0F52BE52A5C
:101C1F0033F52AE52B152BAE2A7002152A4E6005D7
:061C2F0012217980EE2273
:102179007400F58690FDA57C05A3E582458370F979
:012189002233
:03004300021300A5
:0300530002130095
:101300000221110002225400022235000221AE0007
:10131000021F1500021F46000224850002248600D9
:1013200002248700022488000224890002248A0003
:1013300002248B0002248C0002248D0002248E00E3
:1013400002248F00022486000224900002249100CF
:1013500002249200022493000224940002249500A7
:1013600002249600022486000224860002248600BD
:1013700002249700022498000224990002249A0073
:1013800002249B0002249C0002249D0002249E0053
:1013900002249F000224A0000224A1000224A20033
:1013A0000224A3000224A4000224A5000224A60013
:0813B0000224A7000224A8009A
:10022100020425E86480F8E933E83360110460F0E2
:10023100ED33EC337009E8FCE9FDEAFEEBFF220443
:1002410060DED3EB9FEA9EE99DE8C2E78CF0C2F73E
:1002510095F0400CE8CCF8E9CDF9EACEFAEBCFFB0A
:100261001203F085D0F05804700320D5B3E8047070
:10027100075002B2D502042F92D5EC0460F7E4CC0A
:10028100C0E0C398F8603B94186008400DD0E0FBD3
:10029100020407E4FBFAC9FC8028E830E406E4C95B
:1002A100FBE4CAFCE830E305E4C9CACBFCE8540727
:1002B1006010F8C3E913F9EA13FAEB13FBEC13FC32
:1002C100D8F130F52FC3E49CFCEF9BFFEE9AFEEDD5
:1002D10099FDD0E0FBEF4E4D4C701222DB0302047E
:1002E1002CEC2CFCEF33FFEE33FEED33FDED30E76C
:1002F100EB020407EF2BFFEE3AFEED39FDD0E0FBF8
:1003010050130BBB000302042FED13FDEE13FEEFA0
:0803110013FFEC13FC020407CA
:1003190002042FEC5D046005E8590470030204250A
:100329001203F0580460F6EC4860F2EC7004FDFE2C
:10033900FF22C860DB2481C85009C39860025006B7
:1003490002042C9850CAF582E9294B4A7005AB8200
:1003590002041B75F0007C1A7880C3EF9BEE9AEDBE
:1003690099400DC3EF9BFFEE9AFEED99FDE842F02F
:10037900DC23ACF0D0E0FFD0E0FED0E0FDAB822082
:10038900E7101BEB60BAEC2CFCEF33FFEE33FEED0C
:1003990033FD020407E803F830E705C0F075F00003
:1003A900EF2FFFEE33FEED33FD40B830E7C280AAF0
:1003B900EDD2E7CD33EC3392D524814006E4FFFE3C
:1003C900FDFC22FCE4CFCECDCC24E0501174FF809B
:1003D900EDC3CC13CCCD13CDCE13CECF13CF047038
:0703E900F030D5DE0205092A
:1003F000E9D2E7C933E833F892D5EDD2E7CD33EC53
:0704000033FC5002B2D522CB
:10040700EC30E7100FBF000C0EBE00080DBD000456
:100417000BEB6014A2D5EB13FCED92E7FD2274FF02
:10042700FCFDFEFF22E480F8A2D574FF13FC7D805B
:03043700E480EF6F
:030000000214F3F4
:0C14F300787FE4F6D8FD75815902153AA7
:10043A00BB010689828A83E0225002E722BBFE02C0
:09044A00E32289828A83E49322F3
:10045300BB010CE58229F582E5833AF583E022505E
:1004630006E92582F8E622BBFE06E92582F8E222A8
:0D047300E58229F582E5833AF583E49322C2
:10048000BB010689828A83F0225002F722BBFE015B
:02049000F32255
:10049200F8BB010DE58229F582E5833AF583E8F0A0
:1004A200225006E92582C8F622BBFE05E92582C84C
:0204B200F22234
:1004B400BC000BBE0029EF8DF084FFADF022E4CC2C
:1004C400F875F008EF2FFFEE33FEEC33FCEE9DECF5
:1004D400984005FCEE9DFE0FD5F0E9E4CEFD22ED3B
:1004E400F8F5F0EE8420D21CFEADF075F008EF2F85
:1004F400FFED33FD4007985006D5F0F222C398FD76
:050504000FD5F0EA2212
:0E050900C3E49FFFE49EFEE49DFDE49CFC2203
:0C051700A42582F582E5F03583F58322EF
:10052300D083D082F8E4937012740193700DA3A367
:1005330093F8740193F5828883E47374029368607B
:06054300EFA3A3A380DF7B
:10054900D083D082F8E4937012740193700DA3A341
:1005590093F8740193F5828883E473740293B5F078
:0D056900067403936860E9A3A3A3A380D8E0
:101A1C008B388A39893AE4F540F541E53F153FAEFC
:101A2C003E7002153E4E6033AB3BAA3CA93D1204FE
:101A3C003AFFAB38AA39A93A0541E541AC407002EE
:101A4C00054014F5828C83EF120492EF60CD740183
:101A5C00253DF53DE4353CF53C80C0AB38AA39A9B1
:021A6C003A221C
:1023C300E4FFFE12043A600C0FEF70010E09E9708E
:0523D300F20A80EF2278
:10057600EF4E6012EF60010EEDBB010B89828A839C
:10058600F0A3DFFCDEFA2289F05007F709DFFCA9A9
:0C059600F022BBFEFCF309DFFCA9F02200
:1014FF00021465E493A3F8E493A34003F68001F28A
:10150F0008DFF48029E493A3F85407240CC8C333ED
:10151F00C4540F4420C8834004F456800146F6DFBC
:10152F00E4800B01020408102040809023AEE47E7B
:10153F00019360BCA3FF543F30E509541FFEE493B1
:10154F00A360010ECF54C025E060A840B8E493A378
:10155F00FAE493A3F8E493A3C8C582C8CAC583CAA3
:10156F00F0A3C8C582C8CAC583CADFE9DEE780BE5B
:0123C200001A
:00000001FF
