:1001000012010002000000400516038001000102F8
:020110000001EC
:0A0114000A0600020000004001008E
:1001200009021200010100A0FA0904000000FF000A
:020130000000CD
:1001340009021200010100A0FA0904000000FF00F6
:100144000000120341004200430044004500460001
:100154004700480026034100430043004500530084
:10016400200049002F004F002000500072006F0053
:10017400640075006300740073001E03550053008F
:1001840042002D00440049004F002D003900360084
:0A0194000000000000000000000061
:1021A0005553422D44494F2D3438005553422D4448
:1021B000494F2D3936004143434553205553422D55
:0121C000001E
:10206D009025A7E0600312156F9025A9E06003127B
:10207D0016E49025BBE060031216739025FDE06019
:0B208D00099025BCE0600312199022AE
:04002E0043B1202298
:0400460053B1DF22B1
:04004E0063B1202258
:101C7A00EF5407FE7401A806088002C333D8FCFE9D
:101C8A00EF131313540FFFD3940540020F0FED60A7
:101C9A000DE42FF582E43480F583E04EF022E42F40
:0F1CAA00F582E43480F583E0FFEEF4FEEF5EF0A8
:011CB9002208
:06188A008B2F8A3089312A
:10189000E4FFAB2FAA30A9318F827583001207664F
:1018A000FE74002FF582E43426F583EEF0E42FF584
:1018B00082E43480F583EEF0300925EF2406F582CA
:1018C000E433F583120766FE74062FF582E43426AE
:1018D000F583EEF074082FF582E43480F583EEF0A2
:0418E0000FBF06AE82
:0118E40022E1
:101FE800EF131313541FFEE42EF582E43480F583B7
:101FF800E0FEEF5407FF7401A807088002C333D836
:0C200800FC5206EE60047F0180027F00A5
:0120140022A9
:1015FA00908000E0120793908001E09000011207AA
:10160A00A5908002E09000021207A5908003E09066
:10161A0000031207A5908004E09000041207A59029
:10162A008005E09000051207A530093C908008E08B
:10163A009000061207A5908009E09000071207A5FE
:10164A0090800AE09000081207A590800BE09000B5
:10165A00091207A590800CE090000A1207A5908055
:09166A000DE090000B1207A5220F
:10000E0030090F900001120766F4540F9025FFF08F
:0D001E00F59012074DF49025FEF0F58022BC
:10209800E4FF74002FF582E43426F58374FFF074AE
:1020A800062FF582E43426F58374FFF00FBF06E2AD
:0A20B8009025FE74FFF0A3740FF0F2
:0120C20022FB
:10193C007580FF75900F75B2FF75B31F75B620904B
:10194C0025FEE0F580A3E0540FF590E4FF74002F22
:10195C00F582E43426F583E0FEE42FF582E434804E
:10196C00F583EEF030091874062FF582E43426F571
:10197C0083E0FE74082FF582E43480F583EEF00FDB
:03198C00BF06CAC9
:01198F002235
:10127A00EF131313541FFEED131313541FFC5307DC
:10128A000753050774952EF582E43425F583E0FBB0
:10129A007A0074017E00A807088005C333CE33CED6
:1012AA00D8F9FFEE5AFEEF5B4E6003D38001C3927A
:1012BA0005300402B20530051A74952CF582E4341F
:1012CA0025F583E0FF7401A805088002C333D8FC22
:1012DA004FF02274952CF582E43425F583E0FFAEB5
:0F12EA00057401A806088002C333D8FCF45FF036
:0112F90022D2
:101D7300E4FFE42FF582E43480F583E0FE74952FCD
:101D8300F582E43425F583EEF030091874082FF555
:101D930082E43480F583E0FE749B2FF582E43425DE
:081DA300F583EEF00FBF06CA44
:011DAB002215
:101DAC00E4FF74952FF582E43425F583E0FEE42FEF
:101DBC00F582E43480F583EEF0300918749B2FF52E
:101DCC0082E43425F583E0FE74082FF582E4348038
:081DDC00F583EEF00FBF06CA0B
:011DE40022DC
:101DE500E4FF740E2FF582E43426F583E0FEE42F3C
:101DF500F582E43480F583EEF030091874142FF57C
:101E050082E43426F583E0FE74082FF582E43480FD
:081E1500F583EEF00FBF06CAD1
:011E1D0022A2
:10215900E4FF740E2FF582E43426F58374FFF03022
:10216900090D74142FF582E43426F58374FFF00FFA
:03217900BF06DFBF
:01217C002240
:0100320022AB
:101B1B007AE779407F40AB077D017F037E00121A85
:101B2B003C90E740E064D06005E090010AF090E75C
:101B3B0040E024FD600F0470147BFF7A2179A01222
:101B4B0018E5C209227BFF7A2179AB80067BFF7AED
:091B5B002179B61218E5D2092225
:1023600090E600E054E74410F0E58E54F84407F599
:022370008E22BB
:01004A002293
:01005200228B
:100DF800D207120C7B5003020F4790E6B9E024EEAD
:100E0800602B147003020EA924E37003020EB824A9
:100E1800126003020F4590E6B8E020E703020F478F
:100E280090E6BDE090E6BAE06401020F47E490E680
:100E38008AF090E6BEE090E68BF090E6A0E020E134
:100E4800F93009047F0C80027F068F2990E6BDE007
:100E5800FF90E6BCE04F701B74402529F9E434E7A5
:100E6800FA7B01C003C002C0018B2D752EE6752FD9
:100E7800BA801974402529F9E434E7FA7B01C003E4
:100E8800C002C0018B2D752EE7752F41D001D0020D
:100E9800D00312000E7B017AE7794012188A020FFC
:100EA80047E580F490E740F0E590F4541FA3807D77
:100EB800E4F52974002529F582E43426F583E0FF5A
:100EC80074402529F582E434E7F583EFF030091AF8
:100ED80074062529F582E43426F583E0FF74462557
:100EE80029F582E434E7F583EFF00529E529B4060E
:100EF800C29025FEE0F4FFA209E4FC33FD90E7462A
:100F080075F00612082AEC75F006A42583F583EF20
:100F1800F09025FFE0F4541FFF90E74775F006EDC9
:100F280012082AEC75F006A42583F583EFF0E49007
:100F3800E68AF090E6BEE090E68BF08002D322C30A
:010F48002286
:1022EA00564D617920313520323031394031323A18
:0B22FA0031353A3430000000000000D5
:102336000215230102080000010F01010C01010A28
:04234600010112FF80
:102305009025A4E0FF70069025A3E060089025A322
:09231500E0FD02227B1223DA2212
:1021C1007E007F797D007B017A2579A112088990B3
:1021D10025A1740AF0E4A3F012209812193C0222FE
:0121E10022DB
:10225F007D02121A349025A1E0B40A04A3E06003B2
:0C226F000221C17D79121A3412193C22A0
:102222009025A1740AF0E4A3F07A257BA17D797F41
:0F223200017E1F121E8D7D797F007E1F020040EE
:10174F0012230590E6BEE0F53A753C02E53A605784
:10175F00C394405005853A3B8003753B40E490E6C7
:10176F008AF090E68BE53BF090E6A0E020E1F9E40B
:10177F00F539E539C3953B502574402539F582E499
:10178F0034E7F583E0FFAE3C053CEE7C007B0124A3
:10179F00A1F9EC3425FAEF120793053980D4C3E58C
:0A17AF003A953BF53A80A5022305A8
:1000560090E6B8E030E745E4F530F52FE52FC39498
:100066000E50247E007B0174FE252FF9EE3425FA0E
:1000760012074DFF74402530F582E434E7F583EF2F
:10008600F0052F053080D5E490E68AF090E6BEE0D4
:1000960090E68BF090E6A0E04480F02290E6BEE089
:1000A60090E68BF090E6A0E020E1F990E6BEE064F1
:1000B6000E6003C20722E4F52FF530E52FC3940E38
:1000C600502474402530F582E434E7F583E0FFE5FB
:1000D6002F7C007B0124FEF9EC3425FAEF120793FE
:1000E600052F053080D590E6BAE0B4CE08A3E0B47B
:0500F600AC0312222200
:0100FB0022E2
:0F23B700D3E518950EE517950D400312239622D6
:0123E70022D3
:10217D009025A6E0FE9025A5E07C002400F50EEC50
:10218D003EF50D450E7007C28CC2A9C20822D28C35
:03219D00D2A922A2
:0123E80022D2
:101C360090E6BEE090E68BF090E6A0E020E1F9E4C5
:101C4600FF74422FF582E434E7F583E0FEEF7C0073
:101C56007B01240CF9EC3426FAEE1207930FBF0E23
:101C6600E090E740E09025A5F090E741E09025A6BA
:041C7600F002217DDA
:10239600121DE5E4902593F0A3F0F517F518D20881
:0123A6002214
:1021E200C208E4902593F0A3F0F517F518C28CC24B
:1021F200A9538EF75389F14389011223E802217D05
:101CF900E50945086019E50915097002150814C3B5
:101D090094FFE50864809480501E120046801930C3
:101D190007167508057509FF12002EC207E49025FC
:0D1D290093F0A3F0F517F518300802D2076B
:011D3600228A
:100F490090E6B8E020E703020FFEE4F5309025A50E
:100F5900E0FFAE30053074402EF582E434E7F583C6
:100F6900EFF09025A6E0FFAE30053074402EF582F3
:100F7900E434E7F583EFF0E4F52FE52FC3940E5041
:100F8900247E007B01740C252FF9EE3426FA120712
:100F99004DFF74402530F582E434E7F583EFF00521
:100FA9002F053080D5AE30053074402EF582E434FB
:100FB900E7F583E518F0E517FFAE30053074402EEC
:100FC900F582E434E7F583EFF0A208E433FFAE30AD
:100FD900053074402EF582E434E7F583EFF0C2085A
:100FE900E490E68AF090E6BEE090E68BF090E6A009
:100FF900E04480F02290E6BEE090E68BF090E6A017
:10100900E020E1F9C20890E6BEE064106003C2077F
:1010190022E4F530AF30053074402FF582E434E72F
:10102900F583E09025A5F0AF30053074402FF582A7
:10103900E434E7F583E09025A6F0E4F52FE52FC326
:10104900940E502474402530F582E434E7F583E0AA
:10105900FFE52F7C007B01240CF9EC3426FAEF1212
:101069000793052F053080D512217D90E6BAE0B4AB
:0A107900CE08A3E0B4AC031222225B
:01108300224A
:0400FC00750F012259
:1018220012230590E6BEE0F53AE4F53CE53A60574E
:10183200C394405005853A3B8003753B40E490E6F3
:101842008AF090E68BE53BF090E6A0E020E1F9E437
:10185200F539E539C3953B502574402539F582E4C5
:1018620034E7F583E0FFAE3C053CEE7C007B0124CF
:10187200BCF9EC3425FAEF120793053980D4C3E59D
:071882003A953BF53A80A501
:01188900223C
:10199000150FE50F704B9025BCE0F50F121D73E499
:1019A000F5229025FDE0FFE522C39F5031E5222579
:1019B000E024BDF582E43425F583E0F523E5222516
:1019C000E024BEF582E43425F583E0F524547FFD60
:1019D000E524339204AF2312127A052280C4121D2B
:0119E000AC5A
:0119E10022E3
:1022020090E6BEE090E68BF090E6A0E020E1F99047
:10221200E740E09025A7F090E741E09025A8F02262
:10156F00150CE50C60030215F99025A7E0F50C7B2F
:10157F00017A26791A1215FAE4FFFE741A2EF582F3
:10158F00E43426F583E0FD74012EF582E43425F56D
:10159F0083E06DF97D01E4FCECC394085046E95DEE
:1015AF006029740D2FF582E43425F583E014F0746F
:1015BF000D2FF582E43425F583E0702074012EF5AC
:1015CF0082E43425F583E06DF080009025A8E0FBE0
:1015DF00740D2FF582E43425F583EBF00CED25E047
:0A15EF00FD0F80B40EEE640C709145
:0115F90022CF
:10231E0090E6BEE090E68BF090E6A0E020E1F9902A
:08232E00E740E09025A9F02230
:101E1E00E4F513FF746D2FF582E43425F583E0FEAF
:101E2E0074872FF582E43425F583EEF0746D2FF56B
:101E3E0082E43425F583E0FE747B2FF582E43425AD
:081E4E00F583EEF00FBF0CCC90
:011E56002269
:1016E400150AE50A70649025A9E0F50A7B017A25BC
:1016F400796D1215FAE4FF74872FF582E43425F529
:1017040083C083C082E0FE746D2FF582E43425F536
:1017140083E0FDEE5DD082D083F0747B2FF582E40C
:101724003425F583C083C082E0FE746D2FF582E416
:101734003425F583E0FDEE4DD082D083F00FBF0C4D
:0A174400B6E513C394FF500205132D
:01174E002278
:0412FA007512FF2248
:10167300E4F5220512F5229025BBE0FFE522C39F86
:101683005054E52225E024ACF582E43425F583E0CB
:10169300C39512501EE52225E024ABF582E43425E0
:1016A300F583E0FE547FFFEE30E7047D0080207D6C
:1016B30001801CE52225E024ABF582E43425F58383
:1016C300E0FE547FFFEE30E7047D0180027D0012CF
:1016D3001C7A052280A19025AAE0B51203E4F51235
:0116E30022E4
:101EF60090E6BEE090E68BF090E6A0E020E1F9E403
:101F0600FF74402FF582E434E7F583E0FEEF7C00B2
:101F16007B0124AAF9EC3425FAEE1207930FBF12BF
:011F2600E0DA
:011F27002297
:0413B8008E398F3AA1
:1013BC00E4F53BE53A64024539700C90E741F0E501
:1013CC003A153A70021539E53A64014539701690B0
:1013DC00E7407479F090E6BEE090E68BF0E53A15C4
:1013EC003A70021539E53A4539605D90E6A0E02087
:1013FC00E1F9C3E53A9440E53994005004AD3A80E4
:10140C00027D40E4FFEFC39D5025AE3B053BEE75DE
:10141C0083007B0124A1F9E5833425FA12074DFEE4
:10142C0074402FF582E434E7F583EEF00F80D6E4B8
:10143C0090E68AF090E68BEDF0FFC3E53A9FF53A23
:08144C00E5399400F539809D9B
:011454002275
:10019E0090E6B8E030E76390E6BFE0FE90E6BEE0A2
:1001AE00FDEDFF4E7002804D90E6BDE0FD90E6BC89
:1001BE00E04D70030213B890E6BDE0600302053314
:1001CE0090E6BCE0146003020533753CFF753D22DA
:1001DE00753EEA753F0075401E7B017AE779411244
:1001EE0019E27B017AE7794012234BEF0490E74046
:1001FE00F090E6BEE090E68BF02290E6BFE0FF9036
:10020E00E6BEE04F707790E6BDE0704D90E6BCE044
:10021E0024EF6023249F603024FD603324F3603488
:10022E002472703590E6BAE064CE702DA3E064AC13
:10023E007027122222802290E6BAE0B4CE1BA3E0F1
:10024E00B4AC161221C18011E49025BBF0800A7562
:10025E0012FF8005E49025FDF090E6BDE06480601D
:10026E000302053390E6BCE064016003020533909F
:10027E00E6BAE09025A3F090E6BB02034D90E6BFF0
:10028E00E0600302053390E6BDE0FE90E6BCE07C44
:10029E00002400FFEC3EFEEF8EF012085C02F3002D
:1002AE002002F3002102F3002202F30023032800B0
:1002BE002F03550041036300510371005303910056
:1002CE0061039F006303BF007103CD007303ED0054
:1002DE007404430081045100830471008404C880B7
:1002EE00010000053390E6BEE0B4770312174F907D
:1002FE00E6BCE030E00312193C90E6BCE020E103DE
:10030E0002053390E6BAE064CE6003020533A3E043
:10031E0064AC600302053302222290E6BEE0640262
:10032E006003020533E090E68BF090E6A0E020E15A
:10033E00F912230590E740E09025A3F090E741E005
:10034E009025A4F002053090E6BEE0641060030232
:10035E000533021C3690E6BEE064026003020533EC
:10036E0002220290E6BEE064016003020533E090D3
:10037E00E68BF090E6A0E020E1F990E740E09025D2
:10038E00A7F02290E6BEE06401600302053302236B
:10039E001E90E6BEE064016003020533E090E68B3A
:1003AE00F090E6A0E020E1F990E740E09025A9F07A
:1003BE002290E6BEE064126003020533021EF69040
:1003CE00E6BEE064016003020533E090E68BF09038
:1003DE00E6A0E020E1F990E740E09025AAF0229017
:1003EE00E6BEE0640260030205339025BBE0C394D1
:1003FE0008400302053390E6BEE090E68BF090E6EF
:10040E00A0E020E1F990E740E0FF9025BBE0FE255B
:10041E00E024A9F582E43425F583EFF090E741E07E
:10042E00FFEE25E024AAF582E43425F583EFF09063
:10043E0025BB0204C490E6BEE064426003020533AD
:10044E0002182290E6BEE064016003020533E090DC
:10045E00E68BF090E6A0E020E1F990E740E09025F1
:10046E00BCF02290E6BEE0640260030205339025E4
:10047E00FDE0C39420400302053390E6BEE090E613
:10048E008BF090E6A0E020E1F990E740E0FF9025A8
:10049E00FDE0FE25E024BBF582E43425F583EFF084
:1004AE0090E741E0FFEE25E024BCF582E43425F52B
:1004BE0083EFF09025FDE004F02290E6BEE090E69A
:1004CE008BF090E6A0E020E1F990E6BEE0640470C7
:0104DE0054C9
:1004DF0090E740E0FCA3E0FDA3E0FEA3E0F5328E41
:1004EF00318D308C2FFBAA31A930A82F7F007E1BB6
:1004FF007D377C4B12062F8F368E358D348C33AB78
:10050F0036AA35A934A833E4FFFE7D807C47120557
:10051F00371206CC8E378F38EF9025A3F0E537A32F
:04052F00F01223059E
:0105330022A5
:1022CF0090E6047480F00000007402F000000074C7
:0B22DF0006F0000000E4F00000002208
:0123E90022D1
:101CBA00E4F5297AE779407F40AB077D087FF87E13
:101CCA001D121A3CE4F52974402529F582E434E70B
:101CDA00F583E0FDE52975F002A42448F97401357D
:0E1CEA00F08982F583EDF00529E529B408D9CB
:011CF80022C9
:101D370090E678E05410FFC4540F4450F51013E4B4
:101D470033F514438E201200321223CE121CBA121E
:101D57001B1BD20012225F1221E21200FC121E1E70
:0C1D67001212FA1223051200460223603B
:1022410012004A121CF91223B7E5B190E68020E78B
:0E22510006E04408F08004E054F7F00200526A
:0618E5008B298A2A892BE1
:1018EB00E4F52C12234B8F2DE52D25E024029001DE
:1018FB007EF0E4F52CAF2DEF3395E0FEC3E52C9F86
:10190B00EE6480F87480985027AB29AA2AA92B85FE
:10191B002C82758300120766FDE52C75F002A4245A
:10192B0080F9740135F08982F583EDF0052C80C5C3
:01193B002289
:061AD0008E3F8F40AC05C3
:101AD600E4FDE5146012E53FFF7E000DEE2516F5E8
:101AE60082E43515F583EFF0AE050DE5162EF58289
:101AF600E43515F583E540F0AF050DE5162FF582C3
:101B0600E43515F583ECF0AB16AA15AF101222B327
:051B1600AF10021E5794
:03004000021AD0D1
:0A1E8D008E398F3A8D3B8A3C8B3D65
:101E9700E4F53EE53EC3953B5020053AE53AAE39B9
:101EA7007002053914FFE53D253EF582E4353CF522
:0A1EB70083E0FD120040053E80D9D3
:011EC10022FE
:081A34007A257BA17F017E1FD2
:0A1A3C008E378F388D398A3A8B3BC4
:101A4600E4FDF53CE5146012E537FF7E000DEE255A
:101A560016F582E43515F583EFF0AE050DE5162E85
:101A6600F582E43515F583E538F0AB16AA15AF1007
:0E1A76001222B3AB3BAA3AAD39AF1002229751
:100ADA0090E6BAE0752F00F530A3E0FEEE422F90C3
:100AEA00E6BEE0753100F532A3E0FEEE423190E653
:100AFA00B8E064C06003020BE7E5324531700302D7
:100B0A000C7A90E6A0E020E1F9C3E5329440E531A1
:100B1A009400500885313385323480067533007568
:100B2A00344090E6B9E064A3705890E6BCE0B401A2
:100B3A001BA3E0701790E6BBE030E71090E7407423
:100B4A0003F0A37401F0A37403F0806CE4F535F5A7
:100B5A0036C3E5369534E5359533505CE5302536B0
:100B6A00F582E52F3535F583E0FF74402536F582A9
:100B7A0074E73535F583EFF00536E53670D305357C
:100B8A0080CFE4F535F536C3E5369534E53595334A
:100B9A00501974402536F58274E73535F58374CDDE
:100BAA00F00536E53670E0053580DCAD347AE77B52
:100BBA0040AF30AE2F121A3CE490E68AF090E68BF2
:100BCA00E534F02530F530E533352FF52FC3E5321E
:100BDA009534F532E5319533F531020B0390E6B8D9
:100BEA00E064406003020C7AE53245317003020C7E
:100BFA007AE490E68AF090E68BF090E6A0E020E1B5
:100C0A00F990E68BE0753300F53490E6B9E0B4A3C9
:100C1A0036E4F535F536C3E5369534E53595335082
:100C2A003374402536F58274E73535F583E0FFE500
:100C3A00302536F582E52F3535F583EFF00536E5B3
:100C4A003670D3053580CFAD347AE77B40AF30AE0E
:100C5A002F121E8DE5342530F530E533352FF52F6B
:100C6A00C3E5329534F532E5319533F531020BF2AD
:010C7A002257
:0212FE00C32209
:0223DD00D32209
:0223DF00D32207
:0800030090E6BAE0F50BD322F0
:1023720090E740E50BF0E490E68AF090E68B04F0FB
:02238200D32264
:0823C60090E6BAE0F511D32204
:1023840090E740E511F0E490E68AF090E68B04F0E3
:02239400D32252
:0223E100D32205
:0223E300D32203
:0223E500D32201
:10118C00E4FF90E6B8E020E7030212790F0F7440F9
:10119C002401F582E434E7F583740AF00F744024DB
:1011AC0002F582E434E7F583E4F00F74402403F590
:1011BC0082E434E7F583E4F00F74402404F582E410
:1011CC0034E7F5837402F00F74402405F582E4349F
:1011DC00E7F583740CF00F74402406F582E434E7D1
:1011EC00F583E4F00F74402407F582E434E7F583CB
:1011FC00E4F00F74402408F582E434E7F58374FFBF
:10120C00F00F74402409F582E434E7F58374FFF0A1
:10121C000F7440240AF582E434E7F5837408F00F68
:10122C007440240BF582E434E7F5837420F00F74DA
:10123C0040240CF582E434E7F583745FF00F7440BE
:10124C00240DF582E434E7F583745FF00F744024C9
:10125C000EF582E434E7F5837401F090E740EFF08B
:0D126C00E490E68AF090E6BEE090E68BF09C
:011279002252
:100C7B0090E6B9E01208360CC2100CC2110D061426
:100C8B000DBA150CB0280CAA2E0CA43C0CBC3F0CB6
:100C9B00B6A20CB6A300000DF412019E020DF612C3
:100CAB000F49020DF6120056020DF6120ADA020D6A
:100CBB00F612118C020DF690E6B8E030E70C7B01D2
:100CCB007AE779401215FA020DDE90E6BEE070105D
:100CDB0090E6BCE0FF90E6BAE0FD121C7A020DF63E
:100CEB0090E6BEE090E68BF090E6A0E020E1F97B89
:100CFB00017AE7794012188A020DF6C2AF90E770BD
:100D0B00E513F0E4F5137B017AE779641215FAE445
:100D1B00F52B746D252BF582E43425F583E0FF74F8
:100D2B0040252BF582E434E7F583EFF0052BE52B1B
:100D3B00B40CDF90E6BCE06027E4F52B7487252B21
:100D4B00F582E43425F583E0F4FF744C252BF58212
:100D5B00E434E7F583EFF0052BE52BB40CDE8024B0
:100D6B00E4F52B7487252BF582E43425F583E0FF1E
:100D7B00744C252BF582E434E7F583EFF0052BE576
:100D8B002BB40CDFE4F52B747B252BF582E4342597
:100D9B00F583E0FF7458252BF582E434E7F583EFF8
:100DAB00F0052BE52BB40CDF121E1ED2AF8024E412
:100DBB00F52B7401252BF582E43425F583E0FF74C4
:100DCB0040252BF582E434E7F583EFF0052BE52B7B
:100DDB00B40CDFE490E68AF090E6BEE090E68BF090
:0C0DEB0090E6A0E04480F08002C322D318
:010DF70022D9
:101FBA00C0E0C083C082C085C084C0867586009098
:101FCA00E6B5E04401F0D2015391EF90E65D740169
:0E1FDA00F0D086D084D085D082D083D0E03283
:1020EA00C0E0C083C082C085C084C08675860053A4
:1020FA0091EF90E65D7404F0D086D084D085D082CA
:05210A00D083D0E0329B
:10210F00C0E0C083C082C085C084C086758600537E
:10211F0091EF90E65D7402F0D086D084D085D082A6
:05212F00D083D0E03276
:101B6400C0E0C083C082C085C084C08675860090F2
:101B7400E680E030E70E854448854549854C4A8532
:101B84004D4B800C854C48854D4985444A85454BD1
:101B94005391EF90E65D7410F0D086D084D085D058
:061BA40082D083D0E03284
:1020C300C0E0C083C082C085C084C086758600D24C
:1020D300035391EF90E65D7408F0D086D084D085E9
:0720E300D082D083D0E0326F
:101BAA00C0E0C083C082C085C084C08675860090AC
:101BBA00E680E030E70E854448854549854C4A85EC
:101BCA004D4B800C854C48854D4985444A85454B8B
:101BDA005391EF90E65D7420F0D086D084D085D002
:061BEA0082D083D0E0323E
:0123EA0032C0
:0123EB0032BF
:0123EC0032BE
:0123ED0032BD
:0123EE0032BC
:0123EF0032BB
:0123F00032BA
:0123F10032B9
:0123F20032B8
:0123F30032B7
:0123F40032B6
:0123F50032B5
:0123F60032B4
:0123F70032B3
:0123F80032B2
:0123F90032B1
:0123FA0032B0
:0123FB0032AF
:0123FC0032AE
:0123FD0032AD
:0123FE0032AC
:0123FF0032AB
:0124000032A9
:0124010032A8
:0124020032A7
:0124030032A6
:0124040032A5
:0124050032A4
:0124060032A3
:0124070032A2
:0124080032A1
:0124090032A0
:01240A00329F
:01240B00329E
:01240C00329D
:01240D00329C
:0A00360000010202030304040505A3
:03000B000217B920
:1017B900C0E0C0F0C083C082C085C084C086758681
:1017C90000C0D075D000C000C004C005C006C00765
:1017D9000543E543B406270518E51870020517AE59
:1017E90017FF7C007D0A1207C7ED4C700E902594F7
:1017F900E004F07006902593E004F0754300D007EB
:10180900D006D005D004D000D0D0D086D084D085E1
:09181900D082D083D0F0D0E0327F
:10145500E4F528F527F526F525C203C200C202C228
:1014650001121D37754601754700754E01754F14FC
:10147500754401754520754C01754D3475500175E0
:101485005146D2E843D82090E668E04409F090E65A
:101495005CE0443DF0D2AFD206121F8B90E680E0AF
:1014A50054F7F0C2033001051208B5C20130032913
:1014B5001212FE5024C20312213420001690E68237
:1014C500E030E704E020E1EF90E682E030E604E07A
:0E14D50020E0E41220151223DD12224180C710
:1008B50090E6B9E070030209661470030209E324A7
:1008C500FE7003020A6624FB7003020960147003BC
:1008D50002095A14607314607624056003020AC67F
:1008E5001223DF4003020AD290E6BBE024FE602219
:1008F50014603324FD601114602224067048E54617
:1009050090E6B3F0E5478037E54E90E6B3F0E54F66
:10091500802DE54890E6B3F0E5498023E54A90E669
:10092500B3F0E54B801990E6BAE0FF122041AA0624
:10093500A9077B01EA494B600DEE90E6B3F0EF9015
:10094500E6B4F0020AD2020ACB122384020AD212BA
:1009550023C6020AD2120003020AD2122372020A25
:10096500D21223E14003020AD290E6B8E0247F6068
:100975001514601924027063A200E43325E0FFA278
:1009850002E4334F8041E490E740F0803F90E6BCBD
:10099500E0547EFF7E00E0D394807C0040047D011E
:1009A50080027D00EC4EFEED4F2436F58274003E4C
:1009B500F583E493FF3395E0FEEF24A1FFEE34E6E3
:1009C5008F82F583E0540190E740F0E4A3F090E6D0
:1009D5008AF090E68B7402F0020AD2020ACB122347
:1009E500E34003020AD290E6B8E024FE6016240232
:1009F5006003020AD290E6BAE0B40105C200020A19
:100A0500D2020ACB90E6BAE0705590E6BCE0547E7F
:100A1500FF7E00E0D394807C0040047D0180027D50
:100A250000EC4EFEED4F2436F58274003EF583E46E
:100A350093FF3395E0FEEF24A1FFEE34E68F82F5B8
:100A450083E054FEF090E6BCE05480131313541F6A
:100A5500FFE0540F2F90E683F0E04420F0806E8095
:100A6500651223E5506790E6B8E024FE601A24027B
:100A7500705B90E6BAE0B40104D200805090E6BA0B
:100A8500E0B402028047803E90E6BCE0547EFF7EE3
:100A950000E0D394807C0040047D0180027D00EC61
:100AA5004EFEED4F2436F58274003EF583E493FF48
:100AB5003395E0FEEF24A1FFEE34E68F82F58380C7
:100AC50008120DF8500790E6A0E04401F090E6A06A
:040AD500E04480F089
:010AD90022FA
:030033000223D6CF
:0423D60053D8EF32B7
:10227B00E4F5C8E58E54074438F58E8FCB8FCDAF80
:0C228B00058FCA8FCCD2BDD2ADD2CA22C2
:101F5A00AB07AA06A905A8047F007E1B7D377C4B28
:101F6A0012062FAB07AA06A905A804E4FFFE7D8086
:101F7A007C471205371206CCAD07AC06AF04022225
:011F8A007BDB
:1023A700AD07AC06C3E49DFBE49CFFEBFD02227B7B
:0323DA00C2CA2252
:03002B00021A8432
:101A8400C0E0C0F0C083C082C085C084C0867586B3
:101A940000C0D075D000C000C001C002C003C004A3
:101AA400C005C006C00712206DC2CFD007D006D033
:101AB40005D004D003D002D001D000D0D0D086D03D
:0C1AC40084D085D082D083D0F0D0E032F6
:03004300021300A5
:0300530002130095
:10130000021FBA0002210F000220EA000220C300DF
:10131000021B6400021BAA000223EA000223EB0066
:101320000223EC000223ED000223EE000223EF0073
:101330000223F0000223F1000223F2000223F30053
:101340000223F4000223EB000223F5000223F6003F
:101350000223F7000223F8000223F9000223FA0017
:101360000223FB000223EB000223EB000223EB002D
:101370000223FC000223FD000223FE000223FF00E3
:1013800002240000022401000224020002240300BF
:10139000022404000224050002240600022407009F
:1013A000022408000224090002240A0002240B007F
:0813B00002240C0002240D00D0
:1020150090E682E030E004E020E60B90E682E030D6
:10202500E119E030E71590E680E04401F07F147E89
:0C20350000121BF090E680E054FEF02248
:1021340090E682E044C0F090E681F043870100001D
:042144000000002275
:101F8B0030060990E680E0440AF0800790E680E096
:101F9B004408F07FDC7E05121BF090E65D74FFF0C9
:0F1FAB0090E65FF05391EF90E680E054F7F0225C
:0823CE00E4F51ED2E9D2AF22B2
:101E570090E678E020E6F9C2E990E678E04480F081
:101E6700EF25E090E679F090E678E030E0F990E64B
:101E770078E04440F090E678E020E6F990E678E0F4
:061E870030E1D6D2E92291
:101F2800A90790E678E020E6F9E51E702390E678A8
:101F3800E04480F0E925E090E679F08D19AF03A937
:101F480007751A018A1B891CE4F51D751E01D32229
:021F5800C322A2
:101EC200A90790E678E020E6F9E51E702590E6780D
:101ED200E04480F0E925E0440190E679F08D19AF05
:101EE20003A907751A018A1B891CE4F51D751E03D7
:041EF200D322C32212
:03004B000210841C
:10108400C0E0C083C082C085C084C086758600C0AD
:10109400D075D000C000C001C002C003C006C007A4
:1010A40090E678E030E206751E0602116E90E6784E
:1010B400E020E10CE51E64026006751E0702116E55
:1010C400E51E24FE605F14603624FE700302115F87
:1010D40024FC700302116B2408600302116EAB1A26
:1010E400AA1BA91CAF1D051D8F82758300120766FC
:1010F40090E679F0E51D65197070751E05806B909A
:10110400E679E0AB1AAA1BA91CAE1D8E827583007A
:101114001207A5751E02E5196401704E90E678E089
:101124004420F08045E51924FEB51D0790E678E0DB
:101134004420F0E51914B51D0A90E678E04440F027
:10114400751E0090E679E0AB1AAA1BA91CAE1D8E91
:10115400827583001207A5051D800F90E678E04490
:1011640040F0751E008003751E005391DFD007D038
:1011740006D003D002D001D000D0D0D086D084D005
:0811840085D082D083D0E03257
:02204100A907ED
:10204300AE50AF518F828E83A3E064037017AD014E
:1020530019ED7001228F828E83E07C002FFDEC3E10
:09206300FEAF0580DF7E007F0066
:01206C002251
:10229700121EC2E51E24FA600E146006240770F3AE
:0C22A700D322E4F51ED322E4F51ED3225E
:1022B300121F28E51E24FA600E146006240770F32B
:0C22C300D322E4F51ED322E4F51ED32242
:101BF0008E298F2A90E600E054187012E52A2401FD
:101C0000FFE43529C313F529EF13F52A801590E673
:101C100000E05418FFBF100BE52A25E0F52AE5295E
:101C200033F529E52A152AAE29700215294E6005DB
:061C300012214880EE22A3
:102148007400F58690FDA57C05A3E582458370F9AA
:012158002264
:10053400020738E86480F8E933E83360110460F0B6
:10054400ED33EC337009E8FCE9FDEAFEEBFF22042D
:1005540060DED3EB9FEA9EE99DE8C2E78CF0C2F728
:1005640095F0400CE8CCF8E9CDF9EACEFAEBCFFBF4
:1005740012070385D0F05804700320D5B3E8047043
:10058400075002B2D502074292D5EC0460F7E4CCDE
:10059400C0E0C398F8603B94186008400DD0E0FBBD
:1005A40002071AE4FBFAC9FC8028E830E406E4C92F
:1005B400FBE4CAFCE830E305E4C9CACBFCE8540711
:1005C4006010F8C3E913F9EA13FAEB13FBEC13FC1C
:1005D400D8F130F52FC3E49CFCEF9BFFEE9AFEEDBF
:1005E40099FDD0E0FBEF4E4D4C701222DB03020765
:1005F4003FEC2CFCEF33FFEE33FEED33FDED30E743
:10060400EB02071AEF2BFFEE3AFEED39FDD0E0FBCB
:1006140050130BBB0003020742ED13FDEE13FEEF74
:0806240013FFEC13FC02071A9E
:10062C00020742EC5D046005E859047003020738C8
:10063C00120703580460F6EC4860F2EC7004FDFEFF
:10064C00FF22C860DB2481C85009C39860025006A1
:10065C0002073F9850CAF582E9294B4A7005AB82D4
:10066C0002072E75F0007C1A7880C3EF9BEE9AED92
:10067C0099400DC3EF9BFFEE9AFEED99FDE842F019
:10068C00DC23ACF0D0E0FFD0E0FED0E0FDAB82206C
:10069C00E7101BEB60BAEC2CFCEF33FFEE33FEEDF6
:1006AC0033FD02071AE803F830E705C0F075F000D7
:1006BC00EF2FFFEE33FEED33FD40B830E7C280AADA
:1006CC00EDD2E7CD33EC3392D524814006E4FFFE26
:1006DC00FDFC22FCE4CFCECDCC24E0501174FF8085
:1006EC00EDC3CC13CCCD13CDCE13CECF13CF047022
:0706FC00F030D5DE02081CFE
:10070300E9D2E7C933E833F892D5EDD2E7CD33EC3C
:0707130033FC5002B2D522B5
:10071A00EC30E7100FBF000C0EBE00080DBD000440
:10072A000BEB6014A2D5EB13FCED92E7FD2274FFEC
:10073A00FCFDFEFF22E480F8A2D574FF13FC7D8045
:03074A00E480EF59
:030000000214E304
:0C14E300787FE4F6D8FD75815102152ACF
:10074D00BB010689828A83E0225002E722BBFE02AA
:09075D00E32289828A83E49322DD
:10076600BB010CE58229F582E5833AF583E0225048
:1007760006E92582F8E622BBFE06E92582F8E22292
:0D078600E58229F582E5833AF583E49322AC
:10079300BB010689828A83F0225002F722BBFE0145
:0207A300F3223F
:1007A500F8BB010DE58229F582E5833AF583E8F08A
:1007B500225006E92582C8F622BBFE05E92582C836
:0207C500F2221E
:1007C700BC000BBE0029EF8DF084FFADF022E4CC16
:1007D700F875F008EF2FFFEE33FEEC33FCEE9DECDF
:1007E700984005FCEE9DFE0FD5F0E9E4CEFD22ED25
:1007F700F8F5F0EE8420D21CFEADF075F008EF2F6F
:10080700FFED33FD4007985006D5F0F222C398FD5F
:050817000FD5F0EA22FC
:0E081C00C3E49FFFE49EFEE49DFDE49CFC22ED
:0C082A00A42582F582E5F03583F58322D9
:10083600D083D082F8E4937012740193700DA3A351
:1008460093F8740193F5828883E473740293686065
:06085600EFA3A3A380DF65
:10085C00D083D082F8E4937012740193700DA3A32B
:10086C0093F8740193F5828883E473740293B5F062
:0D087C00067403936860E9A3A3A3A380D8CA
:1019E2008B398A3A893BE4F541F542E5401540AE30
:1019F2003F7002153F4E6033AB3CAA3DA93E120731
:101A02004DFFAB39AA3AA93B0542E542AC4170020F
:101A1200054114F5828C83EF1207A5EF60CD7401A6
:101A2200253EF53EE4353DF53D80C0AB39AA3AA9E5
:021A32003B2255
:10234B00E4FFFE12074D600C0FEF70010E09E970F0
:05235B00F20A80EF22F0
:10088900EF4E6012EF60010EEDBB010B89828A8386
:10089900F0A3DFFCDEFA2289F05007F709DFFCA993
:0C08A900F022BBFEFCF309DFFCA9F022EA
:1014EF00021455E493A3F8E493A34003F68001F2AA
:1014FF0008DFF48029E493A3F85407240CC8C333FE
:10150F00C4540F4420C8834004F456800146F6DFCC
:10151F00E4800B0102040810204080902336E47E03
:10152F00019360BCA3FF543F30E509541FFEE493C1
:10153F00A360010ECF54C025E060A840B8E493A388
:10154F00FAE493A3F8E493A3C8C582C8CAC583CAB3
:10155F00F0A3C8C582C8CAC583CADFE9DEE780BE6B
:01234A000092
:00000001FF
