:100D98001201000200000040051632800100010225
:100DA80000010A06000200000040010009022000BC
:100DB800010100A0FA0904000002FF000000070575
:100DC8000202000200070586020002000902200054
:100DD800010100A0320904000002FF00000007051D
:100DE80001024000000705810240000014030000D2
:100DF80000000000000000000000000000000000EB
:100E080026034100430043004500530020004900E9
:100E18002F004F002000500072006F006400750022
:100E28006300740073001C03550053004200500017
:100E38002D00440049004F003100360052003000B8
:100E4800380000008081828384858687B0B1B2B380
:100E5800B4B5B6B7A0A1A2A3A4A5A6A7C0D0C0E068
:100E6800EF900E4C93900E7BF0ED900E4C93900EFD
:100E78007DF0A2009200D0E0D0D022C0D0C0E0EF38
:100E8800900E4C93900E9AF0ED900E4C93900E9D10
:0B0E9800F0A200B39200D0E0D0D02206
:101D8400555342502D44494F3136524F3800504933
:101D9400434F2D44494F3136524F3800555342502A
:0B1DA4002D44494F2D4552524F520074
:04002E0043B1402278
:0400460053B1BF22D1
:04004E0063B1402238
:0100320022AB
:0720830053B1FD43B102223D
:10174900EF5407FE7401A806088002C333D8FCFED3
:10175900EF131313541FFFED601AEF14600C14609C
:101769000E2402702AEE42808025EE42B08020EEDF
:1017790042A0801BEF14600D14601024027010EE5B
:10178900F45280800AEEF452B08004EEF452A002C2
:021799002083AB
:101BCE00EF54F824F8600C24F8600C2410700AAE60
:101BDE00808006AEB08002AEA0EF5407FF7401A85D
:101BEE0007088002C333D8FC5206EE60047F0180E2
:031BFE00027F0063
:011C010022C0
:101F8E00E5801202B5900001E5B01202C790000282
:051F9E00E5A00202C7EE
:101DD40012026F78B0F6F58090000112028878B193
:101DE400F6F5B090000212028878B2F6F5A002204F
:011DF400836B
:101FF5008F508D51300603020E64AD51AF50120E55
:02200500832234
:01004A002293
:03209600022083A2
:101C360078B3E6FF30E2047EFF80027E008EB2EFCC
:101C460030E3047FFF80027F008FB578B4E6F5802D
:101C560008E6F59008E6F5A078AFE64402F5B1028D
:021C66002083D9
:0D003600E478B3F60876FF0876FF08F6229E
:0E205B00E478AFF60876FF0876FF0876FF22DD
:101A830078AFE6FF30E2047EFF80027E008EB2EF85
:101A930030E3047FFF80027F008FB578B0E6F580E6
:101AA30008E6F5B078AFE64402F5B178B2E6F5A002
:091AB30075B6FF75B4FF02208333
:01005200228B
:0111FF0022CD
:10198E007AE779407F40AB077D017F037E00121717
:10199E00F590E740E0900DA2F090E740E024CD6096
:1019AE000B0470107BFF7A1D7984800E7BFF7A1DED
:0E19BE00799280067BFF7A1D79A01216F22224
:0120AB002212
:0120AC002211
:10109900D205120AE6500302116090E6B9E024D0A5
:1010A9006007241E600302115E90E6B8E030E73C59
:1010B90090E740E580F0A3E5B0F0A3E5A0F0E5B145
:1010C90013135403A3F0E5B130E4047F0180027FD8
:1010D9000090E744EFF0E490E68AF090E6BEE090F5
:1010E900E68BF090E6A0E04480F0806BE490E68A1D
:1010F900F090E6BEE090E68BF090E6A0E020E1F902
:1011090090E743E030E0047FFF80027F008FB290D8
:10111900E743E030E1047FFF80027F008FB590E66E
:10112900BAE030E0047F1080027F0090E743E0548A
:1011390003FE25E025E04F78AFF6F5B190E740E0F2
:1011490008F6F580A3E008F6F5B0A3E008F6F5A0E7
:081159001220838002D322C39F
:01116100226B
:101F1800564D617920313520323031394031323AED
:0B1F280031353A3434000000000000A6
:101FB800020F1F2F02080000011601011701010A74
:041FC800010118FFFC
:101FA3007855E6FF700418E660077854E6FD021ED4
:051FB3007312209C22C6
:101E35007E007F657D007B007A00795212039F78D2
:0F1E450052760AE408F612205B121A8302000E8E
:101EC7007D021217ED7852E6B40A0408E6600302B1
:0B1ED7001E357D651217ED121A8322E4
:10000E007852760AE408F67A007B527D657F017E8F
:0D001E001F121B997D657F007E1F02209937
:10150100121FA390E6BEE0F535753702E535605749
:10151100C3944050058535368003753640E490E626
:101521008AF090E68BE536F090E6A0E020E1F9E460
:10153100F534E534C39536502574402534F582E4FD
:1015410034E7F583E0FFAE370537EE7C007B0024FE
:1015510052F9EC3400FAEF1202B5053480D4C3E538
:0A156100359536F53580A5021FA36D
:1012B80090E6B8E030E745E4F52BF52AE52AC39433
:1012C8000450247E007B0074AF252AF9EE3400FA1E
:1012D80012026FFF7440252BF582E434E7F583EFA3
:1012E800F0052A052B80D5E490E68AF090E6BEE06A
:1012F80090E68BF090E6A0E04480F02290E6BEE015
:1013080090E68BF090E6A0E020E1F990E6BEE0647C
:10131800046003C20522E4F52AF52BE52AC39404E8
:1013280050247440252BF582E434E7F583E0FFE58B
:101338002A7C007B0024AFF9EC3400FAEF1202B5E6
:10134800052A052B80D590E6BAE0B4CE08A3E0B410
:05135800AC0312000EC1
:01135D00226D
:0F204C00D3E515950CE514950B400312202B22BC
:0120AD002210
:101DF5007857E6FE18E67C002400F50CEC3EF50B62
:101E0500450C7007C28CC2A9C20422D28CD2A92269
:0120AE00220F
:1019100090E6BEE090E68BF090E6A0E020E1F9E4EE
:10192000FF74422FF582E434E7F583E0FEEF7C009C
:101930007B0024B3F9EC3400FAEE1202B50FBF04B9
:0F194000E090E740E07856F6A3E008F6021DF5C8
:10202B00121C36E4900002F0A3F0F514F515D2045F
:01203B002282
:101E1500C204E4900002F0A3F0F514F515C28CC2DB
:101E2500A9538EF75389F14389011220AE021DF59E
:1019CC00E50945086019E50915097002150814C3E5
:1019DC0094FFE50864809480501E120046801930F4
:1019EC0005167508057509FF12002EC205E4900056
:0D19FC0002F0A3F0F514F515300402D20539
:011A090022BA
:100C630090E6B8E020E703020D15E4F52B7856E68D
:100C7300FFAE2B052B74402EF582E434E7F583EFAA
:100C8300F008E6FFAE2B052B74402EF582E434E723
:100C9300F583EFF0E4F52AE52AC3940450247E009B
:100CA3007B0074B3252AF9EE3400FA12026FFF7445
:100CB30040252BF582E434E7F583EFF0052A052B75
:100CC30080D5AE2B052B74402EF582E434E7F583F3
:100CD300E515F0E514FFAE2B052B74402EF582E4E9
:100CE30034E7F583EFF0A204E433FFAE2B052B7456
:100CF300402EF582E434E7F583EFF0C204E490E696
:100D03008AF090E6BEE090E68BF090E6A0E04480A7
:100D1300F02290E6BEE090E68BF090E6A0E020E1C2
:100D2300F9C20490E6BEE064066003C20522E4F55E
:100D33002BAF2B052B74402FF582E434E7F583E0CA
:100D43007856F6AF2B052B74402FF582E434E7F584
:100D530083E008F6E4F52AE52AC39404502474409A
:100D6300252BF582E434E7F583E0FFE52A7C007B5D
:100D73000024B3F9EC3400FAEF1202B5052A052B6F
:100D830080D5121DF590E6BAE0B4CE08A3E0B4AC6A
:040D93000312000E39
:010D97002239
:04208A0075160122A4
:1015D500121FA390E6BEE0F535E4F537E535605713
:1015E500C3944050058535368003753640E490E652
:1015F5008AF090E68BE536F090E6A0E020E1F9E48C
:10160500F534E534C39536502574402534F582E428
:1016150034E7F583E0FFAE370537EE7C007B002429
:101625006DF9EC3400FAEF1202B5053480D4C3E548
:07163500359536F53580A55F
:01163C00228B
:1018CE001516E516703B786DE6F51612004AE4F52E
:1018DE004DE54DC378AE965025E54D25E0246EF8C6
:1018EE00E6F54EE54D25E0246FF8E6F54F547FFD05
:1018FE00E54F339206AF4E121FF5054D80D31220E1
:01190E009642
:01190F0022B5
:101EE20090E6BEE090E68BF090E6A0E020E1F9906B
:0B1EF200E740E07858F6A3E008F62275
:101478001517E51760030215007858E6F5177B0184
:101488007A007928121F8EE4FFFE74282EF582E474
:101498003400F583E0FD74042EF582E43400F5830E
:1014A800E06DF97D01E4FCECC394085045E95D600A
:1014B8002974072FF582E43400F583E014F07407EB
:1014C8002FF582E43400F583E0701F74042EF58252
:1014D800E43400F583E06DF080007859E6FB74078A
:1014E8002FF582E43400F583EBF00CED25E0FD0FD9
:0814F80080B50EEE6403709252
:0115000022C8
:101F4B0090E6BEE090E68BF090E6A0E020E1F99001
:071F5B00E740E0785AF6228E
:101ABC00E4F513FF74252FF582E43400F583E0FE82
:101ACC0074222FF582E43400F583EEF074252FF5A3
:101ADC0082E43400F583E0FE741F2FF582E43400B9
:081AEC00F583EEF00FBF03CCFF
:011AF40022CF
:10156B00150AE50A7063785AE6F50A7B017A007969
:10157B0025121F8EE4FF74222FF582E43400F583CD
:10158B00C083C082E0FE74252FF582E43400F5831E
:10159B00E0FDEE5DD082D083F0741F2FF582E43432
:1015AB0000F583C083C082E0FE74252FF582E434FE
:1015BB0000F583E0FDEE4DD082D083F00FBF03B674
:0915CB00E513C394FF500205135F
:0115D40022F4
:04208E007518FF22A0
:10163D00E4F51F0518F51FE51FC3786C965042E5BC
:10164D001F25E0245DF8E6C395185018E51F25E029
:10165D00245CF8E6FE547FFFEE30E7047D00801A2F
:10166D007D018016E51F25E0245CF8E6FE547FFF22
:10167D00EE30E7047D0180027D00121749051F80C1
:0A168D00B6E518785B667002F518E8
:011697002230
:101C680090E6BEE090E68BF090E6A0E020E1F9E493
:101C7800FF74402FF582E434E7F583E0FEEF7C0043
:101C88007B00245BF9EC3400FAEE1202B50FBF12A8
:011C9800E06B
:011C99002228
:041162008E348F3503
:10116600E4F536E53564024534700C90E741F0E568
:1011760035153570021534E5356401453470169021
:10118600E7407465F090E6BEE090E68BF0E5351535
:101196003570021534E5354534605D90E6A0E020F3
:1011A600E1F9C3E5359440E53494005004AD35804B
:1011B600027D40E4FFEFC39D5025AE360536EE7541
:1011C60083007B002452F9E5833400FA12026FFE95
:1011D60074402FF582E434E7F583EEF00F80D6E411
:1011E60090E68AF090E68BEDF0FFC3E5359FF53586
:0811F600E5349400F534809DFE
:0111FE0022CE
:1003CB0090E6B8E030E76390E6BFE0FE90E6BEE073
:1003DB00FDEDFF4E7002804D90E6BDE0FD90E6BC5A
:1003EB00E04D700302116290E6BDE0600302071F4F
:1003FB0090E6BCE014600302071F7537FF75381FCA
:10040B00753918753A00753B1E7B017AE7794112F5
:10041B00179B7B017AE77940121FCDEF0490E740E1
:10042B00F090E6BEE090E68BF02290E6BFE0FF9006
:10043B00E6BEE04F706D90E6BDE0704B90E6BCE021
:10044B0024EF6023249F603024FD603224F360335B
:10045B002472703390E6BAE064CE702BA3E064ACE8
:10046B00702512000E802090E6BAE0B4CE19A3E0FE
:10047B00B4AC14121E35800FE4786CF68009751835
:10048B00FF8004E478AEF690E6BDE0648060030282
:10049B00071F90E6BCE06401600302071F90E6BAF9
:1004AB0002056890E6BFE0600302071F90E6BDE01F
:1004BB00FE90E6BCE07C002400FFEC3EFEEF8EF0ED
:1004CB0012037205160020051600210516002205E1
:1004DB00160023054B002F05710041057F005105C8
:1004EB008D005305AC006105BA006305D900710599
:1004FB00E700730606007406470081065500830665
:10050B0074008406B580010000071F90E6BEE0B4BE
:10051B00630312150190E6BCE030E003121A8390DE
:10052B00E6BCE020E10302071F90E6BAE064CE6070
:10053B000302071FA3E064AC600302071F02000E57
:10054B0090E6BEE06402600302071FE090E68BF0CA
:10055B0090E6A0E020E1F9121FA390E740E0785469
:10056B00F6A3E002071A90E6BEE0640660030207FA
:10057B001F02191090E6BEE06402600302071F021F
:10058B001EE290E6BEE06401600302071FE090E606
:10059B008BF090E6A0E020E1F990E740E07858F688
:1005AB002290E6BEE06401600302071F021F4B901E
:1005BB00E6BEE06401600302071FE090E68BF0905B
:1005CB00E6A0E020E1F990E740E0785AF62290E6C9
:1005DB00BEE06412600302071F021C6890E6BEE0D7
:1005EB006401600302071FE090E68BF090E6A0E049
:1005FB0020E1F990E740E0785BF62290E6BEE064FC
:10060B0002600302071F786CE6C3940840030207DD
:10061B001FE090E68BF090E6A0E020E1F990E74038
:10062B00E0FF786CE6FE25E0245AF8A607A3E0FF6E
:10063B00EE25E0245BF8A607786C062290E6BEE078
:10064B006442600302071F0215D590E6BEE0640109
:10065B00600302071FE090E68BF090E6A0E020E13C
:10066B00F990E740E0786DF62290E6BEE064026018
:10067B000302071F78AEE6C39420400302071FE076
:10068B0090E68BF090E6A0E020E1F990E740E0FFE8
:10069B0078AEE6FE25E0246CF8A607A3E0FFEE2576
:1006AB00E0246DF8A60778AE062290E6BEE090E651
:1006BB008BF090E6A0E020E1F990E6BEE0640470D8
:0106CB0053DB
:1006CC0090E740E0FCA3E0FDA3E0FEA3E0F52D8E57
:1006DC002C8D2B8C2AFBAA2CA92BA82A7F007E1BE5
:1006EC007D377C4B1201518F318E308D2F8C2EAB80
:1006FC0031AA30A92FA82EE4FFFE7D807C47120082
:10070C00591201EE8E328F33EF7854F6E53208F63B
:03071C00121FA306
:01071F0022B7
:101EFD0090E6047480F00000007402F0000000749D
:0B1F0D0006F0000000E4F000000022DD
:0120AF00220E
:10194F00E4F5257AE779407F40AB077D087FF87E85
:10195F001D1217F5E4F52574402525F582E434E7CB
:10196F00F583E0FDE52575F002A424F6F9740D3535
:0E197F00F08982F583EDF00525E525B408D941
:01198D002237
:101A470090E678E05410FFC4540F4450F51113E4A6
:101A570033F512438E2012005212207B12194F12B7
:101A6700198ED201121EC7121E1512208A121ABC15
:0C1A770012208E121FA31200460211FF65
:101FE2001220AB1219CC12204C90E680E054F7F08C
:031FF2000220AC1E
:0616F2008B258A268927E2
:1016F800E4F528121FCD8F29E52925E02402900E54
:101708002EF0E4F528AF29EF3395E0FEC3E5289FD6
:10171800EE6480F87480985027AB25AA26A92785FF
:101728002882758300120288FDE52875F002A4243A
:1017380030F9740E35F08982F583EDF0052880C5FF
:01174800227E
:06183D008E3A8F3BAC0562
:10184300E4FDE5126012E53AFF7E000DEE2510F58A
:1018530082E4350FF583EFF0AE050DE5102EF5822A
:10186300E4350FF583E53BF0AF050DE5102FF58269
:10187300E4350FF583ECF0AB10AA0FAF11121EABDA
:05188300AF11021B6320
:0320990002183DED
:0A1B99008E348F358D368A378B3875
:101BA300E4F539E539C3953650200535E535AE34CE
:101BB3007002053414FFE5382539F582E43537F52D
:0A1BC30083E0FD122099053980D956
:011BCD0022F5
:0817ED007A007B527F017E1F90
:0A17F5008E328F338D348A358B3627
:1017FF00E4FDF537E5126012E532FF7E000DEE25B0
:10180F0010F582E4350FF583EFF0AE050DE5102EE0
:10181F00F582E4350FF583E533F0AB10AA0FAF1166
:0E182F00121EABAB36AA35AD34AF11021E8FC0
:1009450090E6BAE0752A00F52BA3E0FEEE422A9068
:10095500E6BEE0752C00F52DA3E0FEEE422C90E6F8
:10096500B8E064C06003020A52E52D452C7003020D
:100975000AE590E6A0E020E1F9C3E52D9440E52CD9
:1009850094005008852C2E852D2F8006752E007518
:100995002F4090E6B9E064A3705890E6BCE0B4013E
:1009A5001BA3E0701790E6BBE030E71090E74074BA
:1009B50003F0A37401F0A37403F0806CE4F530F543
:1009C50031C3E531952FE530952E505CE52B25316A
:1009D500F582E52A3530F583E0FF74402531F5824F
:1009E50074E73530F583EFF00531E53170D3053027
:1009F50080CFE4F530F531C3E531952FE530952EFF
:100A0500501974402531F58274E73530F58374CD7E
:100A1500F00531E53170E0053080DCAD2F7AE77BFC
:100A250040AF2BAE2A1217F5E490E68AF090E68BDC
:100A3500E52FF0252BF52BE52E352AF52AC3E52DD7
:100A4500952FF52DE52C952EF52C02096E90E6B81F
:100A5500E064406003020AE5E52D452C7003020AB7
:100A6500E5E490E68AF090E68BF090E6A0E020E1E0
:100A7500F990E68BE0752E00F52F90E6B9E0B4A36A
:100A850036E4F530F531C3E531952FE530952E5037
:100A95003374402531F58274E73530F583E0FFE5A1
:100AA5002B2531F582E52A3530F583EFF00531E563
:100AB5003170D3053080CFAD2F7AE77B40AF2BAEB9
:100AC5002A121B99E52F252BF52BE52E352AF52A1C
:100AD500C3E52D952FF52DE52C952EF52C020A5DF8
:010AE50022EE
:02209F00C3225A
:0220A100D32248
:0220A300D32246
:0800030090E6BAE0F50DD322EE
:1020070090E740E50DF0E490E68AF090E68B04F067
:02201700D322D2
:0820730090E6BAE0F50ED3225D
:1020190090E740E50EF0E490E68AF090E68B04F054
:02202900D322C0
:0220A500D32244
:0220A700D32242
:0220A900D32240
:100FAB00E4FF90E6B8E020E7030210980F0F7440BF
:100FBB002401F582E434E7F583740AF00F744024BE
:100FCB0002F582E434E7F583E4F00F74402403F573
:100FDB0082E434E7F583E4F00F74402404F582E4F3
:100FEB0034E7F5837401F00F74402405F582E43483
:100FFB00E7F5837403F00F74402406F582E434E7BD
:10100B00F583E4F00F74402407F582E434E7F583AD
:10101B00E4F00F74402408F582E434E7F58374FFA1
:10102B00F00F74402409F582E434E7F58374FFF084
:10103B000F7440240AF582E434E7F5837408F00F4B
:10104B007440240BF582E434E7F5837420F00F74BD
:10105B0040240CF582E434E7F5837417F00F7440E9
:10106B00240DF582E434E7F5837417F00F744024F4
:10107B000EF582E434E7F5837401F090E740EFF06E
:0D108B00E490E68AF090E6BEE090E68BF07F
:011098002235
:100AE60090E6B9E012034C0B2D100B2D110B71146F
:100AF6000C25150B1B280B152E0B0F3C0B273F0B3C
:100B060021A20B21A300000C5F1203CB020C611281
:100B16000C63020C611212B8020C61120945020C38
:100B260061120FAB020C6190E6B8E030E70C7B0176
:100B36007AE77940121F8E020C4990E6BEE07010EB
:100B460090E6BCE0FF90E6BAE0FD121749020C61A0
:100B560090E6BEE090E68BF090E6A0E020E1F97B1F
:100B6600017AE77940121DD4020C61C2AF90E74CBE
:100B7600E513F0E4F5137B017AE77949121F8EE459
:100B8600F52674252526F582E43400F583E0FF7406
:100B9600402526F582E434E7F583EFF00526E526C1
:100BA600B403DF90E6BCE06027E4F5267422252630
:100BB600F582E43400F583E0F4FF74432526F582DC
:100BC600E434E7F583EFF00526E526B403DE80245A
:100BD600E4F52674222526F582E43400F583E0FF49
:100BE60074432526F582E434E7F583EFF00526E520
:100BF60026B403DFE4F526741F2526F582E43400C7
:100C0600F583E0FF74462526F582E434E7F583EFA5
:100C1600F00526E526B403DF121ABCD2AF8024E421
:100C2600F52674042526F582E43400F583E0FF7486
:100C3600402526F582E434E7F583EFF00526E52620
:100C4600B403DFE490E68AF090E6BEE090E68BF02F
:0C0C560090E6A0E04480F08002C322D3AE
:010C6200226F
:101E5400C0E0C083C08290E6B5E04401F0D20053F4
:0F1E640091EF90E65D7401F0D082D083D0E03230
:101F6200C0E0C083C0825391EF90E65D7404F0D06C
:061F720082D083D0E032B2
:101F7800C0E0C083C0825391EF90E65D7402F0D058
:061F880082D083D0E0329C
:101AF500C0E0C083C08290E680E030E70E854246B4
:101B0500854347854448854549800C854446854538
:101B1500478542488543495391EF90E65D7410F03F
:071B2500D082D083D0E03232
:101F3300C0E0C083C082D2035391EF90E65D740882
:081F4300F0D082D083D0E0321F
:101B2C00C0E0C083C08290E680E030E70E8542467C
:101B3C00854347854448854549800C854446854501
:101B4C00478542488543495391EF90E65D7420F0F8
:071B5C00D082D083D0E032FB
:0120B00032FD
:0120B10032FC
:0120B20032FB
:0120B30032FA
:0120B40032F9
:0120B50032F8
:0120B60032F7
:0120B70032F6
:0120B80032F5
:0120B90032F4
:0120BA0032F3
:0120BB0032F2
:0120BC0032F1
:0120BD0032F0
:0120BE0032EF
:0120BF0032EE
:0120C00032ED
:0120C10032EC
:0120C20032EB
:0120C30032EA
:0120C40032E9
:0120C50032E8
:0120C60032E7
:0120C70032E6
:0120C80032E5
:0120C90032E4
:0120CA0032E3
:0120CB0032E2
:0120CC0032E1
:0120CD0032E0
:0120CE0032DF
:0120CF0032DE
:0120D00032DD
:0120D10032DC
:0120D20032DB
:0120D30032DA
:0A2069000001020203030404050550
:03000B0002169842
:10169800C0E0C0F0C083C082C0D075D000C000C018
:1016A80004C005C006C007054CE54CB4062705155F
:1016B800E51570020514AE14FF7C007D0A1202E9DC
:1016C800ED4C700E900003E004F07006900002E00C
:1016D80004F0754C00D007D006D005D004D000D057
:0A16E800D0D082D083D0F0D0E032E1
:10135E00E4F524F523F522F521C203C201C202C22F
:10136E0000121A47753E0D753F9875400D7541AACE
:10137E0075420D7543B475440D7545D4754A0D759A
:10138E004BF4D2E843D82090E668E04409F090E6AA
:10139E005CE0443DF0D2AFD207121CFD90E680E037
:1013AE0054F7F0C203300005120720C200300329A3
:1013BE0012209F5024C203121DAF20011690E68208
:1013CE00E030E704E020E1EF90E682E030E604E072
:0E13DE0020E0E4121D2C1220A1121FE280C795
:1007200090E6B9E070030207D114700302084E246A
:10073000FE70030208D124FB70030207CB14700380
:100740000207C51460731460762405600302093142
:100750001220A3400302093D90E6BBE024FE602284
:1007600014603324FD601114602224067048E53EB5
:1007700090E6B3F0E53F8037E54090E6B3F0E54121
:10078000802DE54690E6B3F0E5478023E54890E606
:10079000B3F0E549801990E6BAE0FF121D58AA06A9
:1007A000A9077B01EA494B600DEE90E6B3F0EF90AC
:1007B000E6B4F002093D02093612201902093D1281
:1007C000207302093D12000302093D1220070209AD
:1007D0003D1220A5400302093D90E6B8E0247F6069
:1007E0001514601924027063A201E43325E0FFA20E
:1007F00002E4334F8041E490E740F0803F90E6BC54
:10080000E0547EFF7E00E0D394807C0040047D01B4
:1008100080027D00EC4EFEED4F2469F58274203E8F
:10082000F583E493FF3395E0FEEF24A1FFEE34E679
:100830008F82F583E0540190E740F0E4A3F090E666
:100840008AF090E68B7402F002093D02093612200C
:10085000A7400302093D90E6B8E024FE601624029A
:10086000600302093D90E6BAE0B40105C201020945
:100870003D02093690E6BAE0705590E6BCE0547E41
:10088000FF7E00E0D394807C0040047D0180027DE7
:1008900000EC4EFEED4F2469F58274203EF583E4B2
:1008A00093FF3395E0FEEF24A1FFEE34E68F82F54F
:1008B00083E054FEF090E6BCE05480131313541F01
:1008C000FFE0540F2F90E683F0E04420F0806E802C
:1008D000651220A9506790E6B8E024FE601A240251
:1008E000705B90E6BAE0B40104D201805090E6BAA1
:1008F000E0B402028047803E90E6BCE0547EFF7E7A
:1009000000E0D394807C0040047D0180027D00ECF7
:100910004EFEED4F2469F58274203EF583E493FF8B
:100920003395E0FEEF24A1FFEE34E68F82F583805D
:1009300008121099500790E6A0E04401F090E6A05C
:04094000E04480F01F
:010944002290
:0300330002209216
:0420920053D8EF32FE
:101E7300E4F5C8E58E54074438F58E8FCB8FCDAF8C
:0C1E8300058FCA8FCCD2BDD2ADD2CA22CE
:101CCC00AB07AA06A905A8047F007E1B7D377C4BB9
:101CDC00120151AB07AA06A905A804E4FFFE7D80FA
:101CEC007C471200591201EEAD07AC06AF04021E80
:011CFC007374
:10203C00AD07AC06C3E49DFBE49CFFEBFD021E73F5
:03209C00C2CA2293
:03002B00021A0AAC
:101A0A00C0E0C0F0C083C082C0D075D000C000C0A2
:101A1A0001C002C003C004C005C006C007120032DC
:101A2A00C2CFD007D006D005D004D003D002D0014F
:0D1A3A00D000D0D0D082D083D0F0D0E032E8
:03004300021200A6
:0300530002120096
:10120000021E5400021F7800021F6200021F3300FA
:10121000021AF500021B2C000220B0000220B100CF
:101220000220B2000220B3000220B4000220B50068
:101230000220B6000220B7000220B8000220B90048
:101240000220BA000220B1000220BB000220BC0034
:101250000220BD000220BE000220BF000220C0000C
:101260000220C1000220B1000220B1000220B10022
:101270000220C2000220C3000220C4000220C500D8
:101280000220C6000220C7000220C8000220C900B8
:101290000220CA000220CB000220CC000220CD0098
:1012A0000220CE000220CF000220D0000220D10078
:0812B0000220D2000220D3004D
:101D2C0090E682E030E004E020E60B90E682E030C2
:101D3C00E119E030E71590E680E04401F07F147E75
:0C1D4C000012188890E680E054FEF0229F
:101DAF0090E682E044C0F090E681F04387010000A6
:041DBF0000000022FE
:101CFD0030070990E680E0440AF0800790E680E026
:101D0D004408F07FDC7E0512188890E65D74FFF0C4
:0F1D1D0090E65FF05391EF90E680E054F7F022EC
:08207B00E4F51ED2E9D2AF2208
:101B630090E678E020E6F9C2E990E678E04480F078
:101B7300EF25E090E679F090E678E030E0F990E642
:101B830078E04440F090E678E020E6F990E678E0EB
:061B930030E1D6D2E92288
:101C9A00A90790E678E020E6F9E51E702390E67839
:101CAA00E04480F0E925E090E679F08D19AF03A9C8
:101CBA0007751A018A1B891CE4F51D751E01D322BA
:021CCA00C32233
:101C0200A90790E678E020E6F9E51E702590E678CF
:101C1200E04480F0E925E0440190E679F08D19AFC7
:101C220003A907751A018A1B891CE4F51D751E0399
:041C3200D322C322D4
:03004B00020EA3FF
:100EA300C0E0C083C082C085C084C086758600C090
:100EB300D075D000C000C001C002C003C006C00787
:100EC30090E678E030E206751E06020F8D90E67814
:100ED300E020E10CE51E64026006751E07020F8D1B
:100EE300E51E24FE605F14603624FE7003020F7E4D
:100EF30024FC7003020F8A24086003020F8DAB1ACF
:100F0300AA1BA91CAF1D051D8F82758300120288C1
:100F130090E679F0E51D65197070751E05806B907C
:100F2300E679E0AB1AAA1BA91CAE1D8E827583005D
:100F33001202C7751E02E5196401704E90E678E04F
:100F43004420F08045E51924FEB51D0790E678E0BE
:100F53004420F0E51914B51D0A90E678E04440F00A
:100F6300751E0090E679E0AB1AAA1BA91CAE1D8E74
:100F7300827583001202C7051D800F90E678E04456
:100F830040F0751E008003751E005391DFD007D01B
:100F930006D003D002D001D000D0D0D086D084D0E8
:080FA30085D082D083D0E0323A
:021D5800A907D9
:101D5A00AE4AAF4B8F828E83A3E064037017AD0146
:101D6A0019ED7001228F828E83E07C002FFDEC3EFC
:091D7A00FEAF0580DF7E007F0052
:011D8300223D
:101E8F00121C02E51E24FA600E146006240770F37C
:0C1E9F00D322E4F51ED322E4F51ED3226A
:101EAB00121C9AE51E24FA600E146006240770F3C8
:0C1EBB00D322E4F51ED322E4F51ED3224E
:101888008E258F2690E600E054187012E526240174
:10189800FFE43525C313F525EF13F526801590E6EB
:1018A80000E05418FFBF100BE52625E0F526E525D6
:1018B80033F525E5261526AE25700215254E60055B
:0618C800121DC380EE2298
:101DC3007400F58690FDA57C05A3E582458370F933
:011DD30022ED
:1000560002025AE86480F8E933E83360110460F07C
:10006600ED33EC337009E8FCE9FDEAFEEBFF220410
:1000760060DED3EB9FEA9EE99DE8C2E78CF0C2F70B
:1000860095F0400CE8CCF8E9CDF9EACEFAEBCFFBD7
:1000960012022585D0F05804700320D5B3E8047009
:1000A600075002B2D502026492D5EC0460F7E4CCA4
:1000B600C0E0C398F8603B94186008400DD0E0FBA0
:1000C60002023CE4FBFAC9FC8028E830E406E4C9F5
:1000D600FBE4CAFCE830E305E4C9CACBFCE85407F4
:1000E6006010F8C3E913F9EA13FAEB13FBEC13FCFF
:1000F600D8F130F52FC3E49CFCEF9BFFEE9AFEEDA2
:1001060099FDD0E0FBEF4E4D4C701222DB0302024C
:1001160061EC2CFCEF33FFEE33FEED33FDED30E703
:10012600EB02023CEF2BFFEE3AFEED39FDD0E0FB91
:1001360050130BBB0003020264ED13FDEE13FEEF3A
:0801460013FFEC13FC02023C64
:10014E00020264EC5D046005E85904700302025A71
:10015E00120225580460F6EC4860F2EC7004FDFEC5
:10016E00FF22C860DB2481C85009C3986002500684
:10017E000202619850CAF582E9294B4A7005AB829A
:10018E0002025075F0007C1A7880C3EF9BEE9AED58
:10019E0099400DC3EF9BFFEE9AFEED99FDE842F0FC
:1001AE00DC23ACF0D0E0FFD0E0FED0E0FDAB82204F
:1001BE00E7101BEB60BAEC2CFCEF33FFEE33FEEDD9
:1001CE0033FD02023CE803F830E705C0F075F0009D
:1001DE00EF2FFFEE33FEED33FD40B830E7C280AABD
:1001EE00EDD2E7CD33EC3392D524814006E4FFFE09
:1001FE00FDFC22FCE4CFCECDCC24E0501174FF8068
:10020E00EDC3CC13CCCD13CDCE13CECF13CF047004
:07021E00F030D5DE02033EC3
:10022500E9D2E7C933E833F892D5EDD2E7CD33EC1F
:0702350033FC5002B2D52298
:10023C00EC30E7100FBF000C0EBE00080DBD000423
:10024C000BEB6014A2D5EB13FCED92E7FD2274FFCF
:10025C00FCFDFEFF22E480F8A2D574FF13FC7D8028
:03026C00E480EF3C
:030000000213ECFC
:0C13EC00787FE4F6D8FD7581B60214335A
:10026F00BB010689828A83E0225002E722BBFE028D
:09027F00E32289828A83E49322C0
:10028800BB010CE58229F582E5833AF583E022502B
:1002980006E92582F8E622BBFE06E92582F8E22275
:0D02A800E58229F582E5833AF583E493228F
:1002B500BB010689828A83F0225002F722BBFE0128
:0202C500F32222
:1002C700F8BB010DE58229F582E5833AF583E8F06D
:1002D700225006E92582C8F622BBFE05E92582C819
:0202E700F22201
:1002E900BC000BBE0029EF8DF084FFADF022E4CCF9
:1002F900F875F008EF2FFFEE33FEEC33FCEE9DECC2
:10030900984005FCEE9DFE0FD5F0E9E4CEFD22ED07
:10031900F8F5F0EE8420D21CFEADF075F008EF2F51
:10032900FFED33FD4007985006D5F0F222C398FD42
:050339000FD5F0EA22DF
:0E033E00C3E49FFFE49EFEE49DFDE49CFC22D0
:10034C00D083D082F8E4937012740193700DA3A340
:10035C0093F8740193F5828883E473740293686054
:06036C00EFA3A3A380DF54
:10037200D083D082F8E4937012740193700DA3A31A
:1003820093F8740193F5828883E473740293B5F051
:0D039200067403936860E9A3A3A3A380D8B9
:10179B008B348A358936E4F53CF53DE53B153BAE9C
:1017AB003A7002153A4E6033AB37AA38A939120298
:1017BB006FFFAB34AA35A936053DE53DAC3C700255
:1017CB00053C14F5828C83EF1202C7EF60CD7401D8
:1017DB002539F539E43538F53880C0AB34AA35A94D
:0217EB003622A4
:101FCD00E4FFFE12026F600C0FEF70010E09E97055
:051FDD00F20A80EF2272
:10039F00EF4E6012EF60010EEDBB010B89828A8375
:1003AF00F0A3DFFCDEFA2289F05007F709DFFCA982
:0C03BF00F022BBFEFCF309DFFCA9F022D9
:1013F80002135EE493A3F8E493A34003F68001F29A
:1014080008DFF48029E493A3F85407240CC8C333F5
:10141800C4540F4420C8834004F456800146F6DFC4
:10142800E4800B0102040810204080901FB8E47E7D
:10143800019360BCA3FF543F30E509541FFEE493B9
:10144800A360010ECF54C025E060A840B8E493A380
:10145800FAE493A3F8E493A3C8C582C8CAC583CAAB
:10146800F0A3C8C582C8CAC583CADFE9DEE780BE63
:011FCC000014
:00000001FF
